{
  "_format": "hh-sol-artifact-1",
  "contractName": "FlipkartItem",
  "sourceName": "contracts/FlipkartItem.sol",
  "abi": [
    {
      "inputs": [],
      "stateMutability": "nonpayable",
      "type": "constructor"
    },
    {
      "anonymous": false,
      "inputs": [
        {
          "indexed": true,
          "internalType": "address",
          "name": "owner",
          "type": "address"
        },
        {
          "indexed": true,
          "internalType": "address",
          "name": "approved",
          "type": "address"
        },
        {
          "indexed": true,
          "internalType": "uint256",
          "name": "tokenId",
          "type": "uint256"
        }
      ],
      "name": "Approval",
      "type": "event"
    },
    {
      "anonymous": false,
      "inputs": [
        {
          "indexed": true,
          "internalType": "address",
          "name": "owner",
          "type": "address"
        },
        {
          "indexed": true,
          "internalType": "address",
          "name": "operator",
          "type": "address"
        },
        {
          "indexed": false,
          "internalType": "bool",
          "name": "approved",
          "type": "bool"
        }
      ],
      "name": "ApprovalForAll",
      "type": "event"
    },
    {
      "anonymous": false,
      "inputs": [
        {
          "indexed": true,
          "internalType": "address",
          "name": "previousOwner",
          "type": "address"
        },
        {
          "indexed": true,
          "internalType": "address",
          "name": "newOwner",
          "type": "address"
        }
      ],
      "name": "OwnershipTransferred",
      "type": "event"
    },
    {
      "anonymous": false,
      "inputs": [
        {
          "indexed": true,
          "internalType": "address",
          "name": "from",
          "type": "address"
        },
        {
          "indexed": true,
          "internalType": "address",
          "name": "to",
          "type": "address"
        },
        {
          "indexed": true,
          "internalType": "uint256",
          "name": "tokenId",
          "type": "uint256"
        }
      ],
      "name": "Transfer",
      "type": "event"
    },
    {
      "inputs": [
        {
          "internalType": "string",
          "name": "serialNumber",
          "type": "string"
        },
        {
          "internalType": "uint256",
          "name": "warrantyReason",
          "type": "uint256"
        },
        {
          "internalType": "uint256",
          "name": "warrantyOutcome",
          "type": "uint256"
        }
      ],
      "name": "addWarranty",
      "outputs": [],
      "stateMutability": "nonpayable",
      "type": "function"
    },
    {
      "inputs": [
        {
          "internalType": "address",
          "name": "to",
          "type": "address"
        },
        {
          "internalType": "uint256",
          "name": "tokenId",
          "type": "uint256"
        }
      ],
      "name": "approve",
      "outputs": [],
      "stateMutability": "nonpayable",
      "type": "function"
    },
    {
      "inputs": [
        {
          "internalType": "address",
          "name": "owner",
          "type": "address"
        }
      ],
      "name": "balanceOf",
      "outputs": [
        {
          "internalType": "uint256",
          "name": "",
          "type": "uint256"
        }
      ],
      "stateMutability": "view",
      "type": "function"
    },
    {
      "inputs": [
        {
          "internalType": "string",
          "name": "serialNumber",
          "type": "string"
        }
      ],
      "name": "buyItem",
      "outputs": [],
      "stateMutability": "payable",
      "type": "function"
    },
    {
      "inputs": [
        {
          "internalType": "string",
          "name": "serialNumber",
          "type": "string"
        }
      ],
      "name": "buyResaleItem",
      "outputs": [],
      "stateMutability": "payable",
      "type": "function"
    },
    {
      "inputs": [
        {
          "internalType": "string",
          "name": "serialNumber",
          "type": "string"
        },
        {
          "internalType": "string",
          "name": "itemURI",
          "type": "string"
        },
        {
          "internalType": "uint256",
          "name": "value",
          "type": "uint256"
        },
        {
          "internalType": "uint256",
          "name": "warrantyPeriod",
          "type": "uint256"
        },
        {
          "internalType": "bool",
          "name": "isSoulbound",
          "type": "bool"
        }
      ],
      "name": "createItem",
      "outputs": [],
      "stateMutability": "nonpayable",
      "type": "function"
    },
    {
      "inputs": [
        {
          "internalType": "uint256",
          "name": "tokenId",
          "type": "uint256"
        }
      ],
      "name": "getApproved",
      "outputs": [
        {
          "internalType": "address",
          "name": "",
          "type": "address"
        }
      ],
      "stateMutability": "view",
      "type": "function"
    },
    {
      "inputs": [
        {
          "internalType": "string",
          "name": "serialNumber",
          "type": "string"
        },
        {
          "internalType": "uint256",
          "name": "index",
          "type": "uint256"
        }
      ],
      "name": "getItemOwner",
      "outputs": [
        {
          "internalType": "address",
          "name": "",
          "type": "address"
        }
      ],
      "stateMutability": "view",
      "type": "function"
    },
    {
      "inputs": [
        {
          "internalType": "string",
          "name": "serialNumber",
          "type": "string"
        }
      ],
      "name": "getItemOwnerLength",
      "outputs": [
        {
          "internalType": "uint256",
          "name": "",
          "type": "uint256"
        }
      ],
      "stateMutability": "view",
      "type": "function"
    },
    {
      "inputs": [
        {
          "internalType": "string",
          "name": "serialNumber",
          "type": "string"
        },
        {
          "internalType": "uint256",
          "name": "index",
          "type": "uint256"
        }
      ],
      "name": "getItemWarranty",
      "outputs": [
        {
          "components": [
            {
              "internalType": "enum FlipkartItem.WarrantyReason",
              "name": "reason",
              "type": "uint8"
            },
            {
              "internalType": "enum FlipkartItem.WarrantyOutcome",
              "name": "outcome",
              "type": "uint8"
            },
            {
              "internalType": "uint256",
              "name": "timestamp",
              "type": "uint256"
            }
          ],
          "internalType": "struct FlipkartItem.WarrantyInfo",
          "name": "",
          "type": "tuple"
        }
      ],
      "stateMutability": "view",
      "type": "function"
    },
    {
      "inputs": [
        {
          "internalType": "string",
          "name": "serialNumber",
          "type": "string"
        }
      ],
      "name": "getItemWarrantyLength",
      "outputs": [
        {
          "internalType": "uint256",
          "name": "",
          "type": "uint256"
        }
      ],
      "stateMutability": "view",
      "type": "function"
    },
    {
      "inputs": [
        {
          "internalType": "address",
          "name": "owner",
          "type": "address"
        },
        {
          "internalType": "address",
          "name": "operator",
          "type": "address"
        }
      ],
      "name": "isApprovedForAll",
      "outputs": [
        {
          "internalType": "bool",
          "name": "",
          "type": "bool"
        }
      ],
      "stateMutability": "view",
      "type": "function"
    },
    {
      "inputs": [
        {
          "internalType": "string",
          "name": "serialNumber",
          "type": "string"
        }
      ],
      "name": "isWarrantyExpired",
      "outputs": [
        {
          "internalType": "bool",
          "name": "",
          "type": "bool"
        }
      ],
      "stateMutability": "view",
      "type": "function"
    },
    {
      "inputs": [
        {
          "internalType": "string",
          "name": "",
          "type": "string"
        }
      ],
      "name": "items",
      "outputs": [
        {
          "internalType": "uint256",
          "name": "itemId",
          "type": "uint256"
        },
        {
          "internalType": "string",
          "name": "itemURI",
          "type": "string"
        },
        {
          "internalType": "uint256",
          "name": "value",
          "type": "uint256"
        },
        {
          "internalType": "uint256",
          "name": "creationTime",
          "type": "uint256"
        },
        {
          "internalType": "uint256",
          "name": "warrantyPeriod",
          "type": "uint256"
        },
        {
          "internalType": "bool",
          "name": "isPurchased",
          "type": "bool"
        },
        {
          "internalType": "bool",
          "name": "availableForResale",
          "type": "bool"
        },
        {
          "internalType": "bool",
          "name": "isSoulbound",
          "type": "bool"
        }
      ],
      "stateMutability": "view",
      "type": "function"
    },
    {
      "inputs": [],
      "name": "name",
      "outputs": [
        {
          "internalType": "string",
          "name": "",
          "type": "string"
        }
      ],
      "stateMutability": "view",
      "type": "function"
    },
    {
      "inputs": [],
      "name": "owner",
      "outputs": [
        {
          "internalType": "address",
          "name": "",
          "type": "address"
        }
      ],
      "stateMutability": "view",
      "type": "function"
    },
    {
      "inputs": [
        {
          "internalType": "uint256",
          "name": "tokenId",
          "type": "uint256"
        }
      ],
      "name": "ownerOf",
      "outputs": [
        {
          "internalType": "address",
          "name": "",
          "type": "address"
        }
      ],
      "stateMutability": "view",
      "type": "function"
    },
    {
      "inputs": [
        {
          "internalType": "string",
          "name": "serialNumber",
          "type": "string"
        }
      ],
      "name": "putForResale",
      "outputs": [],
      "stateMutability": "nonpayable",
      "type": "function"
    },
    {
      "inputs": [],
      "name": "renounceOwnership",
      "outputs": [],
      "stateMutability": "nonpayable",
      "type": "function"
    },
    {
      "inputs": [
        {
          "internalType": "address",
          "name": "from",
          "type": "address"
        },
        {
          "internalType": "address",
          "name": "to",
          "type": "address"
        },
        {
          "internalType": "uint256",
          "name": "tokenId",
          "type": "uint256"
        }
      ],
      "name": "safeTransferFrom",
      "outputs": [],
      "stateMutability": "nonpayable",
      "type": "function"
    },
    {
      "inputs": [
        {
          "internalType": "address",
          "name": "from",
          "type": "address"
        },
        {
          "internalType": "address",
          "name": "to",
          "type": "address"
        },
        {
          "internalType": "uint256",
          "name": "tokenId",
          "type": "uint256"
        },
        {
          "internalType": "bytes",
          "name": "data",
          "type": "bytes"
        }
      ],
      "name": "safeTransferFrom",
      "outputs": [],
      "stateMutability": "nonpayable",
      "type": "function"
    },
    {
      "inputs": [
        {
          "internalType": "uint256",
          "name": "",
          "type": "uint256"
        }
      ],
      "name": "serialNumbers",
      "outputs": [
        {
          "internalType": "string",
          "name": "",
          "type": "string"
        }
      ],
      "stateMutability": "view",
      "type": "function"
    },
    {
      "inputs": [
        {
          "internalType": "address",
          "name": "operator",
          "type": "address"
        },
        {
          "internalType": "bool",
          "name": "approved",
          "type": "bool"
        }
      ],
      "name": "setApprovalForAll",
      "outputs": [],
      "stateMutability": "nonpayable",
      "type": "function"
    },
    {
      "inputs": [
        {
          "internalType": "string",
          "name": "serialNumber",
          "type": "string"
        },
        {
          "internalType": "uint256",
          "name": "value",
          "type": "uint256"
        }
      ],
      "name": "setValue",
      "outputs": [],
      "stateMutability": "nonpayable",
      "type": "function"
    },
    {
      "inputs": [
        {
          "internalType": "bytes4",
          "name": "interfaceId",
          "type": "bytes4"
        }
      ],
      "name": "supportsInterface",
      "outputs": [
        {
          "internalType": "bool",
          "name": "",
          "type": "bool"
        }
      ],
      "stateMutability": "view",
      "type": "function"
    },
    {
      "inputs": [],
      "name": "symbol",
      "outputs": [
        {
          "internalType": "string",
          "name": "",
          "type": "string"
        }
      ],
      "stateMutability": "view",
      "type": "function"
    },
    {
      "inputs": [
        {
          "internalType": "uint256",
          "name": "tokenId",
          "type": "uint256"
        }
      ],
      "name": "tokenURI",
      "outputs": [
        {
          "internalType": "string",
          "name": "",
          "type": "string"
        }
      ],
      "stateMutability": "view",
      "type": "function"
    },
    {
      "inputs": [],
      "name": "totalItems",
      "outputs": [
        {
          "internalType": "uint256",
          "name": "",
          "type": "uint256"
        }
      ],
      "stateMutability": "view",
      "type": "function"
    },
    {
      "inputs": [
        {
          "internalType": "address",
          "name": "from",
          "type": "address"
        },
        {
          "internalType": "address",
          "name": "to",
          "type": "address"
        },
        {
          "internalType": "uint256",
          "name": "tokenId",
          "type": "uint256"
        }
      ],
      "name": "transferFrom",
      "outputs": [],
      "stateMutability": "nonpayable",
      "type": "function"
    },
    {
      "inputs": [
        {
          "internalType": "address",
          "name": "newOwner",
          "type": "address"
        }
      ],
      "name": "transferOwnership",
      "outputs": [],
      "stateMutability": "nonpayable",
      "type": "function"
    },
    {
      "inputs": [
        {
          "internalType": "string",
          "name": "",
          "type": "string"
        },
        {
          "internalType": "uint256",
          "name": "",
          "type": "uint256"
        }
      ],
      "name": "warrantyInfos",
      "outputs": [
        {
          "internalType": "enum FlipkartItem.WarrantyReason",
          "name": "reason",
          "type": "uint8"
        },
        {
          "internalType": "enum FlipkartItem.WarrantyOutcome",
          "name": "outcome",
          "type": "uint8"
        },
        {
          "internalType": "uint256",
          "name": "timestamp",
          "type": "uint256"
        }
      ],
      "stateMutability": "view",
      "type": "function"
    },
    {
      "inputs": [],
      "name": "withdraw",
      "outputs": [],
      "stateMutability": "nonpayable",
      "type": "function"
    }
  ],
  "bytecode": "0x60806040523480156200001157600080fd5b506040518060400160405280600c81526020017f466c69706b6172744974656d00000000000000000000000000000000000000008152506040518060400160405280600581526020017f464c49544d000000000000000000000000000000000000000000000000000000815250816000908051906020019062000096929190620001a6565b508060019080519060200190620000af929190620001a6565b505050620000d2620000c6620000d860201b60201c565b620000e060201b60201c565b620002bb565b600033905090565b6000600660009054906101000a900473ffffffffffffffffffffffffffffffffffffffff16905081600660006101000a81548173ffffffffffffffffffffffffffffffffffffffff021916908373ffffffffffffffffffffffffffffffffffffffff1602179055508173ffffffffffffffffffffffffffffffffffffffff168173ffffffffffffffffffffffffffffffffffffffff167f8be0079c531659141344cd1fd0a4f28419497f9722a3daafe3b4186f6b6457e060405160405180910390a35050565b828054620001b49062000285565b90600052602060002090601f016020900481019282620001d8576000855562000224565b82601f10620001f357805160ff191683800117855562000224565b8280016001018555821562000224579182015b828111156200022357825182559160200191906001019062000206565b5b50905062000233919062000237565b5090565b5b808211156200025257600081600090555060010162000238565b5090565b7f4e487b7100000000000000000000000000000000000000000000000000000000600052602260045260246000fd5b600060028204905060018216806200029e57607f821691505b60208210811415620002b557620002b462000256565b5b50919050565b6148b180620002cb6000396000f3fe6080604052600436106101e35760003560e01c806370a0823111610102578063a69eac3211610095578063e985e9c511610064578063e985e9c514610732578063eb1b66641461076f578063eeae434f1461078b578063f2fde38b146107ca576101e3565b8063a69eac3214610666578063b41f67851461068f578063b88d4fde146106cc578063c87b56dd146106f5576101e3565b80638da5cb5b116100d15780638da5cb5b146105aa578063940effae146105d557806395d89b4114610612578063a22cb4651461063d576101e3565b806370a08231146104f0578063715018a61461052d5780637c2da7aa1461054457806381fbd3291461056d576101e3565b8063295ef6201161017a57806344942d9e1161014957806344942d9e146103f55780634909b29b146104325780635fc055e9146104765780636352211e146104b3576101e3565b8063295ef6201461034f578063398395ff146103785780633ccfd60b146103b557806342842e0e146103cc576101e3565b806310f2836b116101b657806310f2836b146102b657806313f19926146102df57806323b872dd146102fb5780632799276d14610324576101e3565b806301ffc9a7146101e857806306fdde0314610225578063081812fc14610250578063095ea7b31461028d575b600080fd5b3480156101f457600080fd5b5061020f600480360381019061020a9190613108565b6107f3565b60405161021c9190613150565b60405180910390f35b34801561023157600080fd5b5061023a6108d5565b6040516102479190613204565b60405180910390f35b34801561025c57600080fd5b506102776004803603810190610272919061325c565b610967565b60405161028491906132ca565b60405180910390f35b34801561029957600080fd5b506102b460048036038101906102af9190613311565b6109ad565b005b3480156102c257600080fd5b506102dd60048036038101906102d891906134b2565b610ac5565b005b6102f960048036038101906102f49190613565565b610c53565b005b34801561030757600080fd5b50610322600480360381019061031d91906135ae565b610e7d565b005b34801561033057600080fd5b50610339610edd565b6040516103469190613610565b60405180910390f35b34801561035b57600080fd5b5061037660048036038101906103719190613565565b610eea565b005b34801561038457600080fd5b5061039f600480360381019061039a9190613565565b611054565b6040516103ac9190613610565b60405180910390f35b3480156103c157600080fd5b506103ca6110c7565b005b3480156103d857600080fd5b506103f360048036038101906103ee91906135ae565b61111f565b005b34801561040157600080fd5b5061041c60048036038101906104179190613565565b61113f565b6040516104299190613610565b60405180910390f35b34801561043e57600080fd5b5061045960048036038101906104549190613565565b6111b5565b60405161046d98979695949392919061362b565b60405180910390f35b34801561048257600080fd5b5061049d600480360381019061049891906136b0565b6112c2565b6040516104aa91906132ca565b60405180910390f35b3480156104bf57600080fd5b506104da60048036038101906104d5919061325c565b611372565b6040516104e791906132ca565b60405180910390f35b3480156104fc57600080fd5b506105176004803603810190610512919061370c565b611424565b6040516105249190613610565b60405180910390f35b34801561053957600080fd5b506105426114dc565b005b34801561055057600080fd5b5061056b600480360381019061056691906136b0565b6114f0565b005b34801561057957600080fd5b50610594600480360381019061058f919061325c565b611687565b6040516105a19190613204565b60405180910390f35b3480156105b657600080fd5b506105bf611733565b6040516105cc91906132ca565b60405180910390f35b3480156105e157600080fd5b506105fc60048036038101906105f791906136b0565b61175d565b6040516106099190613849565b60405180910390f35b34801561061e57600080fd5b5061062761187e565b6040516106349190613204565b60405180910390f35b34801561064957600080fd5b50610664600480360381019061065f9190613864565b611910565b005b34801561067257600080fd5b5061068d600480360381019061068891906138a4565b611926565b005b34801561069b57600080fd5b506106b660048036038101906106b19190613565565b611a91565b6040516106c39190613150565b60405180910390f35b3480156106d857600080fd5b506106f360048036038101906106ee91906139b4565b611aea565b005b34801561070157600080fd5b5061071c6004803603810190610717919061325c565b611b4c565b6040516107299190613204565b60405180910390f35b34801561073e57600080fd5b5061075960048036038101906107549190613a37565b611bb4565b6040516107669190613150565b60405180910390f35b61078960048036038101906107849190613565565b611c48565b005b34801561079757600080fd5b506107b260048036038101906107ad91906136b0565b611ea1565b6040516107c193929190613a95565b60405180910390f35b3480156107d657600080fd5b506107f160048036038101906107ec919061370c565b611f18565b005b60007f80ac58cd000000000000000000000000000000000000000000000000000000007bffffffffffffffffffffffffffffffffffffffffffffffffffffffff1916827bffffffffffffffffffffffffffffffffffffffffffffffffffffffff191614806108be57507f5b5e139f000000000000000000000000000000000000000000000000000000007bffffffffffffffffffffffffffffffffffffffffffffffffffffffff1916827bffffffffffffffffffffffffffffffffffffffffffffffffffffffff1916145b806108ce57506108cd82611f9c565b5b9050919050565b6060600080546108e490613afb565b80601f016020809104026020016040519081016040528092919081815260200182805461091090613afb565b801561095d5780601f106109325761010080835404028352916020019161095d565b820191906000526020600020905b81548152906001019060200180831161094057829003601f168201915b5050505050905090565b600061097282612006565b6004600083815260200190815260200160002060009054906101000a900473ffffffffffffffffffffffffffffffffffffffff169050919050565b60006109b882611372565b90508073ffffffffffffffffffffffffffffffffffffffff168373ffffffffffffffffffffffffffffffffffffffff161415610a29576040517f08c379a0000000000000000000000000000000000000000000000000000000008152600401610a2090613b9f565b60405180910390fd5b8073ffffffffffffffffffffffffffffffffffffffff16610a48612051565b73ffffffffffffffffffffffffffffffffffffffff161480610a775750610a7681610a71612051565b611bb4565b5b610ab6576040517f08c379a0000000000000000000000000000000000000000000000000000000008152600401610aad90613c31565b60405180910390fd5b610ac08383612059565b505050565b610acd612112565b6060604051806101200160405280828152602001610aeb6007612190565b815260200186815260200185815260200160008152602001848152602001600015158152602001600015158152602001831515815250600987604051610b319190613c8d565b90815260200160405180910390206000820151816000019080519060200190610b5b929190612f2a565b50602082015181600101556040820151816002019080519060200190610b82929190612fb4565b50606082015181600301556080820151816004015560a0820151816005015560c08201518160060160006101000a81548160ff02191690831515021790555060e08201518160060160016101000a81548160ff0219169083151502179055506101008201518160060160026101000a81548160ff021916908315150217905550905050600a86908060018154018082558091505060019003906000526020600020016000909190919091509080519060200190610c40929190612fb4565b50610c4b600761219e565b505050505050565b610c5c816121b4565b610c9b576040517f08c379a0000000000000000000000000000000000000000000000000000000008152600401610c9290613cf0565b60405180910390fd5b600981604051610cab9190613c8d565b908152602001604051809103902060060160009054906101000a900460ff1615610d0a576040517f08c379a0000000000000000000000000000000000000000000000000000000008152600401610d0190613d5c565b60405180910390fd5b600981604051610d1a9190613c8d565b9081526020016040518091039020600301543414610d6d576040517f08c379a0000000000000000000000000000000000000000000000000000000008152600401610d6490613dc8565b60405180910390fd5b610d9833600983604051610d819190613c8d565b9081526020016040518091039020600101546122a2565b6001600982604051610daa9190613c8d565b908152602001604051809103902060060160006101000a81548160ff02191690831515021790555042600982604051610de39190613c8d565b908152602001604051809103902060040181905550600981604051610e089190613c8d565b9081526020016040518091039020600001339080600181540180825580915050600190039060005260206000200160009091909190916101000a81548173ffffffffffffffffffffffffffffffffffffffff021916908373ffffffffffffffffffffffffffffffffffffffff16021790555050565b610e8e610e88612051565b8261247c565b610ecd576040517f08c379a0000000000000000000000000000000000000000000000000000000008152600401610ec490613e5a565b60405180910390fd5b610ed8838383612511565b505050565b6000600a80549050905090565b610ef3816121b4565b610f32576040517f08c379a0000000000000000000000000000000000000000000000000000000008152600401610f2990613cf0565b60405180910390fd5b610f3b81612778565b73ffffffffffffffffffffffffffffffffffffffff163373ffffffffffffffffffffffffffffffffffffffff1614610fa8576040517f08c379a0000000000000000000000000000000000000000000000000000000008152600401610f9f90613ec6565b60405180910390fd5b600981604051610fb89190613c8d565b908152602001604051809103902060060160029054906101000a900460ff1615611017576040517f08c379a000000000000000000000000000000000000000000000000000000000815260040161100e90613f58565b60405180910390fd5b60016009826040516110299190613c8d565b908152602001604051809103902060060160016101000a81548160ff02191690831515021790555050565b600061105f826121b4565b61109e576040517f08c379a000000000000000000000000000000000000000000000000000000000815260040161109590613cf0565b60405180910390fd5b6008826040516110ae9190613c8d565b9081526020016040518091039020805490509050919050565b6110cf612112565b6110d7611733565b73ffffffffffffffffffffffffffffffffffffffff166108fc479081150290604051600060405180830381858888f1935050505015801561111c573d6000803e3d6000fd5b50565b61113a83838360405180602001604052806000815250611aea565b505050565b600061114a826121b4565b611189576040517f08c379a000000000000000000000000000000000000000000000000000000000815260040161118090613cf0565b60405180910390fd5b6009826040516111999190613c8d565b9081526020016040518091039020600001805490509050919050565b6009818051602081018201805184825260208301602085012081835280955050505050506000915090508060010154908060020180546111f490613afb565b80601f016020809104026020016040519081016040528092919081815260200182805461122090613afb565b801561126d5780601f106112425761010080835404028352916020019161126d565b820191906000526020600020905b81548152906001019060200180831161125057829003601f168201915b5050505050908060030154908060040154908060050154908060060160009054906101000a900460ff16908060060160019054906101000a900460ff16908060060160029054906101000a900460ff16905088565b60006112cd836121b4565b61130c576040517f08c379a000000000000000000000000000000000000000000000000000000000815260040161130390613cf0565b60405180910390fd5b60098360405161131c9190613c8d565b9081526020016040518091039020600001828154811061133f5761133e613f78565b5b9060005260206000200160009054906101000a900473ffffffffffffffffffffffffffffffffffffffff16905092915050565b6000806002600084815260200190815260200160002060009054906101000a900473ffffffffffffffffffffffffffffffffffffffff169050600073ffffffffffffffffffffffffffffffffffffffff168173ffffffffffffffffffffffffffffffffffffffff16141561141b576040517f08c379a000000000000000000000000000000000000000000000000000000000815260040161141290613ff3565b60405180910390fd5b80915050919050565b60008073ffffffffffffffffffffffffffffffffffffffff168273ffffffffffffffffffffffffffffffffffffffff161415611495576040517f08c379a000000000000000000000000000000000000000000000000000000000815260040161148c90614085565b60405180910390fd5b600360008373ffffffffffffffffffffffffffffffffffffffff1673ffffffffffffffffffffffffffffffffffffffff168152602001908152602001600020549050919050565b6114e4612112565b6114ee600061280f565b565b6114f9826121b4565b611538576040517f08c379a000000000000000000000000000000000000000000000000000000000815260040161152f90613cf0565b60405180910390fd5b6009826040516115489190613c8d565b908152602001604051809103902060060160009054906101000a900460ff16156115e75761157582612778565b73ffffffffffffffffffffffffffffffffffffffff163373ffffffffffffffffffffffffffffffffffffffff16146115e2576040517f08c379a00000000000000000000000000000000000000000000000000000000081526004016115d9906140f1565b60405180910390fd5b61165d565b6115ef611733565b73ffffffffffffffffffffffffffffffffffffffff163373ffffffffffffffffffffffffffffffffffffffff161461165c576040517f08c379a0000000000000000000000000000000000000000000000000000000008152600401611653906140f1565b60405180910390fd5b5b8060098360405161166e9190613c8d565b9081526020016040518091039020600301819055505050565b600a818154811061169757600080fd5b9060005260206000200160009150905080546116b290613afb565b80601f01602080910402602001604051908101604052809291908181526020018280546116de90613afb565b801561172b5780601f106117005761010080835404028352916020019161172b565b820191906000526020600020905b81548152906001019060200180831161170e57829003601f168201915b505050505081565b6000600660009054906101000a900473ffffffffffffffffffffffffffffffffffffffff16905090565b61176561303a565b61176e836121b4565b6117ad576040517f08c379a00000000000000000000000000000000000000000000000000000000081526004016117a490613cf0565b60405180910390fd5b6008836040516117bd9190613c8d565b908152602001604051809103902082815481106117dd576117dc613f78565b5b90600052602060002090600202016040518060600160405290816000820160009054906101000a900460ff16600181111561181b5761181a613739565b5b600181111561182d5761182c613739565b5b81526020016000820160019054906101000a900460ff16600181111561185657611855613739565b5b600181111561186857611867613739565b5b8152602001600182015481525050905092915050565b60606001805461188d90613afb565b80601f01602080910402602001604051908101604052809291908181526020018280546118b990613afb565b80156119065780601f106118db57610100808354040283529160200191611906565b820191906000526020600020905b8154815290600101906020018083116118e957829003601f168201915b5050505050905090565b61192261191b612051565b83836128d5565b5050565b61192e612112565b61193783611a91565b611976576040517f08c379a000000000000000000000000000000000000000000000000000000000815260040161196d9061415d565b60405180910390fd5b6008836040516119869190613c8d565b908152602001604051809103902060405180606001604052808460018111156119b2576119b1613739565b5b60018111156119c4576119c3613739565b5b81526020018360018111156119dc576119db613739565b5b60018111156119ee576119ed613739565b5b815260200142815250908060018154018082558091505060019003906000526020600020906002020160009091909190915060008201518160000160006101000a81548160ff02191690836001811115611a4b57611a4a613739565b5b021790555060208201518160000160016101000a81548160ff02191690836001811115611a7b57611a7a613739565b5b0217905550604082015181600101555050505050565b600042600983604051611aa49190613c8d565b908152602001604051809103902060050154600984604051611ac69190613c8d565b908152602001604051809103902060040154611ae291906141ac565b119050919050565b611afb611af5612051565b8361247c565b611b3a576040517f08c379a0000000000000000000000000000000000000000000000000000000008152600401611b3190613e5a565b60405180910390fd5b611b4684848484612a42565b50505050565b6060611b5782612006565b6000611b61612a9e565b90506000815111611b815760405180602001604052806000815250611bac565b80611b8b84612ab5565b604051602001611b9c929190614202565b6040516020818303038152906040525b915050919050565b6000600560008473ffffffffffffffffffffffffffffffffffffffff1673ffffffffffffffffffffffffffffffffffffffff16815260200190815260200160002060008373ffffffffffffffffffffffffffffffffffffffff1673ffffffffffffffffffffffffffffffffffffffff16815260200190815260200160002060009054906101000a900460ff16905092915050565b611c51816121b4565b611c90576040517f08c379a0000000000000000000000000000000000000000000000000000000008152600401611c8790613cf0565b60405180910390fd5b600981604051611ca09190613c8d565b908152602001604051809103902060060160019054906101000a900460ff16611cfe576040517f08c379a0000000000000000000000000000000000000000000000000000000008152600401611cf590614272565b60405180910390fd5b34600982604051611d0f9190613c8d565b90815260200160405180910390206003015414611d61576040517f08c379a0000000000000000000000000000000000000000000000000000000008152600401611d5890613dc8565b60405180910390fd5b6000611d6c82612778565b90508073ffffffffffffffffffffffffffffffffffffffff166108fc349081150290604051600060405180830381858888f19350505050158015611db4573d6000803e3d6000fd5b50611de18133600985604051611dca9190613c8d565b908152602001604051809103902060010154612511565b6000600983604051611df39190613c8d565b908152602001604051809103902060060160016101000a81548160ff021916908315150217905550600982604051611e2b9190613c8d565b9081526020016040518091039020600001339080600181540180825580915050600190039060005260206000200160009091909190916101000a81548173ffffffffffffffffffffffffffffffffffffffff021916908373ffffffffffffffffffffffffffffffffffffffff1602179055505050565b6008828051602081018201805184825260208301602085012081835280955050505050508181548110611ed357600080fd5b9060005260206000209060020201600091509150508060000160009054906101000a900460ff16908060000160019054906101000a900460ff16908060010154905083565b611f20612112565b600073ffffffffffffffffffffffffffffffffffffffff168173ffffffffffffffffffffffffffffffffffffffff161415611f90576040517f08c379a0000000000000000000000000000000000000000000000000000000008152600401611f8790614304565b60405180910390fd5b611f998161280f565b50565b60007f01ffc9a7000000000000000000000000000000000000000000000000000000007bffffffffffffffffffffffffffffffffffffffffffffffffffffffff1916827bffffffffffffffffffffffffffffffffffffffffffffffffffffffff1916149050919050565b61200f81612c16565b61204e576040517f08c379a000000000000000000000000000000000000000000000000000000000815260040161204590613ff3565b60405180910390fd5b50565b600033905090565b816004600083815260200190815260200160002060006101000a81548173ffffffffffffffffffffffffffffffffffffffff021916908373ffffffffffffffffffffffffffffffffffffffff160217905550808273ffffffffffffffffffffffffffffffffffffffff166120cc83611372565b73ffffffffffffffffffffffffffffffffffffffff167f8c5be1e5ebec7d5bd14f71427d1e84f3dd0314c0f7b2291e5b200ac8c7c3b92560405160405180910390a45050565b61211a612051565b73ffffffffffffffffffffffffffffffffffffffff16612138611733565b73ffffffffffffffffffffffffffffffffffffffff161461218e576040517f08c379a000000000000000000000000000000000000000000000000000000000815260040161218590614370565b60405180910390fd5b565b600081600001549050919050565b6001816000016000828254019250508190555050565b60008060005b600a8054905081101561229857612277600a82815481106121de576121dd613f78565b5b9060005260206000200180546121f390613afb565b80601f016020809104026020016040519081016040528092919081815260200182805461221f90613afb565b801561226c5780601f106122415761010080835404028352916020019161226c565b820191906000526020600020905b81548152906001019060200180831161224f57829003601f168201915b505050505085612c82565b156122855760019150612298565b808061229090614390565b9150506121ba565b5080915050919050565b600073ffffffffffffffffffffffffffffffffffffffff168273ffffffffffffffffffffffffffffffffffffffff161415612312576040517f08c379a000000000000000000000000000000000000000000000000000000000815260040161230990614425565b60405180910390fd5b61231b81612c16565b1561235b576040517f08c379a000000000000000000000000000000000000000000000000000000000815260040161235290614491565b60405180910390fd5b61236760008383612d66565b6001600360008473ffffffffffffffffffffffffffffffffffffffff1673ffffffffffffffffffffffffffffffffffffffff16815260200190815260200160002060008282546123b791906141ac565b92505081905550816002600083815260200190815260200160002060006101000a81548173ffffffffffffffffffffffffffffffffffffffff021916908373ffffffffffffffffffffffffffffffffffffffff160217905550808273ffffffffffffffffffffffffffffffffffffffff16600073ffffffffffffffffffffffffffffffffffffffff167fddf252ad1be2c89b69c2b068fc378daa952ba7f163c4a11628f55a4df523b3ef60405160405180910390a461247860008383612d6b565b5050565b60008061248883611372565b90508073ffffffffffffffffffffffffffffffffffffffff168473ffffffffffffffffffffffffffffffffffffffff1614806124ca57506124c98185611bb4565b5b8061250857508373ffffffffffffffffffffffffffffffffffffffff166124f084610967565b73ffffffffffffffffffffffffffffffffffffffff16145b91505092915050565b8273ffffffffffffffffffffffffffffffffffffffff1661253182611372565b73ffffffffffffffffffffffffffffffffffffffff1614612587576040517f08c379a000000000000000000000000000000000000000000000000000000000815260040161257e90614523565b60405180910390fd5b600073ffffffffffffffffffffffffffffffffffffffff168273ffffffffffffffffffffffffffffffffffffffff1614156125f7576040517f08c379a00000000000000000000000000000000000000000000000000000000081526004016125ee906145b5565b60405180910390fd5b612602838383612d66565b61260d600082612059565b6001600360008573ffffffffffffffffffffffffffffffffffffffff1673ffffffffffffffffffffffffffffffffffffffff168152602001908152602001600020600082825461265d91906145d5565b925050819055506001600360008473ffffffffffffffffffffffffffffffffffffffff1673ffffffffffffffffffffffffffffffffffffffff16815260200190815260200160002060008282546126b491906141ac565b92505081905550816002600083815260200190815260200160002060006101000a81548173ffffffffffffffffffffffffffffffffffffffff021916908373ffffffffffffffffffffffffffffffffffffffff160217905550808273ffffffffffffffffffffffffffffffffffffffff168473ffffffffffffffffffffffffffffffffffffffff167fddf252ad1be2c89b69c2b068fc378daa952ba7f163c4a11628f55a4df523b3ef60405160405180910390a4612773838383612d6b565b505050565b600060098260405161278a9190613c8d565b908152602001604051809103902060000160016009846040516127ad9190613c8d565b9081526020016040518091039020600001805490506127cc91906145d5565b815481106127dd576127dc613f78565b5b9060005260206000200160009054906101000a900473ffffffffffffffffffffffffffffffffffffffff169050919050565b6000600660009054906101000a900473ffffffffffffffffffffffffffffffffffffffff16905081600660006101000a81548173ffffffffffffffffffffffffffffffffffffffff021916908373ffffffffffffffffffffffffffffffffffffffff1602179055508173ffffffffffffffffffffffffffffffffffffffff168173ffffffffffffffffffffffffffffffffffffffff167f8be0079c531659141344cd1fd0a4f28419497f9722a3daafe3b4186f6b6457e060405160405180910390a35050565b8173ffffffffffffffffffffffffffffffffffffffff168373ffffffffffffffffffffffffffffffffffffffff161415612944576040517f08c379a000000000000000000000000000000000000000000000000000000000815260040161293b90614655565b60405180910390fd5b80600560008573ffffffffffffffffffffffffffffffffffffffff1673ffffffffffffffffffffffffffffffffffffffff16815260200190815260200160002060008473ffffffffffffffffffffffffffffffffffffffff1673ffffffffffffffffffffffffffffffffffffffff16815260200190815260200160002060006101000a81548160ff0219169083151502179055508173ffffffffffffffffffffffffffffffffffffffff168373ffffffffffffffffffffffffffffffffffffffff167f17307eab39ab6107e8899845ad3d59bd9653f200f220920489ca2b5937696c3183604051612a359190613150565b60405180910390a3505050565b612a4d848484612511565b612a5984848484612d70565b612a98576040517f08c379a0000000000000000000000000000000000000000000000000000000008152600401612a8f906146e7565b60405180910390fd5b50505050565b606060405180602001604052806000815250905090565b60606000821415612afd576040518060400160405280600181526020017f30000000000000000000000000000000000000000000000000000000000000008152509050612c11565b600082905060005b60008214612b2f578080612b1890614390565b915050600a82612b289190614736565b9150612b05565b60008167ffffffffffffffff811115612b4b57612b4a61335b565b5b6040519080825280601f01601f191660200182016040528015612b7d5781602001600182028036833780820191505090505b5090505b60008514612c0a57600182612b9691906145d5565b9150600a85612ba59190614767565b6030612bb191906141ac565b60f81b818381518110612bc757612bc6613f78565b5b60200101907effffffffffffffffffffffffffffffffffffffffffffffffffffffffffffff1916908160001a905350600a85612c039190614736565b9450612b81565b8093505050505b919050565b60008073ffffffffffffffffffffffffffffffffffffffff166002600084815260200190815260200160002060009054906101000a900473ffffffffffffffffffffffffffffffffffffffff1673ffffffffffffffffffffffffffffffffffffffff1614159050919050565b600080839050600083905060008251905081518114612ca75760009350505050612d60565b60005b81811015612d5757828181518110612cc557612cc4613f78565b5b602001015160f81c60f81b7effffffffffffffffffffffffffffffffffffffffffffffffffffffffffffff1916848281518110612d0557612d04613f78565b5b602001015160f81c60f81b7effffffffffffffffffffffffffffffffffffffffffffffffffffffffffffff191614612d44576000945050505050612d60565b8080612d4f90614390565b915050612caa565b50600193505050505b92915050565b505050565b505050565b6000612d918473ffffffffffffffffffffffffffffffffffffffff16612f07565b15612efa578373ffffffffffffffffffffffffffffffffffffffff1663150b7a02612dba612051565b8786866040518563ffffffff1660e01b8152600401612ddc94939291906147ed565b602060405180830381600087803b158015612df657600080fd5b505af1925050508015612e2757506040513d601f19601f82011682018060405250810190612e24919061484e565b60015b612eaa573d8060008114612e57576040519150601f19603f3d011682016040523d82523d6000602084013e612e5c565b606091505b50600081511415612ea2576040517f08c379a0000000000000000000000000000000000000000000000000000000008152600401612e99906146e7565b60405180910390fd5b805181602001fd5b63150b7a0260e01b7bffffffffffffffffffffffffffffffffffffffffffffffffffffffff1916817bffffffffffffffffffffffffffffffffffffffffffffffffffffffff191614915050612eff565b600190505b949350505050565b6000808273ffffffffffffffffffffffffffffffffffffffff163b119050919050565b828054828255906000526020600020908101928215612fa3579160200282015b82811115612fa25782518260006101000a81548173ffffffffffffffffffffffffffffffffffffffff021916908373ffffffffffffffffffffffffffffffffffffffff16021790555091602001919060010190612f4a565b5b509050612fb0919061307f565b5090565b828054612fc090613afb565b90600052602060002090601f016020900481019282612fe25760008555613029565b82601f10612ffb57805160ff1916838001178555613029565b82800160010185558215613029579182015b8281111561302857825182559160200191906001019061300d565b5b509050613036919061307f565b5090565b60405180606001604052806000600181111561305957613058613739565b5b81526020016000600181111561307257613071613739565b5b8152602001600081525090565b5b80821115613098576000816000905550600101613080565b5090565b6000604051905090565b600080fd5b600080fd5b60007fffffffff0000000000000000000000000000000000000000000000000000000082169050919050565b6130e5816130b0565b81146130f057600080fd5b50565b600081359050613102816130dc565b92915050565b60006020828403121561311e5761311d6130a6565b5b600061312c848285016130f3565b91505092915050565b60008115159050919050565b61314a81613135565b82525050565b60006020820190506131656000830184613141565b92915050565b600081519050919050565b600082825260208201905092915050565b60005b838110156131a557808201518184015260208101905061318a565b838111156131b4576000848401525b50505050565b6000601f19601f8301169050919050565b60006131d68261316b565b6131e08185613176565b93506131f0818560208601613187565b6131f9816131ba565b840191505092915050565b6000602082019050818103600083015261321e81846131cb565b905092915050565b6000819050919050565b61323981613226565b811461324457600080fd5b50565b60008135905061325681613230565b92915050565b600060208284031215613272576132716130a6565b5b600061328084828501613247565b91505092915050565b600073ffffffffffffffffffffffffffffffffffffffff82169050919050565b60006132b482613289565b9050919050565b6132c4816132a9565b82525050565b60006020820190506132df60008301846132bb565b92915050565b6132ee816132a9565b81146132f957600080fd5b50565b60008135905061330b816132e5565b92915050565b60008060408385031215613328576133276130a6565b5b6000613336858286016132fc565b925050602061334785828601613247565b9150509250929050565b600080fd5b600080fd5b7f4e487b7100000000000000000000000000000000000000000000000000000000600052604160045260246000fd5b613393826131ba565b810181811067ffffffffffffffff821117156133b2576133b161335b565b5b80604052505050565b60006133c561309c565b90506133d1828261338a565b919050565b600067ffffffffffffffff8211156133f1576133f061335b565b5b6133fa826131ba565b9050602081019050919050565b82818337600083830152505050565b6000613429613424846133d6565b6133bb565b90508281526020810184848401111561344557613444613356565b5b613450848285613407565b509392505050565b600082601f83011261346d5761346c613351565b5b813561347d848260208601613416565b91505092915050565b61348f81613135565b811461349a57600080fd5b50565b6000813590506134ac81613486565b92915050565b600080600080600060a086880312156134ce576134cd6130a6565b5b600086013567ffffffffffffffff8111156134ec576134eb6130ab565b5b6134f888828901613458565b955050602086013567ffffffffffffffff811115613519576135186130ab565b5b61352588828901613458565b945050604061353688828901613247565b935050606061354788828901613247565b92505060806135588882890161349d565b9150509295509295909350565b60006020828403121561357b5761357a6130a6565b5b600082013567ffffffffffffffff811115613599576135986130ab565b5b6135a584828501613458565b91505092915050565b6000806000606084860312156135c7576135c66130a6565b5b60006135d5868287016132fc565b93505060206135e6868287016132fc565b92505060406135f786828701613247565b9150509250925092565b61360a81613226565b82525050565b60006020820190506136256000830184613601565b92915050565b600061010082019050613641600083018b613601565b8181036020830152613653818a6131cb565b90506136626040830189613601565b61366f6060830188613601565b61367c6080830187613601565b61368960a0830186613141565b61369660c0830185613141565b6136a360e0830184613141565b9998505050505050505050565b600080604083850312156136c7576136c66130a6565b5b600083013567ffffffffffffffff8111156136e5576136e46130ab565b5b6136f185828601613458565b925050602061370285828601613247565b9150509250929050565b600060208284031215613722576137216130a6565b5b6000613730848285016132fc565b91505092915050565b7f4e487b7100000000000000000000000000000000000000000000000000000000600052602160045260246000fd5b6002811061377957613778613739565b5b50565b600081905061378a82613768565b919050565b600061379a8261377c565b9050919050565b6137aa8161378f565b82525050565b600281106137c1576137c0613739565b5b50565b60008190506137d2826137b0565b919050565b60006137e2826137c4565b9050919050565b6137f2816137d7565b82525050565b61380181613226565b82525050565b60608201600082015161381d60008501826137a1565b50602082015161383060208501826137e9565b50604082015161384360408501826137f8565b50505050565b600060608201905061385e6000830184613807565b92915050565b6000806040838503121561387b5761387a6130a6565b5b6000613889858286016132fc565b925050602061389a8582860161349d565b9150509250929050565b6000806000606084860312156138bd576138bc6130a6565b5b600084013567ffffffffffffffff8111156138db576138da6130ab565b5b6138e786828701613458565b93505060206138f886828701613247565b925050604061390986828701613247565b9150509250925092565b600067ffffffffffffffff82111561392e5761392d61335b565b5b613937826131ba565b9050602081019050919050565b600061395761395284613913565b6133bb565b90508281526020810184848401111561397357613972613356565b5b61397e848285613407565b509392505050565b600082601f83011261399b5761399a613351565b5b81356139ab848260208601613944565b91505092915050565b600080600080608085870312156139ce576139cd6130a6565b5b60006139dc878288016132fc565b94505060206139ed878288016132fc565b93505060406139fe87828801613247565b925050606085013567ffffffffffffffff811115613a1f57613a1e6130ab565b5b613a2b87828801613986565b91505092959194509250565b60008060408385031215613a4e57613a4d6130a6565b5b6000613a5c858286016132fc565b9250506020613a6d858286016132fc565b9150509250929050565b613a808161378f565b82525050565b613a8f816137d7565b82525050565b6000606082019050613aaa6000830186613a77565b613ab76020830185613a86565b613ac46040830184613601565b949350505050565b7f4e487b7100000000000000000000000000000000000000000000000000000000600052602260045260246000fd5b60006002820490506001821680613b1357607f821691505b60208210811415613b2757613b26613acc565b5b50919050565b7f4552433732313a20617070726f76616c20746f2063757272656e74206f776e6560008201527f7200000000000000000000000000000000000000000000000000000000000000602082015250565b6000613b89602183613176565b9150613b9482613b2d565b604082019050919050565b60006020820190508181036000830152613bb881613b7c565b9050919050565b7f4552433732313a20617070726f76652063616c6c6572206973206e6f7420746f60008201527f6b656e206f776e6572206e6f7220617070726f76656420666f7220616c6c0000602082015250565b6000613c1b603e83613176565b9150613c2682613bbf565b604082019050919050565b60006020820190508181036000830152613c4a81613c0e565b9050919050565b600081905092915050565b6000613c678261316b565b613c718185613c51565b9350613c81818560208601613187565b80840191505092915050565b6000613c998284613c5c565b915081905092915050565b7f4974656d20646f6573206e6f7420657869737421000000000000000000000000600082015250565b6000613cda601483613176565b9150613ce582613ca4565b602082019050919050565b60006020820190508181036000830152613d0981613ccd565b9050919050565b7f4974656d206973206e6f7420666f722073616c65210000000000000000000000600082015250565b6000613d46601583613176565b9150613d5182613d10565b602082019050919050565b60006020820190508181036000830152613d7581613d39565b9050919050565b7f496e636f727265637420616d6f756e74206f662065746865722073656e742100600082015250565b6000613db2601f83613176565b9150613dbd82613d7c565b602082019050919050565b60006020820190508181036000830152613de181613da5565b9050919050565b7f4552433732313a2063616c6c6572206973206e6f7420746f6b656e206f776e6560008201527f72206e6f7220617070726f766564000000000000000000000000000000000000602082015250565b6000613e44602e83613176565b9150613e4f82613de8565b604082019050919050565b60006020820190508181036000830152613e7381613e37565b9050919050565b7f556e617574686f72697a656420746f20726573656c6c206974656d2100000000600082015250565b6000613eb0601c83613176565b9150613ebb82613e7a565b602082019050919050565b60006020820190508181036000830152613edf81613ea3565b9050919050565b7f43616e6e6f7420726573656c6c2c206974656d20697320736f756c626f756e6460008201527f2100000000000000000000000000000000000000000000000000000000000000602082015250565b6000613f42602183613176565b9150613f4d82613ee6565b604082019050919050565b60006020820190508181036000830152613f7181613f35565b9050919050565b7f4e487b7100000000000000000000000000000000000000000000000000000000600052603260045260246000fd5b7f4552433732313a20696e76616c696420746f6b656e2049440000000000000000600082015250565b6000613fdd601883613176565b9150613fe882613fa7565b602082019050919050565b6000602082019050818103600083015261400c81613fd0565b9050919050565b7f4552433732313a2061646472657373207a65726f206973206e6f74206120766160008201527f6c6964206f776e65720000000000000000000000000000000000000000000000602082015250565b600061406f602983613176565b915061407a82614013565b604082019050919050565b6000602082019050818103600083015261409e81614062565b9050919050565b7f556e617574686f72697a656420746f207365742076616c756521000000000000600082015250565b60006140db601a83613176565b91506140e6826140a5565b602082019050919050565b6000602082019050818103600083015261410a816140ce565b9050919050565b7f57617272616e7479206861732065787069726564210000000000000000000000600082015250565b6000614147601583613176565b915061415282614111565b602082019050919050565b600060208201905081810360008301526141768161413a565b9050919050565b7f4e487b7100000000000000000000000000000000000000000000000000000000600052601160045260246000fd5b60006141b782613226565b91506141c283613226565b9250827fffffffffffffffffffffffffffffffffffffffffffffffffffffffffffffffff038211156141f7576141f661417d565b5b828201905092915050565b600061420e8285613c5c565b915061421a8284613c5c565b91508190509392505050565b7f4974656d206e6f7420617661696c61626c6520666f7220726573616c65210000600082015250565b600061425c601e83613176565b915061426782614226565b602082019050919050565b6000602082019050818103600083015261428b8161424f565b9050919050565b7f4f776e61626c653a206e6577206f776e657220697320746865207a65726f206160008201527f6464726573730000000000000000000000000000000000000000000000000000602082015250565b60006142ee602683613176565b91506142f982614292565b604082019050919050565b6000602082019050818103600083015261431d816142e1565b9050919050565b7f4f776e61626c653a2063616c6c6572206973206e6f7420746865206f776e6572600082015250565b600061435a602083613176565b915061436582614324565b602082019050919050565b600060208201905081810360008301526143898161434d565b9050919050565b600061439b82613226565b91507fffffffffffffffffffffffffffffffffffffffffffffffffffffffffffffffff8214156143ce576143cd61417d565b5b600182019050919050565b7f4552433732313a206d696e7420746f20746865207a65726f2061646472657373600082015250565b600061440f602083613176565b915061441a826143d9565b602082019050919050565b6000602082019050818103600083015261443e81614402565b9050919050565b7f4552433732313a20746f6b656e20616c7265616479206d696e74656400000000600082015250565b600061447b601c83613176565b915061448682614445565b602082019050919050565b600060208201905081810360008301526144aa8161446e565b9050919050565b7f4552433732313a207472616e736665722066726f6d20696e636f72726563742060008201527f6f776e6572000000000000000000000000000000000000000000000000000000602082015250565b600061450d602583613176565b9150614518826144b1565b604082019050919050565b6000602082019050818103600083015261453c81614500565b9050919050565b7f4552433732313a207472616e7366657220746f20746865207a65726f2061646460008201527f7265737300000000000000000000000000000000000000000000000000000000602082015250565b600061459f602483613176565b91506145aa82614543565b604082019050919050565b600060208201905081810360008301526145ce81614592565b9050919050565b60006145e082613226565b91506145eb83613226565b9250828210156145fe576145fd61417d565b5b828203905092915050565b7f4552433732313a20617070726f766520746f2063616c6c657200000000000000600082015250565b600061463f601983613176565b915061464a82614609565b602082019050919050565b6000602082019050818103600083015261466e81614632565b9050919050565b7f4552433732313a207472616e7366657220746f206e6f6e20455243373231526560008201527f63656976657220696d706c656d656e7465720000000000000000000000000000602082015250565b60006146d1603283613176565b91506146dc82614675565b604082019050919050565b60006020820190508181036000830152614700816146c4565b9050919050565b7f4e487b7100000000000000000000000000000000000000000000000000000000600052601260045260246000fd5b600061474182613226565b915061474c83613226565b92508261475c5761475b614707565b5b828204905092915050565b600061477282613226565b915061477d83613226565b92508261478d5761478c614707565b5b828206905092915050565b600081519050919050565b600082825260208201905092915050565b60006147bf82614798565b6147c981856147a3565b93506147d9818560208601613187565b6147e2816131ba565b840191505092915050565b600060808201905061480260008301876132bb565b61480f60208301866132bb565b61481c6040830185613601565b818103606083015261482e81846147b4565b905095945050505050565b600081519050614848816130dc565b92915050565b600060208284031215614864576148636130a6565b5b600061487284828501614839565b9150509291505056fea26469706673582212202099a7d373c34a09e0bc319db191f0387759f9813ae3ee00363371d3d305c03064736f6c63430008090033",
  "linkReferences": {},
  "deployedLinkReferences": {}
}