{
  "_format": "hh-sol-artifact-1",
  "contractName": "FlipkartItem",
  "sourceName": "contracts/FlipkartItem.sol",
  "abi": [
    {
      "inputs": [],
      "stateMutability": "nonpayable",
      "type": "constructor"
    },
    {
      "anonymous": false,
      "inputs": [
        {
          "indexed": true,
          "internalType": "address",
          "name": "owner",
          "type": "address"
        },
        {
          "indexed": true,
          "internalType": "address",
          "name": "approved",
          "type": "address"
        },
        {
          "indexed": true,
          "internalType": "uint256",
          "name": "tokenId",
          "type": "uint256"
        }
      ],
      "name": "Approval",
      "type": "event"
    },
    {
      "anonymous": false,
      "inputs": [
        {
          "indexed": true,
          "internalType": "address",
          "name": "owner",
          "type": "address"
        },
        {
          "indexed": true,
          "internalType": "address",
          "name": "operator",
          "type": "address"
        },
        {
          "indexed": false,
          "internalType": "bool",
          "name": "approved",
          "type": "bool"
        }
      ],
      "name": "ApprovalForAll",
      "type": "event"
    },
    {
      "anonymous": false,
      "inputs": [
        {
          "indexed": true,
          "internalType": "address",
          "name": "previousOwner",
          "type": "address"
        },
        {
          "indexed": true,
          "internalType": "address",
          "name": "newOwner",
          "type": "address"
        }
      ],
      "name": "OwnershipTransferred",
      "type": "event"
    },
    {
      "anonymous": false,
      "inputs": [
        {
          "indexed": true,
          "internalType": "address",
          "name": "from",
          "type": "address"
        },
        {
          "indexed": true,
          "internalType": "address",
          "name": "to",
          "type": "address"
        },
        {
          "indexed": true,
          "internalType": "uint256",
          "name": "tokenId",
          "type": "uint256"
        }
      ],
      "name": "Transfer",
      "type": "event"
    },
    {
      "inputs": [
        {
          "internalType": "string",
          "name": "serialNumber",
          "type": "string"
        },
        {
          "internalType": "uint256",
          "name": "warrantyReason",
          "type": "uint256"
        },
        {
          "internalType": "uint256",
          "name": "warrantyOutcome",
          "type": "uint256"
        }
      ],
      "name": "addWarranty",
      "outputs": [],
      "stateMutability": "nonpayable",
      "type": "function"
    },
    {
      "inputs": [
        {
          "internalType": "address",
          "name": "to",
          "type": "address"
        },
        {
          "internalType": "uint256",
          "name": "tokenId",
          "type": "uint256"
        }
      ],
      "name": "approve",
      "outputs": [],
      "stateMutability": "nonpayable",
      "type": "function"
    },
    {
      "inputs": [
        {
          "internalType": "address",
          "name": "owner",
          "type": "address"
        }
      ],
      "name": "balanceOf",
      "outputs": [
        {
          "internalType": "uint256",
          "name": "",
          "type": "uint256"
        }
      ],
      "stateMutability": "view",
      "type": "function"
    },
    {
      "inputs": [
        {
          "internalType": "uint256",
          "name": "itemId",
          "type": "uint256"
        },
        {
          "internalType": "string",
          "name": "serialNumber",
          "type": "string"
        }
      ],
      "name": "buyItem",
      "outputs": [],
      "stateMutability": "payable",
      "type": "function"
    },
    {
      "inputs": [
        {
          "internalType": "string",
          "name": "serialNumber",
          "type": "string"
        }
      ],
      "name": "buyResaleItem",
      "outputs": [],
      "stateMutability": "payable",
      "type": "function"
    },
    {
      "inputs": [
        {
          "internalType": "string",
          "name": "itemURI",
          "type": "string"
        },
        {
          "internalType": "uint256",
          "name": "value",
          "type": "uint256"
        },
        {
          "internalType": "uint256",
          "name": "warrantyPeriod",
          "type": "uint256"
        },
        {
          "internalType": "bool",
          "name": "isSoulbound",
          "type": "bool"
        }
      ],
      "name": "createItem",
      "outputs": [],
      "stateMutability": "nonpayable",
      "type": "function"
    },
    {
      "inputs": [
        {
          "internalType": "uint256",
          "name": "tokenId",
          "type": "uint256"
        }
      ],
      "name": "getApproved",
      "outputs": [
        {
          "internalType": "address",
          "name": "",
          "type": "address"
        }
      ],
      "stateMutability": "view",
      "type": "function"
    },
    {
      "inputs": [
        {
          "internalType": "string",
          "name": "serialNumber",
          "type": "string"
        },
        {
          "internalType": "uint256",
          "name": "index",
          "type": "uint256"
        }
      ],
      "name": "getItemOwner",
      "outputs": [
        {
          "internalType": "address",
          "name": "",
          "type": "address"
        }
      ],
      "stateMutability": "view",
      "type": "function"
    },
    {
      "inputs": [
        {
          "internalType": "string",
          "name": "serialNumber",
          "type": "string"
        }
      ],
      "name": "getItemOwnerLength",
      "outputs": [
        {
          "internalType": "uint256",
          "name": "",
          "type": "uint256"
        }
      ],
      "stateMutability": "view",
      "type": "function"
    },
    {
      "inputs": [
        {
          "internalType": "string",
          "name": "serialNumber",
          "type": "string"
        },
        {
          "internalType": "uint256",
          "name": "index",
          "type": "uint256"
        }
      ],
      "name": "getItemWarranty",
      "outputs": [
        {
          "components": [
            {
              "internalType": "enum FlipkartItem.WarrantyReason",
              "name": "reason",
              "type": "uint8"
            },
            {
              "internalType": "enum FlipkartItem.WarrantyOutcome",
              "name": "outcome",
              "type": "uint8"
            },
            {
              "internalType": "uint256",
              "name": "timestamp",
              "type": "uint256"
            }
          ],
          "internalType": "struct FlipkartItem.WarrantyInfo",
          "name": "",
          "type": "tuple"
        }
      ],
      "stateMutability": "view",
      "type": "function"
    },
    {
      "inputs": [
        {
          "internalType": "string",
          "name": "serialNumber",
          "type": "string"
        }
      ],
      "name": "getItemWarrantyLength",
      "outputs": [
        {
          "internalType": "uint256",
          "name": "",
          "type": "uint256"
        }
      ],
      "stateMutability": "view",
      "type": "function"
    },
    {
      "inputs": [
        {
          "internalType": "string",
          "name": "serialNumber",
          "type": "string"
        }
      ],
      "name": "hashString",
      "outputs": [
        {
          "internalType": "uint256",
          "name": "",
          "type": "uint256"
        }
      ],
      "stateMutability": "pure",
      "type": "function"
    },
    {
      "inputs": [
        {
          "internalType": "address",
          "name": "owner",
          "type": "address"
        },
        {
          "internalType": "address",
          "name": "operator",
          "type": "address"
        }
      ],
      "name": "isApprovedForAll",
      "outputs": [
        {
          "internalType": "bool",
          "name": "",
          "type": "bool"
        }
      ],
      "stateMutability": "view",
      "type": "function"
    },
    {
      "inputs": [
        {
          "internalType": "string",
          "name": "serialNumber",
          "type": "string"
        }
      ],
      "name": "isWarrantyExpired",
      "outputs": [
        {
          "internalType": "bool",
          "name": "",
          "type": "bool"
        }
      ],
      "stateMutability": "view",
      "type": "function"
    },
    {
      "inputs": [
        {
          "internalType": "uint256",
          "name": "",
          "type": "uint256"
        }
      ],
      "name": "items",
      "outputs": [
        {
          "internalType": "uint256",
          "name": "itemId",
          "type": "uint256"
        },
        {
          "internalType": "string",
          "name": "itemURI",
          "type": "string"
        },
        {
          "internalType": "uint256",
          "name": "value",
          "type": "uint256"
        },
        {
          "internalType": "uint256",
          "name": "warrantyPeriod",
          "type": "uint256"
        },
        {
          "internalType": "bool",
          "name": "isSoulbound",
          "type": "bool"
        }
      ],
      "stateMutability": "view",
      "type": "function"
    },
    {
      "inputs": [],
      "name": "name",
      "outputs": [
        {
          "internalType": "string",
          "name": "",
          "type": "string"
        }
      ],
      "stateMutability": "view",
      "type": "function"
    },
    {
      "inputs": [],
      "name": "owner",
      "outputs": [
        {
          "internalType": "address",
          "name": "",
          "type": "address"
        }
      ],
      "stateMutability": "view",
      "type": "function"
    },
    {
      "inputs": [
        {
          "internalType": "uint256",
          "name": "tokenId",
          "type": "uint256"
        }
      ],
      "name": "ownerOf",
      "outputs": [
        {
          "internalType": "address",
          "name": "",
          "type": "address"
        }
      ],
      "stateMutability": "view",
      "type": "function"
    },
    {
      "inputs": [
        {
          "internalType": "string",
          "name": "",
          "type": "string"
        }
      ],
      "name": "purchasedItems",
      "outputs": [
        {
          "internalType": "uint256",
          "name": "itemId",
          "type": "uint256"
        },
        {
          "internalType": "uint256",
          "name": "creationTime",
          "type": "uint256"
        },
        {
          "internalType": "bool",
          "name": "availableForResale",
          "type": "bool"
        },
        {
          "internalType": "uint256",
          "name": "resaleValue",
          "type": "uint256"
        }
      ],
      "stateMutability": "view",
      "type": "function"
    },
    {
      "inputs": [
        {
          "internalType": "string",
          "name": "serialNumber",
          "type": "string"
        }
      ],
      "name": "putForResale",
      "outputs": [],
      "stateMutability": "nonpayable",
      "type": "function"
    },
    {
      "inputs": [],
      "name": "renounceOwnership",
      "outputs": [],
      "stateMutability": "nonpayable",
      "type": "function"
    },
    {
      "inputs": [
        {
          "internalType": "address",
          "name": "from",
          "type": "address"
        },
        {
          "internalType": "address",
          "name": "to",
          "type": "address"
        },
        {
          "internalType": "uint256",
          "name": "tokenId",
          "type": "uint256"
        }
      ],
      "name": "safeTransferFrom",
      "outputs": [],
      "stateMutability": "nonpayable",
      "type": "function"
    },
    {
      "inputs": [
        {
          "internalType": "address",
          "name": "from",
          "type": "address"
        },
        {
          "internalType": "address",
          "name": "to",
          "type": "address"
        },
        {
          "internalType": "uint256",
          "name": "tokenId",
          "type": "uint256"
        },
        {
          "internalType": "bytes",
          "name": "data",
          "type": "bytes"
        }
      ],
      "name": "safeTransferFrom",
      "outputs": [],
      "stateMutability": "nonpayable",
      "type": "function"
    },
    {
      "inputs": [
        {
          "internalType": "uint256",
          "name": "",
          "type": "uint256"
        }
      ],
      "name": "serialNumbers",
      "outputs": [
        {
          "internalType": "string",
          "name": "",
          "type": "string"
        }
      ],
      "stateMutability": "view",
      "type": "function"
    },
    {
      "inputs": [
        {
          "internalType": "address",
          "name": "operator",
          "type": "address"
        },
        {
          "internalType": "bool",
          "name": "approved",
          "type": "bool"
        }
      ],
      "name": "setApprovalForAll",
      "outputs": [],
      "stateMutability": "nonpayable",
      "type": "function"
    },
    {
      "inputs": [
        {
          "internalType": "string",
          "name": "serialNumber",
          "type": "string"
        },
        {
          "internalType": "uint256",
          "name": "value",
          "type": "uint256"
        }
      ],
      "name": "setResaleValue",
      "outputs": [],
      "stateMutability": "nonpayable",
      "type": "function"
    },
    {
      "inputs": [
        {
          "internalType": "bytes4",
          "name": "interfaceId",
          "type": "bytes4"
        }
      ],
      "name": "supportsInterface",
      "outputs": [
        {
          "internalType": "bool",
          "name": "",
          "type": "bool"
        }
      ],
      "stateMutability": "view",
      "type": "function"
    },
    {
      "inputs": [],
      "name": "symbol",
      "outputs": [
        {
          "internalType": "string",
          "name": "",
          "type": "string"
        }
      ],
      "stateMutability": "view",
      "type": "function"
    },
    {
      "inputs": [
        {
          "internalType": "uint256",
          "name": "tokenId",
          "type": "uint256"
        }
      ],
      "name": "tokenURI",
      "outputs": [
        {
          "internalType": "string",
          "name": "",
          "type": "string"
        }
      ],
      "stateMutability": "view",
      "type": "function"
    },
    {
      "inputs": [],
      "name": "totalItems",
      "outputs": [
        {
          "internalType": "uint256",
          "name": "",
          "type": "uint256"
        }
      ],
      "stateMutability": "view",
      "type": "function"
    },
    {
      "inputs": [
        {
          "internalType": "address",
          "name": "from",
          "type": "address"
        },
        {
          "internalType": "address",
          "name": "to",
          "type": "address"
        },
        {
          "internalType": "uint256",
          "name": "tokenId",
          "type": "uint256"
        }
      ],
      "name": "transferFrom",
      "outputs": [],
      "stateMutability": "nonpayable",
      "type": "function"
    },
    {
      "inputs": [
        {
          "internalType": "address",
          "name": "newOwner",
          "type": "address"
        }
      ],
      "name": "transferOwnership",
      "outputs": [],
      "stateMutability": "nonpayable",
      "type": "function"
    },
    {
      "inputs": [
        {
          "internalType": "string",
          "name": "",
          "type": "string"
        },
        {
          "internalType": "uint256",
          "name": "",
          "type": "uint256"
        }
      ],
      "name": "warrantyInfos",
      "outputs": [
        {
          "internalType": "enum FlipkartItem.WarrantyReason",
          "name": "reason",
          "type": "uint8"
        },
        {
          "internalType": "enum FlipkartItem.WarrantyOutcome",
          "name": "outcome",
          "type": "uint8"
        },
        {
          "internalType": "uint256",
          "name": "timestamp",
          "type": "uint256"
        }
      ],
      "stateMutability": "view",
      "type": "function"
    },
    {
      "inputs": [],
      "name": "withdraw",
      "outputs": [],
      "stateMutability": "nonpayable",
      "type": "function"
    }
  ],
  "bytecode": "0x60806040523480156200001157600080fd5b506040518060400160405280600881526020017f466c69704974656d0000000000000000000000000000000000000000000000008152506040518060400160405280600481526020017f464c495000000000000000000000000000000000000000000000000000000000815250816000908051906020019062000096929190620001a6565b508060019080519060200190620000af929190620001a6565b505050620000d2620000c6620000d860201b60201c565b620000e060201b60201c565b620002bb565b600033905090565b6000600660009054906101000a900473ffffffffffffffffffffffffffffffffffffffff16905081600660006101000a81548173ffffffffffffffffffffffffffffffffffffffff021916908373ffffffffffffffffffffffffffffffffffffffff1602179055508173ffffffffffffffffffffffffffffffffffffffff168173ffffffffffffffffffffffffffffffffffffffff167f8be0079c531659141344cd1fd0a4f28419497f9722a3daafe3b4186f6b6457e060405160405180910390a35050565b828054620001b49062000285565b90600052602060002090601f016020900481019282620001d8576000855562000224565b82601f10620001f357805160ff191683800117855562000224565b8280016001018555821562000224579182015b828111156200022357825182559160200191906001019062000206565b5b50905062000233919062000237565b5090565b5b808211156200025257600081600090555060010162000238565b5090565b7f4e487b7100000000000000000000000000000000000000000000000000000000600052602260045260246000fd5b600060028204905060018216806200029e57607f821691505b60208210811415620002b557620002b462000256565b5b50919050565b61495180620002cb6000396000f3fe6080604052600436106101f95760003560e01c8063715018a61161010d578063b41f6785116100a0578063e985e9c51161006f578063e985e9c514610799578063eb1b6664146107d6578063eeae434f146107f2578063f2fde38b14610831578063f973b86c1461085a576101f9565b8063b41f6785146106b5578063b88d4fde146106f2578063bfb231d21461071b578063c87b56dd1461075c576101f9565b8063940effae116100dc578063940effae146105fb57806395d89b4114610638578063a22cb46514610663578063a69eac321461068c576101f9565b8063715018a61461053f578063766954b41461055657806381fbd329146105935780638da5cb5b146105d0576101f9565b8063352b6dc31161019057806344942d9e1161015f57806344942d9e1461042f5780634e71b35c1461046c5780635fc055e9146104885780636352211e146104c557806370a0823114610502576101f9565b8063352b6dc314610389578063398395ff146103b25780633ccfd60b146103ef57806342842e0e14610406576101f9565b8063095ea7b3116101cc578063095ea7b3146102e357806323b872dd1461030c5780632799276d14610335578063295ef62014610360576101f9565b806301ffc9a7146101fe57806304565c441461023b57806306fdde031461027b578063081812fc146102a6575b600080fd5b34801561020a57600080fd5b5061022560048036038101906102209190613162565b610883565b60405161023291906131aa565b60405180910390f35b34801561024757600080fd5b50610262600480360381019061025d919061330b565b610965565b604051610272949392919061336d565b60405180910390f35b34801561028757600080fd5b506102906109b8565b60405161029d919061343a565b60405180910390f35b3480156102b257600080fd5b506102cd60048036038101906102c89190613488565b610a4a565b6040516102da91906134f6565b60405180910390f35b3480156102ef57600080fd5b5061030a6004803603810190610305919061353d565b610a90565b005b34801561031857600080fd5b50610333600480360381019061032e919061357d565b610ba8565b005b34801561034157600080fd5b5061034a610c08565b60405161035791906135d0565b60405180910390f35b34801561036c57600080fd5b506103876004803603810190610382919061330b565b610c19565b005b34801561039557600080fd5b506103b060048036038101906103ab9190613617565b610da8565b005b3480156103be57600080fd5b506103d960048036038101906103d4919061330b565b610e7a565b6040516103e691906135d0565b60405180910390f35b3480156103fb57600080fd5b50610404610eed565b005b34801561041257600080fd5b5061042d6004803603810190610428919061357d565b610f45565b005b34801561043b57600080fd5b506104566004803603810190610451919061330b565b610f65565b60405161046391906135d0565b60405180910390f35b6104866004803603810190610481919061369a565b610fdb565b005b34801561049457600080fd5b506104af60048036038101906104aa91906136f6565b611280565b6040516104bc91906134f6565b60405180910390f35b3480156104d157600080fd5b506104ec60048036038101906104e79190613488565b611330565b6040516104f991906134f6565b60405180910390f35b34801561050e57600080fd5b5061052960048036038101906105249190613752565b6113e2565b60405161053691906135d0565b60405180910390f35b34801561054b57600080fd5b5061055461149a565b005b34801561056257600080fd5b5061057d6004803603810190610578919061330b565b6114ae565b60405161058a91906135d0565b60405180910390f35b34801561059f57600080fd5b506105ba60048036038101906105b59190613488565b6114e1565b6040516105c7919061343a565b60405180910390f35b3480156105dc57600080fd5b506105e561158d565b6040516105f291906134f6565b60405180910390f35b34801561060757600080fd5b50610622600480360381019061061d91906136f6565b6115b7565b60405161062f919061388f565b60405180910390f35b34801561064457600080fd5b5061064d6116d8565b60405161065a919061343a565b60405180910390f35b34801561066f57600080fd5b5061068a600480360381019061068591906138aa565b61176a565b005b34801561069857600080fd5b506106b360048036038101906106ae91906138ea565b611780565b005b3480156106c157600080fd5b506106dc60048036038101906106d7919061330b565b6118eb565b6040516106e991906131aa565b60405180910390f35b3480156106fe57600080fd5b50610719600480360381019061071491906139fa565b611969565b005b34801561072757600080fd5b50610742600480360381019061073d9190613488565b6119cb565b604051610753959493929190613a7d565b60405180910390f35b34801561076857600080fd5b50610783600480360381019061077e9190613488565b611aa6565b604051610790919061343a565b60405180910390f35b3480156107a557600080fd5b506107c060048036038101906107bb9190613ad7565b611b0e565b6040516107cd91906131aa565b60405180910390f35b6107f060048036038101906107eb919061330b565b611ba2565b005b3480156107fe57600080fd5b50610819600480360381019061081491906136f6565b611de2565b60405161082893929190613b35565b60405180910390f35b34801561083d57600080fd5b5061085860048036038101906108539190613752565b611e59565b005b34801561086657600080fd5b50610881600480360381019061087c91906136f6565b611edd565b005b60007f80ac58cd000000000000000000000000000000000000000000000000000000007bffffffffffffffffffffffffffffffffffffffffffffffffffffffff1916827bffffffffffffffffffffffffffffffffffffffffffffffffffffffff1916148061094e57507f5b5e139f000000000000000000000000000000000000000000000000000000007bffffffffffffffffffffffffffffffffffffffffffffffffffffffff1916827bffffffffffffffffffffffffffffffffffffffffffffffffffffffff1916145b8061095e575061095d82611fc5565b5b9050919050565b600a818051602081018201805184825260208301602085012081835280955050505050506000915090508060000154908060010154908060030160009054906101000a900460ff16908060040154905084565b6060600080546109c790613b9b565b80601f01602080910402602001604051908101604052809291908181526020018280546109f390613b9b565b8015610a405780601f10610a1557610100808354040283529160200191610a40565b820191906000526020600020905b815481529060010190602001808311610a2357829003601f168201915b5050505050905090565b6000610a558261202f565b6004600083815260200190815260200160002060009054906101000a900473ffffffffffffffffffffffffffffffffffffffff169050919050565b6000610a9b82611330565b90508073ffffffffffffffffffffffffffffffffffffffff168373ffffffffffffffffffffffffffffffffffffffff161415610b0c576040517f08c379a0000000000000000000000000000000000000000000000000000000008152600401610b0390613c3f565b60405180910390fd5b8073ffffffffffffffffffffffffffffffffffffffff16610b2b61207a565b73ffffffffffffffffffffffffffffffffffffffff161480610b5a5750610b5981610b5461207a565b611b0e565b5b610b99576040517f08c379a0000000000000000000000000000000000000000000000000000000008152600401610b9090613cd1565b60405180910390fd5b610ba38383612082565b505050565b610bb9610bb361207a565b8261213b565b610bf8576040517f08c379a0000000000000000000000000000000000000000000000000000000008152600401610bef90613d63565b60405180910390fd5b610c038383836121d0565b505050565b6000610c146007612437565b905090565b610c2281612445565b610c61576040517f08c379a0000000000000000000000000000000000000000000000000000000008152600401610c5890613dcf565b60405180910390fd5b610c6a81612533565b73ffffffffffffffffffffffffffffffffffffffff163373ffffffffffffffffffffffffffffffffffffffff1614610cd7576040517f08c379a0000000000000000000000000000000000000000000000000000000008152600401610cce90613e3b565b60405180910390fd5b6009600a82604051610ce99190613e97565b90815260200160405180910390206000015481548110610d0c57610d0b613eae565b5b906000526020600020906005020160040160009054906101000a900460ff1615610d6b576040517f08c379a0000000000000000000000000000000000000000000000000000000008152600401610d6290613f4f565b60405180910390fd5b6001600a82604051610d7d9190613e97565b908152602001604051809103902060030160006101000a81548160ff02191690831515021790555050565b610db06125ca565b60096040518060a00160405280610dc76007612437565b81526020018681526020018581526020018481526020018315158152509080600181540180825580915050600190039060005260206000209060050201600090919091909150600082015181600001556020820151816001019080519060200190610e33929190612f53565b50604082015181600201556060820151816003015560808201518160040160006101000a81548160ff0219169083151502179055505050610e746007612648565b50505050565b6000610e8582612445565b610ec4576040517f08c379a0000000000000000000000000000000000000000000000000000000008152600401610ebb90613dcf565b60405180910390fd5b600882604051610ed49190613e97565b9081526020016040518091039020805490509050919050565b610ef56125ca565b610efd61158d565b73ffffffffffffffffffffffffffffffffffffffff166108fc479081150290604051600060405180830381858888f19350505050158015610f42573d6000803e3d6000fd5b50565b610f6083838360405180602001604052806000815250611969565b505050565b6000610f7082612445565b610faf576040517f08c379a0000000000000000000000000000000000000000000000000000000008152600401610fa690613dcf565b60405180910390fd5b600a82604051610fbf9190613e97565b9081526020016040518091039020600201805490509050919050565b6009805490508210611022576040517f08c379a000000000000000000000000000000000000000000000000000000000815260040161101990613dcf565b60405180910390fd5b61102b81612445565b1561106b576040517f08c379a000000000000000000000000000000000000000000000000000000000815260040161106290613fbb565b60405180910390fd5b6009828154811061107f5761107e613eae565b5b90600052602060002090600502016002015434146110d2576040517f08c379a00000000000000000000000000000000000000000000000000000000081526004016110c990614027565b60405180910390fd5b6110da612fd9565b828160000181815250504281602001818152505060008160600190151590811515815250506009838154811061111357611112613eae565b5b90600052602060002090600502016002015481608001818152505080600a8360405161113f9190613e97565b90815260200160405180910390206000820151816000015560208201518160010155604082015181600201908051906020019061117d92919061300a565b5060608201518160030160006101000a81548160ff02191690831515021790555060808201518160040155905050600a826040516111bb9190613e97565b9081526020016040518091039020600201339080600181540180825580915050600190039060005260206000200160009091909190916101000a81548173ffffffffffffffffffffffffffffffffffffffff021916908373ffffffffffffffffffffffffffffffffffffffff160217905550600b82908060018154018082558091505060019003906000526020600020016000909190919091509080519060200190611268929190612f53565b5061127b33611276846114ae565b61265e565b505050565b600061128b83612445565b6112ca576040517f08c379a00000000000000000000000000000000000000000000000000000000081526004016112c190613dcf565b60405180910390fd5b600a836040516112da9190613e97565b908152602001604051809103902060020182815481106112fd576112fc613eae565b5b9060005260206000200160009054906101000a900473ffffffffffffffffffffffffffffffffffffffff16905092915050565b6000806002600084815260200190815260200160002060009054906101000a900473ffffffffffffffffffffffffffffffffffffffff169050600073ffffffffffffffffffffffffffffffffffffffff168173ffffffffffffffffffffffffffffffffffffffff1614156113d9576040517f08c379a00000000000000000000000000000000000000000000000000000000081526004016113d090614093565b60405180910390fd5b80915050919050565b60008073ffffffffffffffffffffffffffffffffffffffff168273ffffffffffffffffffffffffffffffffffffffff161415611453576040517f08c379a000000000000000000000000000000000000000000000000000000000815260040161144a90614125565b60405180910390fd5b600360008373ffffffffffffffffffffffffffffffffffffffff1673ffffffffffffffffffffffffffffffffffffffff168152602001908152602001600020549050919050565b6114a26125ca565b6114ac6000612838565b565b6000816040516020016114c19190613e97565b6040516020818303038152906040528051906020012060001c9050919050565b600b81815481106114f157600080fd5b90600052602060002001600091509050805461150c90613b9b565b80601f016020809104026020016040519081016040528092919081815260200182805461153890613b9b565b80156115855780601f1061155a57610100808354040283529160200191611585565b820191906000526020600020905b81548152906001019060200180831161156857829003601f168201915b505050505081565b6000600660009054906101000a900473ffffffffffffffffffffffffffffffffffffffff16905090565b6115bf613094565b6115c883612445565b611607576040517f08c379a00000000000000000000000000000000000000000000000000000000081526004016115fe90613dcf565b60405180910390fd5b6008836040516116179190613e97565b9081526020016040518091039020828154811061163757611636613eae565b5b90600052602060002090600202016040518060600160405290816000820160009054906101000a900460ff1660018111156116755761167461377f565b5b60018111156116875761168661377f565b5b81526020016000820160019054906101000a900460ff1660018111156116b0576116af61377f565b5b60018111156116c2576116c161377f565b5b8152602001600182015481525050905092915050565b6060600180546116e790613b9b565b80601f016020809104026020016040519081016040528092919081815260200182805461171390613b9b565b80156117605780601f1061173557610100808354040283529160200191611760565b820191906000526020600020905b81548152906001019060200180831161174357829003601f168201915b5050505050905090565b61177c61177561207a565b83836128fe565b5050565b6117886125ca565b611791836118eb565b6117d0576040517f08c379a00000000000000000000000000000000000000000000000000000000081526004016117c790614191565b60405180910390fd5b6008836040516117e09190613e97565b9081526020016040518091039020604051806060016040528084600181111561180c5761180b61377f565b5b600181111561181e5761181d61377f565b5b81526020018360018111156118365761183561377f565b5b60018111156118485761184761377f565b5b815260200142815250908060018154018082558091505060019003906000526020600020906002020160009091909190915060008201518160000160006101000a81548160ff021916908360018111156118a5576118a461377f565b5b021790555060208201518160000160016101000a81548160ff021916908360018111156118d5576118d461377f565b5b0217905550604082015181600101555050505050565b6000426009600a846040516119009190613e97565b9081526020016040518091039020600001548154811061192357611922613eae565b5b906000526020600020906005020160030154600a846040516119459190613e97565b90815260200160405180910390206001015461196191906141e0565b119050919050565b61197a61197461207a565b8361213b565b6119b9576040517f08c379a00000000000000000000000000000000000000000000000000000000081526004016119b090613d63565b60405180910390fd5b6119c584848484612a6b565b50505050565b600981815481106119db57600080fd5b9060005260206000209060050201600091509050806000015490806001018054611a0490613b9b565b80601f0160208091040260200160405190810160405280929190818152602001828054611a3090613b9b565b8015611a7d5780601f10611a5257610100808354040283529160200191611a7d565b820191906000526020600020905b815481529060010190602001808311611a6057829003601f168201915b5050505050908060020154908060030154908060040160009054906101000a900460ff16905085565b6060611ab18261202f565b6000611abb612ac7565b90506000815111611adb5760405180602001604052806000815250611b06565b80611ae584612ade565b604051602001611af6929190614236565b6040516020818303038152906040525b915050919050565b6000600560008473ffffffffffffffffffffffffffffffffffffffff1673ffffffffffffffffffffffffffffffffffffffff16815260200190815260200160002060008373ffffffffffffffffffffffffffffffffffffffff1673ffffffffffffffffffffffffffffffffffffffff16815260200190815260200160002060009054906101000a900460ff16905092915050565b611bab81612445565b611bea576040517f08c379a0000000000000000000000000000000000000000000000000000000008152600401611be190613dcf565b60405180910390fd5b600a81604051611bfa9190613e97565b908152602001604051809103902060030160009054906101000a900460ff16611c58576040517f08c379a0000000000000000000000000000000000000000000000000000000008152600401611c4f906142a6565b60405180910390fd5b34600a82604051611c699190613e97565b90815260200160405180910390206004015414611cbb576040517f08c379a0000000000000000000000000000000000000000000000000000000008152600401611cb290614027565b60405180910390fd5b6000611cc682612533565b90508073ffffffffffffffffffffffffffffffffffffffff166108fc349081150290604051600060405180830381858888f19350505050158015611d0e573d6000803e3d6000fd5b50611d228133611d1d856114ae565b6121d0565b6000600a83604051611d349190613e97565b908152602001604051809103902060030160006101000a81548160ff021916908315150217905550600a82604051611d6c9190613e97565b9081526020016040518091039020600201339080600181540180825580915050600190039060005260206000200160009091909190916101000a81548173ffffffffffffffffffffffffffffffffffffffff021916908373ffffffffffffffffffffffffffffffffffffffff1602179055505050565b6008828051602081018201805184825260208301602085012081835280955050505050508181548110611e1457600080fd5b9060005260206000209060020201600091509150508060000160009054906101000a900460ff16908060000160019054906101000a900460ff16908060010154905083565b611e616125ca565b600073ffffffffffffffffffffffffffffffffffffffff168173ffffffffffffffffffffffffffffffffffffffff161415611ed1576040517f08c379a0000000000000000000000000000000000000000000000000000000008152600401611ec890614338565b60405180910390fd5b611eda81612838565b50565b611ee682612445565b611f25576040517f08c379a0000000000000000000000000000000000000000000000000000000008152600401611f1c90613dcf565b60405180910390fd5b611f2e82612533565b73ffffffffffffffffffffffffffffffffffffffff163373ffffffffffffffffffffffffffffffffffffffff1614611f9b576040517f08c379a0000000000000000000000000000000000000000000000000000000008152600401611f92906143a4565b60405180910390fd5b80600a83604051611fac9190613e97565b9081526020016040518091039020600401819055505050565b60007f01ffc9a7000000000000000000000000000000000000000000000000000000007bffffffffffffffffffffffffffffffffffffffffffffffffffffffff1916827bffffffffffffffffffffffffffffffffffffffffffffffffffffffff1916149050919050565b61203881612c3f565b612077576040517f08c379a000000000000000000000000000000000000000000000000000000000815260040161206e90614093565b60405180910390fd5b50565b600033905090565b816004600083815260200190815260200160002060006101000a81548173ffffffffffffffffffffffffffffffffffffffff021916908373ffffffffffffffffffffffffffffffffffffffff160217905550808273ffffffffffffffffffffffffffffffffffffffff166120f583611330565b73ffffffffffffffffffffffffffffffffffffffff167f8c5be1e5ebec7d5bd14f71427d1e84f3dd0314c0f7b2291e5b200ac8c7c3b92560405160405180910390a45050565b60008061214783611330565b90508073ffffffffffffffffffffffffffffffffffffffff168473ffffffffffffffffffffffffffffffffffffffff16148061218957506121888185611b0e565b5b806121c757508373ffffffffffffffffffffffffffffffffffffffff166121af84610a4a565b73ffffffffffffffffffffffffffffffffffffffff16145b91505092915050565b8273ffffffffffffffffffffffffffffffffffffffff166121f082611330565b73ffffffffffffffffffffffffffffffffffffffff1614612246576040517f08c379a000000000000000000000000000000000000000000000000000000000815260040161223d90614436565b60405180910390fd5b600073ffffffffffffffffffffffffffffffffffffffff168273ffffffffffffffffffffffffffffffffffffffff1614156122b6576040517f08c379a00000000000000000000000000000000000000000000000000000000081526004016122ad906144c8565b60405180910390fd5b6122c1838383612cab565b6122cc600082612082565b6001600360008573ffffffffffffffffffffffffffffffffffffffff1673ffffffffffffffffffffffffffffffffffffffff168152602001908152602001600020600082825461231c91906144e8565b925050819055506001600360008473ffffffffffffffffffffffffffffffffffffffff1673ffffffffffffffffffffffffffffffffffffffff168152602001908152602001600020600082825461237391906141e0565b92505081905550816002600083815260200190815260200160002060006101000a81548173ffffffffffffffffffffffffffffffffffffffff021916908373ffffffffffffffffffffffffffffffffffffffff160217905550808273ffffffffffffffffffffffffffffffffffffffff168473ffffffffffffffffffffffffffffffffffffffff167fddf252ad1be2c89b69c2b068fc378daa952ba7f163c4a11628f55a4df523b3ef60405160405180910390a4612432838383612cb0565b505050565b600081600001549050919050565b60008060005b600b8054905081101561252957612508600b828154811061246f5761246e613eae565b5b90600052602060002001805461248490613b9b565b80601f01602080910402602001604051908101604052809291908181526020018280546124b090613b9b565b80156124fd5780601f106124d2576101008083540402835291602001916124fd565b820191906000526020600020905b8154815290600101906020018083116124e057829003601f168201915b505050505085612cb5565b156125165760019150612529565b80806125219061451c565b91505061244b565b5080915050919050565b6000600a826040516125459190613e97565b90815260200160405180910390206002016001600a846040516125689190613e97565b90815260200160405180910390206002018054905061258791906144e8565b8154811061259857612597613eae565b5b9060005260206000200160009054906101000a900473ffffffffffffffffffffffffffffffffffffffff169050919050565b6125d261207a565b73ffffffffffffffffffffffffffffffffffffffff166125f061158d565b73ffffffffffffffffffffffffffffffffffffffff1614612646576040517f08c379a000000000000000000000000000000000000000000000000000000000815260040161263d906145b1565b60405180910390fd5b565b6001816000016000828254019250508190555050565b600073ffffffffffffffffffffffffffffffffffffffff168273ffffffffffffffffffffffffffffffffffffffff1614156126ce576040517f08c379a00000000000000000000000000000000000000000000000000000000081526004016126c59061461d565b60405180910390fd5b6126d781612c3f565b15612717576040517f08c379a000000000000000000000000000000000000000000000000000000000815260040161270e90614689565b60405180910390fd5b61272360008383612cab565b6001600360008473ffffffffffffffffffffffffffffffffffffffff1673ffffffffffffffffffffffffffffffffffffffff168152602001908152602001600020600082825461277391906141e0565b92505081905550816002600083815260200190815260200160002060006101000a81548173ffffffffffffffffffffffffffffffffffffffff021916908373ffffffffffffffffffffffffffffffffffffffff160217905550808273ffffffffffffffffffffffffffffffffffffffff16600073ffffffffffffffffffffffffffffffffffffffff167fddf252ad1be2c89b69c2b068fc378daa952ba7f163c4a11628f55a4df523b3ef60405160405180910390a461283460008383612cb0565b5050565b6000600660009054906101000a900473ffffffffffffffffffffffffffffffffffffffff16905081600660006101000a81548173ffffffffffffffffffffffffffffffffffffffff021916908373ffffffffffffffffffffffffffffffffffffffff1602179055508173ffffffffffffffffffffffffffffffffffffffff168173ffffffffffffffffffffffffffffffffffffffff167f8be0079c531659141344cd1fd0a4f28419497f9722a3daafe3b4186f6b6457e060405160405180910390a35050565b8173ffffffffffffffffffffffffffffffffffffffff168373ffffffffffffffffffffffffffffffffffffffff16141561296d576040517f08c379a0000000000000000000000000000000000000000000000000000000008152600401612964906146f5565b60405180910390fd5b80600560008573ffffffffffffffffffffffffffffffffffffffff1673ffffffffffffffffffffffffffffffffffffffff16815260200190815260200160002060008473ffffffffffffffffffffffffffffffffffffffff1673ffffffffffffffffffffffffffffffffffffffff16815260200190815260200160002060006101000a81548160ff0219169083151502179055508173ffffffffffffffffffffffffffffffffffffffff168373ffffffffffffffffffffffffffffffffffffffff167f17307eab39ab6107e8899845ad3d59bd9653f200f220920489ca2b5937696c3183604051612a5e91906131aa565b60405180910390a3505050565b612a768484846121d0565b612a8284848484612d99565b612ac1576040517f08c379a0000000000000000000000000000000000000000000000000000000008152600401612ab890614787565b60405180910390fd5b50505050565b606060405180602001604052806000815250905090565b60606000821415612b26576040518060400160405280600181526020017f30000000000000000000000000000000000000000000000000000000000000008152509050612c3a565b600082905060005b60008214612b58578080612b419061451c565b915050600a82612b5191906147d6565b9150612b2e565b60008167ffffffffffffffff811115612b7457612b736131e0565b5b6040519080825280601f01601f191660200182016040528015612ba65781602001600182028036833780820191505090505b5090505b60008514612c3357600182612bbf91906144e8565b9150600a85612bce9190614807565b6030612bda91906141e0565b60f81b818381518110612bf057612bef613eae565b5b60200101907effffffffffffffffffffffffffffffffffffffffffffffffffffffffffffff1916908160001a905350600a85612c2c91906147d6565b9450612baa565b8093505050505b919050565b60008073ffffffffffffffffffffffffffffffffffffffff166002600084815260200190815260200160002060009054906101000a900473ffffffffffffffffffffffffffffffffffffffff1673ffffffffffffffffffffffffffffffffffffffff1614159050919050565b505050565b505050565b600080839050600083905060008251905081518114612cda5760009350505050612d93565b60005b81811015612d8a57828181518110612cf857612cf7613eae565b5b602001015160f81c60f81b7effffffffffffffffffffffffffffffffffffffffffffffffffffffffffffff1916848281518110612d3857612d37613eae565b5b602001015160f81c60f81b7effffffffffffffffffffffffffffffffffffffffffffffffffffffffffffff191614612d77576000945050505050612d93565b8080612d829061451c565b915050612cdd565b50600193505050505b92915050565b6000612dba8473ffffffffffffffffffffffffffffffffffffffff16612f30565b15612f23578373ffffffffffffffffffffffffffffffffffffffff1663150b7a02612de361207a565b8786866040518563ffffffff1660e01b8152600401612e05949392919061488d565b602060405180830381600087803b158015612e1f57600080fd5b505af1925050508015612e5057506040513d601f19601f82011682018060405250810190612e4d91906148ee565b60015b612ed3573d8060008114612e80576040519150601f19603f3d011682016040523d82523d6000602084013e612e85565b606091505b50600081511415612ecb576040517f08c379a0000000000000000000000000000000000000000000000000000000008152600401612ec290614787565b60405180910390fd5b805181602001fd5b63150b7a0260e01b7bffffffffffffffffffffffffffffffffffffffffffffffffffffffff1916817bffffffffffffffffffffffffffffffffffffffffffffffffffffffff191614915050612f28565b600190505b949350505050565b6000808273ffffffffffffffffffffffffffffffffffffffff163b119050919050565b828054612f5f90613b9b565b90600052602060002090601f016020900481019282612f815760008555612fc8565b82601f10612f9a57805160ff1916838001178555612fc8565b82800160010185558215612fc8579182015b82811115612fc7578251825591602001919060010190612fac565b5b509050612fd591906130d9565b5090565b6040518060a00160405280600081526020016000815260200160608152602001600015158152602001600081525090565b828054828255906000526020600020908101928215613083579160200282015b828111156130825782518260006101000a81548173ffffffffffffffffffffffffffffffffffffffff021916908373ffffffffffffffffffffffffffffffffffffffff1602179055509160200191906001019061302a565b5b50905061309091906130d9565b5090565b6040518060600160405280600060018111156130b3576130b261377f565b5b8152602001600060018111156130cc576130cb61377f565b5b8152602001600081525090565b5b808211156130f25760008160009055506001016130da565b5090565b6000604051905090565b600080fd5b600080fd5b60007fffffffff0000000000000000000000000000000000000000000000000000000082169050919050565b61313f8161310a565b811461314a57600080fd5b50565b60008135905061315c81613136565b92915050565b60006020828403121561317857613177613100565b5b60006131868482850161314d565b91505092915050565b60008115159050919050565b6131a48161318f565b82525050565b60006020820190506131bf600083018461319b565b92915050565b600080fd5b600080fd5b6000601f19601f8301169050919050565b7f4e487b7100000000000000000000000000000000000000000000000000000000600052604160045260246000fd5b613218826131cf565b810181811067ffffffffffffffff82111715613237576132366131e0565b5b80604052505050565b600061324a6130f6565b9050613256828261320f565b919050565b600067ffffffffffffffff821115613276576132756131e0565b5b61327f826131cf565b9050602081019050919050565b82818337600083830152505050565b60006132ae6132a98461325b565b613240565b9050828152602081018484840111156132ca576132c96131ca565b5b6132d584828561328c565b509392505050565b600082601f8301126132f2576132f16131c5565b5b813561330284826020860161329b565b91505092915050565b60006020828403121561332157613320613100565b5b600082013567ffffffffffffffff81111561333f5761333e613105565b5b61334b848285016132dd565b91505092915050565b6000819050919050565b61336781613354565b82525050565b6000608082019050613382600083018761335e565b61338f602083018661335e565b61339c604083018561319b565b6133a9606083018461335e565b95945050505050565b600081519050919050565b600082825260208201905092915050565b60005b838110156133ec5780820151818401526020810190506133d1565b838111156133fb576000848401525b50505050565b600061340c826133b2565b61341681856133bd565b93506134268185602086016133ce565b61342f816131cf565b840191505092915050565b600060208201905081810360008301526134548184613401565b905092915050565b61346581613354565b811461347057600080fd5b50565b6000813590506134828161345c565b92915050565b60006020828403121561349e5761349d613100565b5b60006134ac84828501613473565b91505092915050565b600073ffffffffffffffffffffffffffffffffffffffff82169050919050565b60006134e0826134b5565b9050919050565b6134f0816134d5565b82525050565b600060208201905061350b60008301846134e7565b92915050565b61351a816134d5565b811461352557600080fd5b50565b60008135905061353781613511565b92915050565b6000806040838503121561355457613553613100565b5b600061356285828601613528565b925050602061357385828601613473565b9150509250929050565b60008060006060848603121561359657613595613100565b5b60006135a486828701613528565b93505060206135b586828701613528565b92505060406135c686828701613473565b9150509250925092565b60006020820190506135e5600083018461335e565b92915050565b6135f48161318f565b81146135ff57600080fd5b50565b600081359050613611816135eb565b92915050565b6000806000806080858703121561363157613630613100565b5b600085013567ffffffffffffffff81111561364f5761364e613105565b5b61365b878288016132dd565b945050602061366c87828801613473565b935050604061367d87828801613473565b925050606061368e87828801613602565b91505092959194509250565b600080604083850312156136b1576136b0613100565b5b60006136bf85828601613473565b925050602083013567ffffffffffffffff8111156136e0576136df613105565b5b6136ec858286016132dd565b9150509250929050565b6000806040838503121561370d5761370c613100565b5b600083013567ffffffffffffffff81111561372b5761372a613105565b5b613737858286016132dd565b925050602061374885828601613473565b9150509250929050565b60006020828403121561376857613767613100565b5b600061377684828501613528565b91505092915050565b7f4e487b7100000000000000000000000000000000000000000000000000000000600052602160045260246000fd5b600281106137bf576137be61377f565b5b50565b60008190506137d0826137ae565b919050565b60006137e0826137c2565b9050919050565b6137f0816137d5565b82525050565b600281106138075761380661377f565b5b50565b6000819050613818826137f6565b919050565b60006138288261380a565b9050919050565b6138388161381d565b82525050565b61384781613354565b82525050565b60608201600082015161386360008501826137e7565b506020820151613876602085018261382f565b506040820151613889604085018261383e565b50505050565b60006060820190506138a4600083018461384d565b92915050565b600080604083850312156138c1576138c0613100565b5b60006138cf85828601613528565b92505060206138e085828601613602565b9150509250929050565b60008060006060848603121561390357613902613100565b5b600084013567ffffffffffffffff81111561392157613920613105565b5b61392d868287016132dd565b935050602061393e86828701613473565b925050604061394f86828701613473565b9150509250925092565b600067ffffffffffffffff821115613974576139736131e0565b5b61397d826131cf565b9050602081019050919050565b600061399d61399884613959565b613240565b9050828152602081018484840111156139b9576139b86131ca565b5b6139c484828561328c565b509392505050565b600082601f8301126139e1576139e06131c5565b5b81356139f184826020860161398a565b91505092915050565b60008060008060808587031215613a1457613a13613100565b5b6000613a2287828801613528565b9450506020613a3387828801613528565b9350506040613a4487828801613473565b925050606085013567ffffffffffffffff811115613a6557613a64613105565b5b613a71878288016139cc565b91505092959194509250565b600060a082019050613a92600083018861335e565b8181036020830152613aa48187613401565b9050613ab3604083018661335e565b613ac0606083018561335e565b613acd608083018461319b565b9695505050505050565b60008060408385031215613aee57613aed613100565b5b6000613afc85828601613528565b9250506020613b0d85828601613528565b9150509250929050565b613b20816137d5565b82525050565b613b2f8161381d565b82525050565b6000606082019050613b4a6000830186613b17565b613b576020830185613b26565b613b64604083018461335e565b949350505050565b7f4e487b7100000000000000000000000000000000000000000000000000000000600052602260045260246000fd5b60006002820490506001821680613bb357607f821691505b60208210811415613bc757613bc6613b6c565b5b50919050565b7f4552433732313a20617070726f76616c20746f2063757272656e74206f776e6560008201527f7200000000000000000000000000000000000000000000000000000000000000602082015250565b6000613c296021836133bd565b9150613c3482613bcd565b604082019050919050565b60006020820190508181036000830152613c5881613c1c565b9050919050565b7f4552433732313a20617070726f76652063616c6c6572206973206e6f7420746f60008201527f6b656e206f776e6572206e6f7220617070726f76656420666f7220616c6c0000602082015250565b6000613cbb603e836133bd565b9150613cc682613c5f565b604082019050919050565b60006020820190508181036000830152613cea81613cae565b9050919050565b7f4552433732313a2063616c6c6572206973206e6f7420746f6b656e206f776e6560008201527f72206e6f7220617070726f766564000000000000000000000000000000000000602082015250565b6000613d4d602e836133bd565b9150613d5882613cf1565b604082019050919050565b60006020820190508181036000830152613d7c81613d40565b9050919050565b7f4974656d20646f6573206e6f7420657869737421000000000000000000000000600082015250565b6000613db96014836133bd565b9150613dc482613d83565b602082019050919050565b60006020820190508181036000830152613de881613dac565b9050919050565b7f556e617574686f72697a656420746f20726573656c6c206974656d2100000000600082015250565b6000613e25601c836133bd565b9150613e3082613def565b602082019050919050565b60006020820190508181036000830152613e5481613e18565b9050919050565b600081905092915050565b6000613e71826133b2565b613e7b8185613e5b565b9350613e8b8185602086016133ce565b80840191505092915050565b6000613ea38284613e66565b915081905092915050565b7f4e487b7100000000000000000000000000000000000000000000000000000000600052603260045260246000fd5b7f43616e6e6f7420726573656c6c2c206974656d20697320736f756c626f756e6460008201527f2100000000000000000000000000000000000000000000000000000000000000602082015250565b6000613f396021836133bd565b9150613f4482613edd565b604082019050919050565b60006020820190508181036000830152613f6881613f2c565b9050919050565b7f53657269616c206e756d62657220657869737473210000000000000000000000600082015250565b6000613fa56015836133bd565b9150613fb082613f6f565b602082019050919050565b60006020820190508181036000830152613fd481613f98565b9050919050565b7f496e636f727265637420616d6f756e74206f662065746865722073656e742100600082015250565b6000614011601f836133bd565b915061401c82613fdb565b602082019050919050565b6000602082019050818103600083015261404081614004565b9050919050565b7f4552433732313a20696e76616c696420746f6b656e2049440000000000000000600082015250565b600061407d6018836133bd565b915061408882614047565b602082019050919050565b600060208201905081810360008301526140ac81614070565b9050919050565b7f4552433732313a2061646472657373207a65726f206973206e6f74206120766160008201527f6c6964206f776e65720000000000000000000000000000000000000000000000602082015250565b600061410f6029836133bd565b915061411a826140b3565b604082019050919050565b6000602082019050818103600083015261413e81614102565b9050919050565b7f57617272616e7479206861732065787069726564210000000000000000000000600082015250565b600061417b6015836133bd565b915061418682614145565b602082019050919050565b600060208201905081810360008301526141aa8161416e565b9050919050565b7f4e487b7100000000000000000000000000000000000000000000000000000000600052601160045260246000fd5b60006141eb82613354565b91506141f683613354565b9250827fffffffffffffffffffffffffffffffffffffffffffffffffffffffffffffffff0382111561422b5761422a6141b1565b5b828201905092915050565b60006142428285613e66565b915061424e8284613e66565b91508190509392505050565b7f4974656d206e6f7420617661696c61626c6520666f7220726573616c65210000600082015250565b6000614290601e836133bd565b915061429b8261425a565b602082019050919050565b600060208201905081810360008301526142bf81614283565b9050919050565b7f4f776e61626c653a206e6577206f776e657220697320746865207a65726f206160008201527f6464726573730000000000000000000000000000000000000000000000000000602082015250565b60006143226026836133bd565b915061432d826142c6565b604082019050919050565b6000602082019050818103600083015261435181614315565b9050919050565b7f556e617574686f72697a656420746f207365742076616c756521000000000000600082015250565b600061438e601a836133bd565b915061439982614358565b602082019050919050565b600060208201905081810360008301526143bd81614381565b9050919050565b7f4552433732313a207472616e736665722066726f6d20696e636f72726563742060008201527f6f776e6572000000000000000000000000000000000000000000000000000000602082015250565b60006144206025836133bd565b915061442b826143c4565b604082019050919050565b6000602082019050818103600083015261444f81614413565b9050919050565b7f4552433732313a207472616e7366657220746f20746865207a65726f2061646460008201527f7265737300000000000000000000000000000000000000000000000000000000602082015250565b60006144b26024836133bd565b91506144bd82614456565b604082019050919050565b600060208201905081810360008301526144e1816144a5565b9050919050565b60006144f382613354565b91506144fe83613354565b925082821015614511576145106141b1565b5b828203905092915050565b600061452782613354565b91507fffffffffffffffffffffffffffffffffffffffffffffffffffffffffffffffff82141561455a576145596141b1565b5b600182019050919050565b7f4f776e61626c653a2063616c6c6572206973206e6f7420746865206f776e6572600082015250565b600061459b6020836133bd565b91506145a682614565565b602082019050919050565b600060208201905081810360008301526145ca8161458e565b9050919050565b7f4552433732313a206d696e7420746f20746865207a65726f2061646472657373600082015250565b60006146076020836133bd565b9150614612826145d1565b602082019050919050565b60006020820190508181036000830152614636816145fa565b9050919050565b7f4552433732313a20746f6b656e20616c7265616479206d696e74656400000000600082015250565b6000614673601c836133bd565b915061467e8261463d565b602082019050919050565b600060208201905081810360008301526146a281614666565b9050919050565b7f4552433732313a20617070726f766520746f2063616c6c657200000000000000600082015250565b60006146df6019836133bd565b91506146ea826146a9565b602082019050919050565b6000602082019050818103600083015261470e816146d2565b9050919050565b7f4552433732313a207472616e7366657220746f206e6f6e20455243373231526560008201527f63656976657220696d706c656d656e7465720000000000000000000000000000602082015250565b60006147716032836133bd565b915061477c82614715565b604082019050919050565b600060208201905081810360008301526147a081614764565b9050919050565b7f4e487b7100000000000000000000000000000000000000000000000000000000600052601260045260246000fd5b60006147e182613354565b91506147ec83613354565b9250826147fc576147fb6147a7565b5b828204905092915050565b600061481282613354565b915061481d83613354565b92508261482d5761482c6147a7565b5b828206905092915050565b600081519050919050565b600082825260208201905092915050565b600061485f82614838565b6148698185614843565b93506148798185602086016133ce565b614882816131cf565b840191505092915050565b60006080820190506148a260008301876134e7565b6148af60208301866134e7565b6148bc604083018561335e565b81810360608301526148ce8184614854565b905095945050505050565b6000815190506148e881613136565b92915050565b60006020828403121561490457614903613100565b5b6000614912848285016148d9565b9150509291505056fea26469706673582212209d71fb9d9a380c3cc3e616713e9a298521242c059ce0b3197be5e44a875d57e264736f6c63430008090033",
  "linkReferences": {},
  "deployedLinkReferences": {}
}