{
  "_format": "hh-sol-artifact-1",
  "contractName": "FlipkartItem",
  "sourceName": "contracts/FlipkartItem.sol",
  "abi": [
    {
      "inputs": [],
      "stateMutability": "nonpayable",
      "type": "constructor"
    },
    {
      "anonymous": false,
      "inputs": [
        {
          "indexed": true,
          "internalType": "address",
          "name": "owner",
          "type": "address"
        },
        {
          "indexed": true,
          "internalType": "address",
          "name": "approved",
          "type": "address"
        },
        {
          "indexed": true,
          "internalType": "uint256",
          "name": "tokenId",
          "type": "uint256"
        }
      ],
      "name": "Approval",
      "type": "event"
    },
    {
      "anonymous": false,
      "inputs": [
        {
          "indexed": true,
          "internalType": "address",
          "name": "owner",
          "type": "address"
        },
        {
          "indexed": true,
          "internalType": "address",
          "name": "operator",
          "type": "address"
        },
        {
          "indexed": false,
          "internalType": "bool",
          "name": "approved",
          "type": "bool"
        }
      ],
      "name": "ApprovalForAll",
      "type": "event"
    },
    {
      "anonymous": false,
      "inputs": [
        {
          "indexed": true,
          "internalType": "address",
          "name": "previousOwner",
          "type": "address"
        },
        {
          "indexed": true,
          "internalType": "address",
          "name": "newOwner",
          "type": "address"
        }
      ],
      "name": "OwnershipTransferred",
      "type": "event"
    },
    {
      "anonymous": false,
      "inputs": [
        {
          "indexed": true,
          "internalType": "address",
          "name": "from",
          "type": "address"
        },
        {
          "indexed": true,
          "internalType": "address",
          "name": "to",
          "type": "address"
        },
        {
          "indexed": true,
          "internalType": "uint256",
          "name": "tokenId",
          "type": "uint256"
        }
      ],
      "name": "Transfer",
      "type": "event"
    },
    {
      "inputs": [
        {
          "internalType": "uint256",
          "name": "serialNumber",
          "type": "uint256"
        },
        {
          "internalType": "uint256",
          "name": "warrantyReason",
          "type": "uint256"
        },
        {
          "internalType": "uint256",
          "name": "warrantyOutcome",
          "type": "uint256"
        }
      ],
      "name": "addWarranty",
      "outputs": [],
      "stateMutability": "nonpayable",
      "type": "function"
    },
    {
      "inputs": [
        {
          "internalType": "address",
          "name": "to",
          "type": "address"
        },
        {
          "internalType": "uint256",
          "name": "tokenId",
          "type": "uint256"
        }
      ],
      "name": "approve",
      "outputs": [],
      "stateMutability": "nonpayable",
      "type": "function"
    },
    {
      "inputs": [
        {
          "internalType": "address",
          "name": "owner",
          "type": "address"
        }
      ],
      "name": "balanceOf",
      "outputs": [
        {
          "internalType": "uint256",
          "name": "",
          "type": "uint256"
        }
      ],
      "stateMutability": "view",
      "type": "function"
    },
    {
      "inputs": [
        {
          "internalType": "uint256",
          "name": "itemId",
          "type": "uint256"
        },
        {
          "internalType": "uint256",
          "name": "serialNumber",
          "type": "uint256"
        },
        {
          "internalType": "uint256",
          "name": "tokens",
          "type": "uint256"
        }
      ],
      "name": "buyItem",
      "outputs": [],
      "stateMutability": "payable",
      "type": "function"
    },
    {
      "inputs": [
        {
          "internalType": "uint256",
          "name": "serialNumber",
          "type": "uint256"
        }
      ],
      "name": "buyResaleItem",
      "outputs": [],
      "stateMutability": "payable",
      "type": "function"
    },
    {
      "inputs": [
        {
          "internalType": "string",
          "name": "itemURI",
          "type": "string"
        },
        {
          "internalType": "uint256",
          "name": "value",
          "type": "uint256"
        },
        {
          "internalType": "uint256",
          "name": "warrantyPeriod",
          "type": "uint256"
        },
        {
          "internalType": "bool",
          "name": "isSoulbound",
          "type": "bool"
        }
      ],
      "name": "createItem",
      "outputs": [],
      "stateMutability": "nonpayable",
      "type": "function"
    },
    {
      "inputs": [],
      "name": "getAllItems",
      "outputs": [
        {
          "components": [
            {
              "internalType": "uint256",
              "name": "itemId",
              "type": "uint256"
            },
            {
              "internalType": "string",
              "name": "itemURI",
              "type": "string"
            },
            {
              "internalType": "uint256",
              "name": "value",
              "type": "uint256"
            },
            {
              "internalType": "uint256",
              "name": "warrantyPeriod",
              "type": "uint256"
            },
            {
              "internalType": "bool",
              "name": "isSoulbound",
              "type": "bool"
            }
          ],
          "internalType": "struct FlipkartItem.Item[]",
          "name": "",
          "type": "tuple[]"
        }
      ],
      "stateMutability": "view",
      "type": "function"
    },
    {
      "inputs": [
        {
          "internalType": "uint256",
          "name": "tokenId",
          "type": "uint256"
        }
      ],
      "name": "getApproved",
      "outputs": [
        {
          "internalType": "address",
          "name": "",
          "type": "address"
        }
      ],
      "stateMutability": "view",
      "type": "function"
    },
    {
      "inputs": [
        {
          "internalType": "uint256",
          "name": "serialNumber",
          "type": "uint256"
        }
      ],
      "name": "getItemOwners",
      "outputs": [
        {
          "internalType": "address[]",
          "name": "",
          "type": "address[]"
        }
      ],
      "stateMutability": "view",
      "type": "function"
    },
    {
      "inputs": [
        {
          "internalType": "uint256",
          "name": "serialNumber",
          "type": "uint256"
        }
      ],
      "name": "getItemWarranty",
      "outputs": [
        {
          "components": [
            {
              "internalType": "enum FlipkartItem.WarrantyReason",
              "name": "reason",
              "type": "uint8"
            },
            {
              "internalType": "enum FlipkartItem.WarrantyOutcome",
              "name": "outcome",
              "type": "uint8"
            },
            {
              "internalType": "uint256",
              "name": "timestamp",
              "type": "uint256"
            }
          ],
          "internalType": "struct FlipkartItem.WarrantyInfo[]",
          "name": "",
          "type": "tuple[]"
        }
      ],
      "stateMutability": "view",
      "type": "function"
    },
    {
      "inputs": [],
      "name": "getResaleItems",
      "outputs": [
        {
          "components": [
            {
              "internalType": "uint256",
              "name": "itemId",
              "type": "uint256"
            },
            {
              "internalType": "uint256",
              "name": "creationTime",
              "type": "uint256"
            },
            {
              "internalType": "address[]",
              "name": "ownerHistory",
              "type": "address[]"
            },
            {
              "internalType": "bool",
              "name": "availableForResale",
              "type": "bool"
            },
            {
              "internalType": "uint256",
              "name": "resaleValue",
              "type": "uint256"
            }
          ],
          "internalType": "struct FlipkartItem.ItemInfo[]",
          "name": "",
          "type": "tuple[]"
        }
      ],
      "stateMutability": "view",
      "type": "function"
    },
    {
      "inputs": [],
      "name": "getSerialNumbersLength",
      "outputs": [
        {
          "internalType": "uint256",
          "name": "",
          "type": "uint256"
        }
      ],
      "stateMutability": "view",
      "type": "function"
    },
    {
      "inputs": [
        {
          "internalType": "address",
          "name": "owner",
          "type": "address"
        },
        {
          "internalType": "address",
          "name": "operator",
          "type": "address"
        }
      ],
      "name": "isApprovedForAll",
      "outputs": [
        {
          "internalType": "bool",
          "name": "",
          "type": "bool"
        }
      ],
      "stateMutability": "view",
      "type": "function"
    },
    {
      "inputs": [
        {
          "internalType": "uint256",
          "name": "serialNumber",
          "type": "uint256"
        }
      ],
      "name": "isWarrantyExpired",
      "outputs": [
        {
          "internalType": "bool",
          "name": "",
          "type": "bool"
        }
      ],
      "stateMutability": "view",
      "type": "function"
    },
    {
      "inputs": [
        {
          "internalType": "uint256",
          "name": "",
          "type": "uint256"
        }
      ],
      "name": "items",
      "outputs": [
        {
          "internalType": "uint256",
          "name": "itemId",
          "type": "uint256"
        },
        {
          "internalType": "string",
          "name": "itemURI",
          "type": "string"
        },
        {
          "internalType": "uint256",
          "name": "value",
          "type": "uint256"
        },
        {
          "internalType": "uint256",
          "name": "warrantyPeriod",
          "type": "uint256"
        },
        {
          "internalType": "bool",
          "name": "isSoulbound",
          "type": "bool"
        }
      ],
      "stateMutability": "view",
      "type": "function"
    },
    {
      "inputs": [],
      "name": "name",
      "outputs": [
        {
          "internalType": "string",
          "name": "",
          "type": "string"
        }
      ],
      "stateMutability": "view",
      "type": "function"
    },
    {
      "inputs": [],
      "name": "owner",
      "outputs": [
        {
          "internalType": "address",
          "name": "",
          "type": "address"
        }
      ],
      "stateMutability": "view",
      "type": "function"
    },
    {
      "inputs": [
        {
          "internalType": "uint256",
          "name": "tokenId",
          "type": "uint256"
        }
      ],
      "name": "ownerOf",
      "outputs": [
        {
          "internalType": "address",
          "name": "",
          "type": "address"
        }
      ],
      "stateMutability": "view",
      "type": "function"
    },
    {
      "inputs": [
        {
          "internalType": "address",
          "name": "",
          "type": "address"
        }
      ],
      "name": "plusCoins",
      "outputs": [
        {
          "internalType": "uint256",
          "name": "",
          "type": "uint256"
        }
      ],
      "stateMutability": "view",
      "type": "function"
    },
    {
      "inputs": [
        {
          "internalType": "uint256",
          "name": "",
          "type": "uint256"
        }
      ],
      "name": "purchasedItems",
      "outputs": [
        {
          "internalType": "uint256",
          "name": "itemId",
          "type": "uint256"
        },
        {
          "internalType": "uint256",
          "name": "creationTime",
          "type": "uint256"
        },
        {
          "internalType": "bool",
          "name": "availableForResale",
          "type": "bool"
        },
        {
          "internalType": "uint256",
          "name": "resaleValue",
          "type": "uint256"
        }
      ],
      "stateMutability": "view",
      "type": "function"
    },
    {
      "inputs": [
        {
          "internalType": "uint256",
          "name": "serialNumber",
          "type": "uint256"
        },
        {
          "internalType": "uint256",
          "name": "resaleValue",
          "type": "uint256"
        }
      ],
      "name": "putForResale",
      "outputs": [],
      "stateMutability": "nonpayable",
      "type": "function"
    },
    {
      "inputs": [],
      "name": "renounceOwnership",
      "outputs": [],
      "stateMutability": "nonpayable",
      "type": "function"
    },
    {
      "inputs": [
        {
          "internalType": "address",
          "name": "from",
          "type": "address"
        },
        {
          "internalType": "address",
          "name": "to",
          "type": "address"
        },
        {
          "internalType": "uint256",
          "name": "tokenId",
          "type": "uint256"
        }
      ],
      "name": "safeTransferFrom",
      "outputs": [],
      "stateMutability": "nonpayable",
      "type": "function"
    },
    {
      "inputs": [
        {
          "internalType": "address",
          "name": "from",
          "type": "address"
        },
        {
          "internalType": "address",
          "name": "to",
          "type": "address"
        },
        {
          "internalType": "uint256",
          "name": "tokenId",
          "type": "uint256"
        },
        {
          "internalType": "bytes",
          "name": "data",
          "type": "bytes"
        }
      ],
      "name": "safeTransferFrom",
      "outputs": [],
      "stateMutability": "nonpayable",
      "type": "function"
    },
    {
      "inputs": [
        {
          "internalType": "uint256",
          "name": "",
          "type": "uint256"
        }
      ],
      "name": "serialNumbers",
      "outputs": [
        {
          "internalType": "uint256",
          "name": "",
          "type": "uint256"
        }
      ],
      "stateMutability": "view",
      "type": "function"
    },
    {
      "inputs": [
        {
          "internalType": "address",
          "name": "operator",
          "type": "address"
        },
        {
          "internalType": "bool",
          "name": "approved",
          "type": "bool"
        }
      ],
      "name": "setApprovalForAll",
      "outputs": [],
      "stateMutability": "nonpayable",
      "type": "function"
    },
    {
      "inputs": [
        {
          "internalType": "bytes4",
          "name": "interfaceId",
          "type": "bytes4"
        }
      ],
      "name": "supportsInterface",
      "outputs": [
        {
          "internalType": "bool",
          "name": "",
          "type": "bool"
        }
      ],
      "stateMutability": "view",
      "type": "function"
    },
    {
      "inputs": [],
      "name": "symbol",
      "outputs": [
        {
          "internalType": "string",
          "name": "",
          "type": "string"
        }
      ],
      "stateMutability": "view",
      "type": "function"
    },
    {
      "inputs": [
        {
          "internalType": "uint256",
          "name": "tokenId",
          "type": "uint256"
        }
      ],
      "name": "tokenURI",
      "outputs": [
        {
          "internalType": "string",
          "name": "",
          "type": "string"
        }
      ],
      "stateMutability": "view",
      "type": "function"
    },
    {
      "inputs": [],
      "name": "totalItems",
      "outputs": [
        {
          "internalType": "uint256",
          "name": "",
          "type": "uint256"
        }
      ],
      "stateMutability": "view",
      "type": "function"
    },
    {
      "inputs": [
        {
          "internalType": "address",
          "name": "from",
          "type": "address"
        },
        {
          "internalType": "address",
          "name": "to",
          "type": "address"
        },
        {
          "internalType": "uint256",
          "name": "tokenId",
          "type": "uint256"
        }
      ],
      "name": "transferFrom",
      "outputs": [],
      "stateMutability": "nonpayable",
      "type": "function"
    },
    {
      "inputs": [
        {
          "internalType": "address",
          "name": "newOwner",
          "type": "address"
        }
      ],
      "name": "transferOwnership",
      "outputs": [],
      "stateMutability": "nonpayable",
      "type": "function"
    },
    {
      "inputs": [
        {
          "internalType": "uint256",
          "name": "",
          "type": "uint256"
        },
        {
          "internalType": "uint256",
          "name": "",
          "type": "uint256"
        }
      ],
      "name": "warrantyInfos",
      "outputs": [
        {
          "internalType": "enum FlipkartItem.WarrantyReason",
          "name": "reason",
          "type": "uint8"
        },
        {
          "internalType": "enum FlipkartItem.WarrantyOutcome",
          "name": "outcome",
          "type": "uint8"
        },
        {
          "internalType": "uint256",
          "name": "timestamp",
          "type": "uint256"
        }
      ],
      "stateMutability": "view",
      "type": "function"
    },
    {
      "inputs": [],
      "name": "withdraw",
      "outputs": [],
      "stateMutability": "nonpayable",
      "type": "function"
    }
  ],
  "bytecode": "0x60806040523480156200001157600080fd5b506040518060400160405280600881526020017f466c69704974656d0000000000000000000000000000000000000000000000008152506040518060400160405280600481526020017f464c495000000000000000000000000000000000000000000000000000000000815250816000908051906020019062000096929190620001a6565b508060019080519060200190620000af929190620001a6565b505050620000d2620000c6620000d860201b60201c565b620000e060201b60201c565b620002bb565b600033905090565b6000600660009054906101000a900473ffffffffffffffffffffffffffffffffffffffff16905081600660006101000a81548173ffffffffffffffffffffffffffffffffffffffff021916908373ffffffffffffffffffffffffffffffffffffffff1602179055508173ffffffffffffffffffffffffffffffffffffffff168173ffffffffffffffffffffffffffffffffffffffff167f8be0079c531659141344cd1fd0a4f28419497f9722a3daafe3b4186f6b6457e060405160405180910390a35050565b828054620001b49062000285565b90600052602060002090601f016020900481019282620001d8576000855562000224565b82601f10620001f357805160ff191683800117855562000224565b8280016001018555821562000224579182015b828111156200022357825182559160200191906001019062000206565b5b50905062000233919062000237565b5090565b5b808211156200025257600081600090555060010162000238565b5090565b7f4e487b7100000000000000000000000000000000000000000000000000000000600052602260045260246000fd5b600060028204905060018216806200029e57607f821691505b60208210811415620002b557620002b462000256565b5b50919050565b614ddc80620002cb6000396000f3fe6080604052600436106101f95760003560e01c80637bef4f3a1161010d578063aeb9aca4116100a0578063d64473c61161006f578063d64473c61461078b578063dec11835146107b6578063e985e9c5146107df578063f2fde38b1461081c578063f413684114610845576101f9565b8063aeb9aca4146106a5578063b88d4fde146106e4578063bfb231d21461070d578063c87b56dd1461074e576101f9565b806390e0c430116100dc57806390e0c430146105d457806395d89b411461061157806398def55e1461063c578063a22cb4651461067c576101f9565b80637bef4f3a146105045780637db7964f1461054157806381fbd3291461056c5780638da5cb5b146105a9576101f9565b806333f989e2116101905780634ba1d6aa1161015f5780634ba1d6aa1461040b5780636352211e1461043657806368eb05531461047357806370a08231146104b0578063715018a6146104ed576101f9565b806333f989e214610365578063352b6dc3146103a25780633ccfd60b146103cb57806342842e0e146103e2576101f9565b80631f6a8318116101cc5780631f6a8318146102cc57806323b872dd146102e8578063252b2144146103115780632799276d1461033a576101f9565b806301ffc9a7146101fe57806306fdde031461023b578063081812fc14610266578063095ea7b3146102a3575b600080fd5b34801561020a57600080fd5b506102256004803603810190610220919061314f565b610861565b6040516102329190613197565b60405180910390f35b34801561024757600080fd5b50610250610943565b60405161025d919061324b565b60405180910390f35b34801561027257600080fd5b5061028d600480360381019061028891906132a3565b6109d5565b60405161029a9190613311565b60405180910390f35b3480156102af57600080fd5b506102ca60048036038101906102c59190613358565b610a1b565b005b6102e660048036038101906102e19190613398565b610b33565b005b3480156102f457600080fd5b5061030f600480360381019061030a91906133eb565b610f01565b005b34801561031d57600080fd5b5061033860048036038101906103339190613398565b610f61565b005b34801561034657600080fd5b5061034f6110c1565b60405161035c919061344d565b60405180910390f35b34801561037157600080fd5b5061038c60048036038101906103879190613468565b6110d2565b604051610399919061344d565b60405180910390f35b3480156103ae57600080fd5b506103c960048036038101906103c491906135f6565b6110ea565b005b3480156103d757600080fd5b506103e06111bc565b005b3480156103ee57600080fd5b50610409600480360381019061040491906133eb565b611214565b005b34801561041757600080fd5b50610420611234565b60405161042d9190613819565b60405180910390f35b34801561044257600080fd5b5061045d600480360381019061045891906132a3565b61135e565b60405161046a9190613311565b60405180910390f35b34801561047f57600080fd5b5061049a600480360381019061049591906132a3565b611410565b6040516104a791906139eb565b60405180910390f35b3480156104bc57600080fd5b506104d760048036038101906104d29190613468565b61154a565b6040516104e4919061344d565b60405180910390f35b3480156104f957600080fd5b50610502611602565b005b34801561051057600080fd5b5061052b600480360381019061052691906132a3565b611616565b6040516105389190613197565b60405180910390f35b34801561054d57600080fd5b5061055661167e565b6040516105639190613c03565b60405180910390f35b34801561057857600080fd5b50610593600480360381019061058e91906132a3565b611895565b6040516105a0919061344d565b60405180910390f35b3480156105b557600080fd5b506105be6118b9565b6040516105cb9190613311565b60405180910390f35b3480156105e057600080fd5b506105fb60048036038101906105f691906132a3565b6118e3565b6040516106089190613c94565b60405180910390f35b34801561061d57600080fd5b506106266119cf565b604051610633919061324b565b60405180910390f35b34801561064857600080fd5b50610663600480360381019061065e91906132a3565b611a61565b6040516106739493929190613cb6565b60405180910390f35b34801561068857600080fd5b506106a3600480360381019061069e9190613cfb565b611a9e565b005b3480156106b157600080fd5b506106cc60048036038101906106c79190613d3b565b611ab4565b6040516106db93929190613d99565b60405180910390f35b3480156106f057600080fd5b5061070b60048036038101906107069190613e71565b611b15565b005b34801561071957600080fd5b50610734600480360381019061072f91906132a3565b611b77565b604051610745959493929190613ef4565b60405180910390f35b34801561075a57600080fd5b50610775600480360381019061077091906132a3565b611c52565b604051610782919061324b565b60405180910390f35b34801561079757600080fd5b506107a0611cba565b6040516107ad919061344d565b60405180910390f35b3480156107c257600080fd5b506107dd60048036038101906107d89190613d3b565b611cc7565b005b3480156107eb57600080fd5b5061080660048036038101906108019190613f4e565b611e5c565b6040516108139190613197565b60405180910390f35b34801561082857600080fd5b50610843600480360381019061083e9190613468565b611ef0565b005b61085f600480360381019061085a91906132a3565b611f74565b005b60007f80ac58cd000000000000000000000000000000000000000000000000000000007bffffffffffffffffffffffffffffffffffffffffffffffffffffffff1916827bffffffffffffffffffffffffffffffffffffffffffffffffffffffff1916148061092c57507f5b5e139f000000000000000000000000000000000000000000000000000000007bffffffffffffffffffffffffffffffffffffffffffffffffffffffff1916827bffffffffffffffffffffffffffffffffffffffffffffffffffffffff1916145b8061093c575061093b82612180565b5b9050919050565b60606000805461095290613fbd565b80601f016020809104026020016040519081016040528092919081815260200182805461097e90613fbd565b80156109cb5780601f106109a0576101008083540402835291602001916109cb565b820191906000526020600020905b8154815290600101906020018083116109ae57829003601f168201915b5050505050905090565b60006109e0826121ea565b6004600083815260200190815260200160002060009054906101000a900473ffffffffffffffffffffffffffffffffffffffff169050919050565b6000610a268261135e565b90508073ffffffffffffffffffffffffffffffffffffffff168373ffffffffffffffffffffffffffffffffffffffff161415610a97576040517f08c379a0000000000000000000000000000000000000000000000000000000008152600401610a8e90614061565b60405180910390fd5b8073ffffffffffffffffffffffffffffffffffffffff16610ab6612235565b73ffffffffffffffffffffffffffffffffffffffff161480610ae55750610ae481610adf612235565b611e5c565b5b610b24576040517f08c379a0000000000000000000000000000000000000000000000000000000008152600401610b1b906140f3565b60405180910390fd5b610b2e838361223d565b505050565b6009805490508310610b7a576040517f08c379a0000000000000000000000000000000000000000000000000000000008152600401610b719061415f565b60405180910390fd5b610b83826122f6565b15610bc3576040517f08c379a0000000000000000000000000000000000000000000000000000000008152600401610bba906141cb565b60405180910390fd5b60098381548110610bd757610bd66141eb565b5b90600052602060002090600502016002015464e8d4a5100082610bfa9190614249565b34610c0591906142a3565b14610c45576040517f08c379a0000000000000000000000000000000000000000000000000000000008152600401610c3c90614345565b60405180910390fd5b600c60003373ffffffffffffffffffffffffffffffffffffffff1673ffffffffffffffffffffffffffffffffffffffff16815260200190815260200160002054811115610cc7576040517f08c379a0000000000000000000000000000000000000000000000000000000008152600401610cbe906143d7565b60405180910390fd5b610ccf612f85565b8381600001818152505042816020018181525050600081606001901515908115158152505060098481548110610d0857610d076141eb565b5b90600052602060002090600502016002015481608001818152505080600a600085815260200190815260200160002060008201518160000155602082015181600101556040820151816002019080519060200190610d67929190612fb6565b5060608201518160030160006101000a81548160ff02191690831515021790555060808201518160040155905050600a6000848152602001908152602001600020600201339080600181540180825580915050600190039060005260206000200160009091909190916101000a81548173ffffffffffffffffffffffffffffffffffffffff021916908373ffffffffffffffffffffffffffffffffffffffff160217905550600b839080600181540180825580915050600190039060005260206000200160009091909190915055610e3f3384612355565b81600c60003373ffffffffffffffffffffffffffffffffffffffff1673ffffffffffffffffffffffffffffffffffffffff1681526020019081526020016000206000828254610e8e91906143f7565b9250508190555064e8d4a5100034610ea6919061445a565b600c60003373ffffffffffffffffffffffffffffffffffffffff1673ffffffffffffffffffffffffffffffffffffffff1681526020019081526020016000206000828254610ef491906142a3565b9250508190555050505050565b610f12610f0c612235565b8261252f565b610f51576040517f08c379a0000000000000000000000000000000000000000000000000000000008152600401610f48906144fd565b60405180910390fd5b610f5c8383836125c4565b505050565b610f6961282b565b610f7283611616565b610fb1576040517f08c379a0000000000000000000000000000000000000000000000000000000008152600401610fa890614569565b60405180910390fd5b600860008481526020019081526020016000206040518060600160405280846002811115610fe257610fe1613867565b5b6002811115610ff457610ff3613867565b5b815260200183600181111561100c5761100b613867565b5b600181111561101e5761101d613867565b5b815260200142815250908060018154018082558091505060019003906000526020600020906002020160009091909190915060008201518160000160006101000a81548160ff0219169083600281111561107b5761107a613867565b5b021790555060208201518160000160016101000a81548160ff021916908360018111156110ab576110aa613867565b5b0217905550604082015181600101555050505050565b60006110cd60076128a9565b905090565b600c6020528060005260406000206000915090505481565b6110f261282b565b60096040518060a0016040528061110960076128a9565b81526020018681526020018581526020018481526020018315158152509080600181540180825580915050600190039060005260206000209060050201600090919091909150600082015181600001556020820151816001019080519060200190611175929190613040565b50604082015181600201556060820151816003015560808201518160040160006101000a81548160ff02191690831515021790555050506111b660076128b7565b50505050565b6111c461282b565b6111cc6118b9565b73ffffffffffffffffffffffffffffffffffffffff166108fc479081150290604051600060405180830381858888f19350505050158015611211573d6000803e3d6000fd5b50565b61122f83838360405180602001604052806000815250611b15565b505050565b60606009805480602002602001604051908101604052809291908181526020016000905b8282101561135557838290600052602060002090600502016040518060a00160405290816000820154815260200160018201805461129590613fbd565b80601f01602080910402602001604051908101604052809291908181526020018280546112c190613fbd565b801561130e5780601f106112e35761010080835404028352916020019161130e565b820191906000526020600020905b8154815290600101906020018083116112f157829003601f168201915b5050505050815260200160028201548152602001600382015481526020016004820160009054906101000a900460ff16151515158152505081526020019060010190611258565b50505050905090565b6000806002600084815260200190815260200160002060009054906101000a900473ffffffffffffffffffffffffffffffffffffffff169050600073ffffffffffffffffffffffffffffffffffffffff168173ffffffffffffffffffffffffffffffffffffffff161415611407576040517f08c379a00000000000000000000000000000000000000000000000000000000081526004016113fe906145d5565b60405180910390fd5b80915050919050565b606061141b826122f6565b61145a576040517f08c379a00000000000000000000000000000000000000000000000000000000081526004016114519061415f565b60405180910390fd5b60086000838152602001908152602001600020805480602002602001604051908101604052809291908181526020016000905b8282101561153f57838290600052602060002090600202016040518060600160405290816000820160009054906101000a900460ff1660028111156114d5576114d4613867565b5b60028111156114e7576114e6613867565b5b81526020016000820160019054906101000a900460ff1660018111156115105761150f613867565b5b600181111561152257611521613867565b5b81526020016001820154815250508152602001906001019061148d565b505050509050919050565b60008073ffffffffffffffffffffffffffffffffffffffff168273ffffffffffffffffffffffffffffffffffffffff1614156115bb576040517f08c379a00000000000000000000000000000000000000000000000000000000081526004016115b290614667565b60405180910390fd5b600360008373ffffffffffffffffffffffffffffffffffffffff1673ffffffffffffffffffffffffffffffffffffffff168152602001908152602001600020549050919050565b61160a61282b565b61161460006128cd565b565b6000426009600a60008581526020019081526020016000206000015481548110611643576116426141eb565b5b906000526020600020906005020160030154600a60008581526020019081526020016000206001015461167691906142a3565b119050919050565b6060806000805b600b8054905081101561188c57600a6000600b83815481106116aa576116a96141eb565b5b9060005260206000200154815260200190815260200160002060030160009054906101000a900460ff16801561174457506009600a6000600b84815481106116f5576116f46141eb565b5b906000526020600020015481526020019081526020016000206000015481548110611723576117226141eb565b5b906000526020600020906005020160040160009054906101000a900460ff16155b1561187957600a6000600b8381548110611761576117606141eb565b5b906000526020600020015481526020019081526020016000206040518060a001604052908160008201548152602001600182015481526020016002820180548060200260200160405190810160405280929190818152602001828054801561181e57602002820191906000526020600020905b8160009054906101000a900473ffffffffffffffffffffffffffffffffffffffff1673ffffffffffffffffffffffffffffffffffffffff16815260200190600101908083116117d4575b505050505081526020016003820160009054906101000a900460ff1615151515815260200160048201548152505083838151811061185f5761185e6141eb565b5b6020026020010181905250818061187590614687565b9250505b808061188490614687565b915050611685565b50819250505090565b600b81815481106118a557600080fd5b906000526020600020016000915090505481565b6000600660009054906101000a900473ffffffffffffffffffffffffffffffffffffffff16905090565b60606118ee826122f6565b61192d576040517f08c379a00000000000000000000000000000000000000000000000000000000081526004016119249061415f565b60405180910390fd5b600a60008381526020019081526020016000206002018054806020026020016040519081016040528092919081815260200182805480156119c357602002820191906000526020600020905b8160009054906101000a900473ffffffffffffffffffffffffffffffffffffffff1673ffffffffffffffffffffffffffffffffffffffff1681526020019060010190808311611979575b50505050509050919050565b6060600180546119de90613fbd565b80601f0160208091040260200160405190810160405280929190818152602001828054611a0a90613fbd565b8015611a575780601f10611a2c57610100808354040283529160200191611a57565b820191906000526020600020905b815481529060010190602001808311611a3a57829003601f168201915b5050505050905090565b600a6020528060005260406000206000915090508060000154908060010154908060030160009054906101000a900460ff16908060040154905084565b611ab0611aa9612235565b8383612993565b5050565b60086020528160005260406000208181548110611ad057600080fd5b9060005260206000209060020201600091509150508060000160009054906101000a900460ff16908060000160019054906101000a900460ff16908060010154905083565b611b26611b20612235565b8361252f565b611b65576040517f08c379a0000000000000000000000000000000000000000000000000000000008152600401611b5c906144fd565b60405180910390fd5b611b7184848484612b00565b50505050565b60098181548110611b8757600080fd5b9060005260206000209060050201600091509050806000015490806001018054611bb090613fbd565b80601f0160208091040260200160405190810160405280929190818152602001828054611bdc90613fbd565b8015611c295780601f10611bfe57610100808354040283529160200191611c29565b820191906000526020600020905b815481529060010190602001808311611c0c57829003601f168201915b5050505050908060020154908060030154908060040160009054906101000a900460ff16905085565b6060611c5d826121ea565b6000611c67612b5c565b90506000815111611c875760405180602001604052806000815250611cb2565b80611c9184612b73565b604051602001611ca292919061470c565b6040516020818303038152906040525b915050919050565b6000600b80549050905090565b611cd0826122f6565b611d0f576040517f08c379a0000000000000000000000000000000000000000000000000000000008152600401611d069061415f565b60405180910390fd5b611d1882612cd4565b73ffffffffffffffffffffffffffffffffffffffff163373ffffffffffffffffffffffffffffffffffffffff1614611d85576040517f08c379a0000000000000000000000000000000000000000000000000000000008152600401611d7c9061477c565b60405180910390fd5b6009600a60008481526020019081526020016000206000015481548110611daf57611dae6141eb565b5b906000526020600020906005020160040160009054906101000a900460ff1615611e0e576040517f08c379a0000000000000000000000000000000000000000000000000000000008152600401611e059061480e565b60405180910390fd5b6001600a600084815260200190815260200160002060030160006101000a81548160ff02191690831515021790555080600a6000848152602001908152602001600020600401819055505050565b6000600560008473ffffffffffffffffffffffffffffffffffffffff1673ffffffffffffffffffffffffffffffffffffffff16815260200190815260200160002060008373ffffffffffffffffffffffffffffffffffffffff1673ffffffffffffffffffffffffffffffffffffffff16815260200190815260200160002060009054906101000a900460ff16905092915050565b611ef861282b565b600073ffffffffffffffffffffffffffffffffffffffff168173ffffffffffffffffffffffffffffffffffffffff161415611f68576040517f08c379a0000000000000000000000000000000000000000000000000000000008152600401611f5f906148a0565b60405180910390fd5b611f71816128cd565b50565b611f7d816122f6565b611fbc576040517f08c379a0000000000000000000000000000000000000000000000000000000008152600401611fb39061415f565b60405180910390fd5b600a600082815260200190815260200160002060030160009054906101000a900460ff1661201f576040517f08c379a00000000000000000000000000000000000000000000000000000000081526004016120169061490c565b60405180910390fd5b34600a60008381526020019081526020016000206004015414612077576040517f08c379a000000000000000000000000000000000000000000000000000000000815260040161206e90614345565b60405180910390fd5b600061208282612cd4565b90508073ffffffffffffffffffffffffffffffffffffffff166108fc349081150290604051600060405180830381858888f193505050501580156120ca573d6000803e3d6000fd5b506120d68133846125c4565b6000600a600084815260200190815260200160002060030160006101000a81548160ff021916908315150217905550600a6000838152602001908152602001600020600201339080600181540180825580915050600190039060005260206000200160009091909190916101000a81548173ffffffffffffffffffffffffffffffffffffffff021916908373ffffffffffffffffffffffffffffffffffffffff1602179055505050565b60007f01ffc9a7000000000000000000000000000000000000000000000000000000007bffffffffffffffffffffffffffffffffffffffffffffffffffffffff1916827bffffffffffffffffffffffffffffffffffffffffffffffffffffffff1916149050919050565b6121f381612d55565b612232576040517f08c379a0000000000000000000000000000000000000000000000000000000008152600401612229906145d5565b60405180910390fd5b50565b600033905090565b816004600083815260200190815260200160002060006101000a81548173ffffffffffffffffffffffffffffffffffffffff021916908373ffffffffffffffffffffffffffffffffffffffff160217905550808273ffffffffffffffffffffffffffffffffffffffff166122b08361135e565b73ffffffffffffffffffffffffffffffffffffffff167f8c5be1e5ebec7d5bd14f71427d1e84f3dd0314c0f7b2291e5b200ac8c7c3b92560405160405180910390a45050565b60008060005b600b8054905081101561234b5783600b828154811061231e5761231d6141eb565b5b90600052602060002001541415612338576001915061234b565b808061234390614687565b9150506122fc565b5080915050919050565b600073ffffffffffffffffffffffffffffffffffffffff168273ffffffffffffffffffffffffffffffffffffffff1614156123c5576040517f08c379a00000000000000000000000000000000000000000000000000000000081526004016123bc90614978565b60405180910390fd5b6123ce81612d55565b1561240e576040517f08c379a0000000000000000000000000000000000000000000000000000000008152600401612405906149e4565b60405180910390fd5b61241a60008383612dc1565b6001600360008473ffffffffffffffffffffffffffffffffffffffff1673ffffffffffffffffffffffffffffffffffffffff168152602001908152602001600020600082825461246a91906142a3565b92505081905550816002600083815260200190815260200160002060006101000a81548173ffffffffffffffffffffffffffffffffffffffff021916908373ffffffffffffffffffffffffffffffffffffffff160217905550808273ffffffffffffffffffffffffffffffffffffffff16600073ffffffffffffffffffffffffffffffffffffffff167fddf252ad1be2c89b69c2b068fc378daa952ba7f163c4a11628f55a4df523b3ef60405160405180910390a461252b60008383612dc6565b5050565b60008061253b8361135e565b90508073ffffffffffffffffffffffffffffffffffffffff168473ffffffffffffffffffffffffffffffffffffffff16148061257d575061257c8185611e5c565b5b806125bb57508373ffffffffffffffffffffffffffffffffffffffff166125a3846109d5565b73ffffffffffffffffffffffffffffffffffffffff16145b91505092915050565b8273ffffffffffffffffffffffffffffffffffffffff166125e48261135e565b73ffffffffffffffffffffffffffffffffffffffff161461263a576040517f08c379a000000000000000000000000000000000000000000000000000000000815260040161263190614a76565b60405180910390fd5b600073ffffffffffffffffffffffffffffffffffffffff168273ffffffffffffffffffffffffffffffffffffffff1614156126aa576040517f08c379a00000000000000000000000000000000000000000000000000000000081526004016126a190614b08565b60405180910390fd5b6126b5838383612dc1565b6126c060008261223d565b6001600360008573ffffffffffffffffffffffffffffffffffffffff1673ffffffffffffffffffffffffffffffffffffffff168152602001908152602001600020600082825461271091906143f7565b925050819055506001600360008473ffffffffffffffffffffffffffffffffffffffff1673ffffffffffffffffffffffffffffffffffffffff168152602001908152602001600020600082825461276791906142a3565b92505081905550816002600083815260200190815260200160002060006101000a81548173ffffffffffffffffffffffffffffffffffffffff021916908373ffffffffffffffffffffffffffffffffffffffff160217905550808273ffffffffffffffffffffffffffffffffffffffff168473ffffffffffffffffffffffffffffffffffffffff167fddf252ad1be2c89b69c2b068fc378daa952ba7f163c4a11628f55a4df523b3ef60405160405180910390a4612826838383612dc6565b505050565b612833612235565b73ffffffffffffffffffffffffffffffffffffffff166128516118b9565b73ffffffffffffffffffffffffffffffffffffffff16146128a7576040517f08c379a000000000000000000000000000000000000000000000000000000000815260040161289e90614b74565b60405180910390fd5b565b600081600001549050919050565b6001816000016000828254019250508190555050565b6000600660009054906101000a900473ffffffffffffffffffffffffffffffffffffffff16905081600660006101000a81548173ffffffffffffffffffffffffffffffffffffffff021916908373ffffffffffffffffffffffffffffffffffffffff1602179055508173ffffffffffffffffffffffffffffffffffffffff168173ffffffffffffffffffffffffffffffffffffffff167f8be0079c531659141344cd1fd0a4f28419497f9722a3daafe3b4186f6b6457e060405160405180910390a35050565b8173ffffffffffffffffffffffffffffffffffffffff168373ffffffffffffffffffffffffffffffffffffffff161415612a02576040517f08c379a00000000000000000000000000000000000000000000000000000000081526004016129f990614be0565b60405180910390fd5b80600560008573ffffffffffffffffffffffffffffffffffffffff1673ffffffffffffffffffffffffffffffffffffffff16815260200190815260200160002060008473ffffffffffffffffffffffffffffffffffffffff1673ffffffffffffffffffffffffffffffffffffffff16815260200190815260200160002060006101000a81548160ff0219169083151502179055508173ffffffffffffffffffffffffffffffffffffffff168373ffffffffffffffffffffffffffffffffffffffff167f17307eab39ab6107e8899845ad3d59bd9653f200f220920489ca2b5937696c3183604051612af39190613197565b60405180910390a3505050565b612b0b8484846125c4565b612b1784848484612dcb565b612b56576040517f08c379a0000000000000000000000000000000000000000000000000000000008152600401612b4d90614c72565b60405180910390fd5b50505050565b606060405180602001604052806000815250905090565b60606000821415612bbb576040518060400160405280600181526020017f30000000000000000000000000000000000000000000000000000000000000008152509050612ccf565b600082905060005b60008214612bed578080612bd690614687565b915050600a82612be6919061445a565b9150612bc3565b60008167ffffffffffffffff811115612c0957612c0861349f565b5b6040519080825280601f01601f191660200182016040528015612c3b5781602001600182028036833780820191505090505b5090505b60008514612cc857600182612c5491906143f7565b9150600a85612c639190614c92565b6030612c6f91906142a3565b60f81b818381518110612c8557612c846141eb565b5b60200101907effffffffffffffffffffffffffffffffffffffffffffffffffffffffffffff1916908160001a905350600a85612cc1919061445a565b9450612c3f565b8093505050505b919050565b6000600a60008381526020019081526020016000206002016001600a600085815260200190815260200160002060020180549050612d1291906143f7565b81548110612d2357612d226141eb565b5b9060005260206000200160009054906101000a900473ffffffffffffffffffffffffffffffffffffffff169050919050565b60008073ffffffffffffffffffffffffffffffffffffffff166002600084815260200190815260200160002060009054906101000a900473ffffffffffffffffffffffffffffffffffffffff1673ffffffffffffffffffffffffffffffffffffffff1614159050919050565b505050565b505050565b6000612dec8473ffffffffffffffffffffffffffffffffffffffff16612f62565b15612f55578373ffffffffffffffffffffffffffffffffffffffff1663150b7a02612e15612235565b8786866040518563ffffffff1660e01b8152600401612e379493929190614d18565b602060405180830381600087803b158015612e5157600080fd5b505af1925050508015612e8257506040513d601f19601f82011682018060405250810190612e7f9190614d79565b60015b612f05573d8060008114612eb2576040519150601f19603f3d011682016040523d82523d6000602084013e612eb7565b606091505b50600081511415612efd576040517f08c379a0000000000000000000000000000000000000000000000000000000008152600401612ef490614c72565b60405180910390fd5b805181602001fd5b63150b7a0260e01b7bffffffffffffffffffffffffffffffffffffffffffffffffffffffff1916817bffffffffffffffffffffffffffffffffffffffffffffffffffffffff191614915050612f5a565b600190505b949350505050565b6000808273ffffffffffffffffffffffffffffffffffffffff163b119050919050565b6040518060a00160405280600081526020016000815260200160608152602001600015158152602001600081525090565b82805482825590600052602060002090810192821561302f579160200282015b8281111561302e5782518260006101000a81548173ffffffffffffffffffffffffffffffffffffffff021916908373ffffffffffffffffffffffffffffffffffffffff16021790555091602001919060010190612fd6565b5b50905061303c91906130c6565b5090565b82805461304c90613fbd565b90600052602060002090601f01602090048101928261306e57600085556130b5565b82601f1061308757805160ff19168380011785556130b5565b828001600101855582156130b5579182015b828111156130b4578251825591602001919060010190613099565b5b5090506130c291906130c6565b5090565b5b808211156130df5760008160009055506001016130c7565b5090565b6000604051905090565b600080fd5b600080fd5b60007fffffffff0000000000000000000000000000000000000000000000000000000082169050919050565b61312c816130f7565b811461313757600080fd5b50565b60008135905061314981613123565b92915050565b600060208284031215613165576131646130ed565b5b60006131738482850161313a565b91505092915050565b60008115159050919050565b6131918161317c565b82525050565b60006020820190506131ac6000830184613188565b92915050565b600081519050919050565b600082825260208201905092915050565b60005b838110156131ec5780820151818401526020810190506131d1565b838111156131fb576000848401525b50505050565b6000601f19601f8301169050919050565b600061321d826131b2565b61322781856131bd565b93506132378185602086016131ce565b61324081613201565b840191505092915050565b600060208201905081810360008301526132658184613212565b905092915050565b6000819050919050565b6132808161326d565b811461328b57600080fd5b50565b60008135905061329d81613277565b92915050565b6000602082840312156132b9576132b86130ed565b5b60006132c78482850161328e565b91505092915050565b600073ffffffffffffffffffffffffffffffffffffffff82169050919050565b60006132fb826132d0565b9050919050565b61330b816132f0565b82525050565b60006020820190506133266000830184613302565b92915050565b613335816132f0565b811461334057600080fd5b50565b6000813590506133528161332c565b92915050565b6000806040838503121561336f5761336e6130ed565b5b600061337d85828601613343565b925050602061338e8582860161328e565b9150509250929050565b6000806000606084860312156133b1576133b06130ed565b5b60006133bf8682870161328e565b93505060206133d08682870161328e565b92505060406133e18682870161328e565b9150509250925092565b600080600060608486031215613404576134036130ed565b5b600061341286828701613343565b935050602061342386828701613343565b92505060406134348682870161328e565b9150509250925092565b6134478161326d565b82525050565b6000602082019050613462600083018461343e565b92915050565b60006020828403121561347e5761347d6130ed565b5b600061348c84828501613343565b91505092915050565b600080fd5b600080fd5b7f4e487b7100000000000000000000000000000000000000000000000000000000600052604160045260246000fd5b6134d782613201565b810181811067ffffffffffffffff821117156134f6576134f561349f565b5b80604052505050565b60006135096130e3565b905061351582826134ce565b919050565b600067ffffffffffffffff8211156135355761353461349f565b5b61353e82613201565b9050602081019050919050565b82818337600083830152505050565b600061356d6135688461351a565b6134ff565b9050828152602081018484840111156135895761358861349a565b5b61359484828561354b565b509392505050565b600082601f8301126135b1576135b0613495565b5b81356135c184826020860161355a565b91505092915050565b6135d38161317c565b81146135de57600080fd5b50565b6000813590506135f0816135ca565b92915050565b600080600080608085870312156136105761360f6130ed565b5b600085013567ffffffffffffffff81111561362e5761362d6130f2565b5b61363a8782880161359c565b945050602061364b8782880161328e565b935050604061365c8782880161328e565b925050606061366d878288016135e1565b91505092959194509250565b600081519050919050565b600082825260208201905092915050565b6000819050602082019050919050565b6136ae8161326d565b82525050565b600082825260208201905092915050565b60006136d0826131b2565b6136da81856136b4565b93506136ea8185602086016131ce565b6136f381613201565b840191505092915050565b6137078161317c565b82525050565b600060a08301600083015161372560008601826136a5565b506020830151848203602086015261373d82826136c5565b915050604083015161375260408601826136a5565b50606083015161376560608601826136a5565b50608083015161377860808601826136fe565b508091505092915050565b600061378f838361370d565b905092915050565b6000602082019050919050565b60006137af82613679565b6137b98185613684565b9350836020820285016137cb85613695565b8060005b8581101561380757848403895281516137e88582613783565b94506137f383613797565b925060208a019950506001810190506137cf565b50829750879550505050505092915050565b6000602082019050818103600083015261383381846137a4565b905092915050565b600081519050919050565b600082825260208201905092915050565b6000819050602082019050919050565b7f4e487b7100000000000000000000000000000000000000000000000000000000600052602160045260246000fd5b600381106138a7576138a6613867565b5b50565b60008190506138b882613896565b919050565b60006138c8826138aa565b9050919050565b6138d8816138bd565b82525050565b600281106138ef576138ee613867565b5b50565b6000819050613900826138de565b919050565b6000613910826138f2565b9050919050565b61392081613905565b82525050565b60608201600082015161393c60008501826138cf565b50602082015161394f6020850182613917565b50604082015161396260408501826136a5565b50505050565b60006139748383613926565b60608301905092915050565b6000602082019050919050565b60006139988261383b565b6139a28185613846565b93506139ad83613857565b8060005b838110156139de5781516139c58882613968565b97506139d083613980565b9250506001810190506139b1565b5085935050505092915050565b60006020820190508181036000830152613a05818461398d565b905092915050565b600081519050919050565b600082825260208201905092915050565b6000819050602082019050919050565b600081519050919050565b600082825260208201905092915050565b6000819050602082019050919050565b613a6e816132f0565b82525050565b6000613a808383613a65565b60208301905092915050565b6000602082019050919050565b6000613aa482613a39565b613aae8185613a44565b9350613ab983613a55565b8060005b83811015613aea578151613ad18882613a74565b9750613adc83613a8c565b925050600181019050613abd565b5085935050505092915050565b600060a083016000830151613b0f60008601826136a5565b506020830151613b2260208601826136a5565b5060408301518482036040860152613b3a8282613a99565b9150506060830151613b4f60608601826136fe565b506080830151613b6260808601826136a5565b508091505092915050565b6000613b798383613af7565b905092915050565b6000602082019050919050565b6000613b9982613a0d565b613ba38185613a18565b935083602082028501613bb585613a29565b8060005b85811015613bf15784840389528151613bd28582613b6d565b9450613bdd83613b81565b925060208a01995050600181019050613bb9565b50829750879550505050505092915050565b60006020820190508181036000830152613c1d8184613b8e565b905092915050565b600082825260208201905092915050565b6000613c4182613a39565b613c4b8185613c25565b9350613c5683613a55565b8060005b83811015613c87578151613c6e8882613a74565b9750613c7983613a8c565b925050600181019050613c5a565b5085935050505092915050565b60006020820190508181036000830152613cae8184613c36565b905092915050565b6000608082019050613ccb600083018761343e565b613cd8602083018661343e565b613ce56040830185613188565b613cf2606083018461343e565b95945050505050565b60008060408385031215613d1257613d116130ed565b5b6000613d2085828601613343565b9250506020613d31858286016135e1565b9150509250929050565b60008060408385031215613d5257613d516130ed565b5b6000613d608582860161328e565b9250506020613d718582860161328e565b9150509250929050565b613d84816138bd565b82525050565b613d9381613905565b82525050565b6000606082019050613dae6000830186613d7b565b613dbb6020830185613d8a565b613dc8604083018461343e565b949350505050565b600067ffffffffffffffff821115613deb57613dea61349f565b5b613df482613201565b9050602081019050919050565b6000613e14613e0f84613dd0565b6134ff565b905082815260208101848484011115613e3057613e2f61349a565b5b613e3b84828561354b565b509392505050565b600082601f830112613e5857613e57613495565b5b8135613e68848260208601613e01565b91505092915050565b60008060008060808587031215613e8b57613e8a6130ed565b5b6000613e9987828801613343565b9450506020613eaa87828801613343565b9350506040613ebb8782880161328e565b925050606085013567ffffffffffffffff811115613edc57613edb6130f2565b5b613ee887828801613e43565b91505092959194509250565b600060a082019050613f09600083018861343e565b8181036020830152613f1b8187613212565b9050613f2a604083018661343e565b613f37606083018561343e565b613f446080830184613188565b9695505050505050565b60008060408385031215613f6557613f646130ed565b5b6000613f7385828601613343565b9250506020613f8485828601613343565b9150509250929050565b7f4e487b7100000000000000000000000000000000000000000000000000000000600052602260045260246000fd5b60006002820490506001821680613fd557607f821691505b60208210811415613fe957613fe8613f8e565b5b50919050565b7f4552433732313a20617070726f76616c20746f2063757272656e74206f776e6560008201527f7200000000000000000000000000000000000000000000000000000000000000602082015250565b600061404b6021836131bd565b915061405682613fef565b604082019050919050565b6000602082019050818103600083015261407a8161403e565b9050919050565b7f4552433732313a20617070726f76652063616c6c6572206973206e6f7420746f60008201527f6b656e206f776e6572206e6f7220617070726f76656420666f7220616c6c0000602082015250565b60006140dd603e836131bd565b91506140e882614081565b604082019050919050565b6000602082019050818103600083015261410c816140d0565b9050919050565b7f4974656d20646f6573206e6f7420657869737421000000000000000000000000600082015250565b60006141496014836131bd565b915061415482614113565b602082019050919050565b600060208201905081810360008301526141788161413c565b9050919050565b7f53657269616c206e756d62657220657869737473210000000000000000000000600082015250565b60006141b56015836131bd565b91506141c08261417f565b602082019050919050565b600060208201905081810360008301526141e4816141a8565b9050919050565b7f4e487b7100000000000000000000000000000000000000000000000000000000600052603260045260246000fd5b7f4e487b7100000000000000000000000000000000000000000000000000000000600052601160045260246000fd5b60006142548261326d565b915061425f8361326d565b9250817fffffffffffffffffffffffffffffffffffffffffffffffffffffffffffffffff04831182151516156142985761429761421a565b5b828202905092915050565b60006142ae8261326d565b91506142b98361326d565b9250827fffffffffffffffffffffffffffffffffffffffffffffffffffffffffffffffff038211156142ee576142ed61421a565b5b828201905092915050565b7f496e636f727265637420616d6f756e74206f662065746865722073656e742100600082015250565b600061432f601f836131bd565b915061433a826142f9565b602082019050919050565b6000602082019050818103600083015261435e81614322565b9050919050565b7f5573657220646f6573206e6f74206861766520656e6f75676820746f6b656e7360008201527f2100000000000000000000000000000000000000000000000000000000000000602082015250565b60006143c16021836131bd565b91506143cc82614365565b604082019050919050565b600060208201905081810360008301526143f0816143b4565b9050919050565b60006144028261326d565b915061440d8361326d565b9250828210156144205761441f61421a565b5b828203905092915050565b7f4e487b7100000000000000000000000000000000000000000000000000000000600052601260045260246000fd5b60006144658261326d565b91506144708361326d565b9250826144805761447f61442b565b5b828204905092915050565b7f4552433732313a2063616c6c6572206973206e6f7420746f6b656e206f776e6560008201527f72206e6f7220617070726f766564000000000000000000000000000000000000602082015250565b60006144e7602e836131bd565b91506144f28261448b565b604082019050919050565b60006020820190508181036000830152614516816144da565b9050919050565b7f57617272616e7479206861732065787069726564210000000000000000000000600082015250565b60006145536015836131bd565b915061455e8261451d565b602082019050919050565b6000602082019050818103600083015261458281614546565b9050919050565b7f4552433732313a20696e76616c696420746f6b656e2049440000000000000000600082015250565b60006145bf6018836131bd565b91506145ca82614589565b602082019050919050565b600060208201905081810360008301526145ee816145b2565b9050919050565b7f4552433732313a2061646472657373207a65726f206973206e6f74206120766160008201527f6c6964206f776e65720000000000000000000000000000000000000000000000602082015250565b60006146516029836131bd565b915061465c826145f5565b604082019050919050565b6000602082019050818103600083015261468081614644565b9050919050565b60006146928261326d565b91507fffffffffffffffffffffffffffffffffffffffffffffffffffffffffffffffff8214156146c5576146c461421a565b5b600182019050919050565b600081905092915050565b60006146e6826131b2565b6146f081856146d0565b93506147008185602086016131ce565b80840191505092915050565b600061471882856146db565b915061472482846146db565b91508190509392505050565b7f556e617574686f72697a656420746f20726573656c6c206974656d2100000000600082015250565b6000614766601c836131bd565b915061477182614730565b602082019050919050565b6000602082019050818103600083015261479581614759565b9050919050565b7f43616e6e6f7420726573656c6c2c206974656d20697320736f756c626f756e6460008201527f2100000000000000000000000000000000000000000000000000000000000000602082015250565b60006147f86021836131bd565b91506148038261479c565b604082019050919050565b60006020820190508181036000830152614827816147eb565b9050919050565b7f4f776e61626c653a206e6577206f776e657220697320746865207a65726f206160008201527f6464726573730000000000000000000000000000000000000000000000000000602082015250565b600061488a6026836131bd565b91506148958261482e565b604082019050919050565b600060208201905081810360008301526148b98161487d565b9050919050565b7f4974656d206e6f7420617661696c61626c6520666f7220726573616c65210000600082015250565b60006148f6601e836131bd565b9150614901826148c0565b602082019050919050565b60006020820190508181036000830152614925816148e9565b9050919050565b7f4552433732313a206d696e7420746f20746865207a65726f2061646472657373600082015250565b60006149626020836131bd565b915061496d8261492c565b602082019050919050565b6000602082019050818103600083015261499181614955565b9050919050565b7f4552433732313a20746f6b656e20616c7265616479206d696e74656400000000600082015250565b60006149ce601c836131bd565b91506149d982614998565b602082019050919050565b600060208201905081810360008301526149fd816149c1565b9050919050565b7f4552433732313a207472616e736665722066726f6d20696e636f72726563742060008201527f6f776e6572000000000000000000000000000000000000000000000000000000602082015250565b6000614a606025836131bd565b9150614a6b82614a04565b604082019050919050565b60006020820190508181036000830152614a8f81614a53565b9050919050565b7f4552433732313a207472616e7366657220746f20746865207a65726f2061646460008201527f7265737300000000000000000000000000000000000000000000000000000000602082015250565b6000614af26024836131bd565b9150614afd82614a96565b604082019050919050565b60006020820190508181036000830152614b2181614ae5565b9050919050565b7f4f776e61626c653a2063616c6c6572206973206e6f7420746865206f776e6572600082015250565b6000614b5e6020836131bd565b9150614b6982614b28565b602082019050919050565b60006020820190508181036000830152614b8d81614b51565b9050919050565b7f4552433732313a20617070726f766520746f2063616c6c657200000000000000600082015250565b6000614bca6019836131bd565b9150614bd582614b94565b602082019050919050565b60006020820190508181036000830152614bf981614bbd565b9050919050565b7f4552433732313a207472616e7366657220746f206e6f6e20455243373231526560008201527f63656976657220696d706c656d656e7465720000000000000000000000000000602082015250565b6000614c5c6032836131bd565b9150614c6782614c00565b604082019050919050565b60006020820190508181036000830152614c8b81614c4f565b9050919050565b6000614c9d8261326d565b9150614ca88361326d565b925082614cb857614cb761442b565b5b828206905092915050565b600081519050919050565b600082825260208201905092915050565b6000614cea82614cc3565b614cf48185614cce565b9350614d048185602086016131ce565b614d0d81613201565b840191505092915050565b6000608082019050614d2d6000830187613302565b614d3a6020830186613302565b614d47604083018561343e565b8181036060830152614d598184614cdf565b905095945050505050565b600081519050614d7381613123565b92915050565b600060208284031215614d8f57614d8e6130ed565b5b6000614d9d84828501614d64565b9150509291505056fea2646970667358221220b14bc80da63cdc4160223b451de0d04c24e42edc953079ce9b458d3e7c82599064736f6c63430008090033",
  "linkReferences": {},
  "deployedLinkReferences": {}
}