{
  "_format": "hh-sol-artifact-1",
  "contractName": "FlipkartItem",
  "sourceName": "contracts/FlipkartItem.sol",
  "abi": [
    {
      "inputs": [],
      "stateMutability": "nonpayable",
      "type": "constructor"
    },
    {
      "anonymous": false,
      "inputs": [
        {
          "indexed": true,
          "internalType": "address",
          "name": "owner",
          "type": "address"
        },
        {
          "indexed": true,
          "internalType": "address",
          "name": "approved",
          "type": "address"
        },
        {
          "indexed": true,
          "internalType": "uint256",
          "name": "tokenId",
          "type": "uint256"
        }
      ],
      "name": "Approval",
      "type": "event"
    },
    {
      "anonymous": false,
      "inputs": [
        {
          "indexed": true,
          "internalType": "address",
          "name": "owner",
          "type": "address"
        },
        {
          "indexed": true,
          "internalType": "address",
          "name": "operator",
          "type": "address"
        },
        {
          "indexed": false,
          "internalType": "bool",
          "name": "approved",
          "type": "bool"
        }
      ],
      "name": "ApprovalForAll",
      "type": "event"
    },
    {
      "anonymous": false,
      "inputs": [
        {
          "indexed": true,
          "internalType": "address",
          "name": "previousOwner",
          "type": "address"
        },
        {
          "indexed": true,
          "internalType": "address",
          "name": "newOwner",
          "type": "address"
        }
      ],
      "name": "OwnershipTransferred",
      "type": "event"
    },
    {
      "anonymous": false,
      "inputs": [
        {
          "indexed": true,
          "internalType": "address",
          "name": "from",
          "type": "address"
        },
        {
          "indexed": true,
          "internalType": "address",
          "name": "to",
          "type": "address"
        },
        {
          "indexed": true,
          "internalType": "uint256",
          "name": "tokenId",
          "type": "uint256"
        }
      ],
      "name": "Transfer",
      "type": "event"
    },
    {
      "inputs": [
        {
          "internalType": "string",
          "name": "serialNumber",
          "type": "string"
        },
        {
          "internalType": "uint256",
          "name": "warrantyReason",
          "type": "uint256"
        },
        {
          "internalType": "uint256",
          "name": "warrantyOutcome",
          "type": "uint256"
        }
      ],
      "name": "addWarranty",
      "outputs": [],
      "stateMutability": "nonpayable",
      "type": "function"
    },
    {
      "inputs": [
        {
          "internalType": "address",
          "name": "to",
          "type": "address"
        },
        {
          "internalType": "uint256",
          "name": "tokenId",
          "type": "uint256"
        }
      ],
      "name": "approve",
      "outputs": [],
      "stateMutability": "nonpayable",
      "type": "function"
    },
    {
      "inputs": [
        {
          "internalType": "address",
          "name": "owner",
          "type": "address"
        }
      ],
      "name": "balanceOf",
      "outputs": [
        {
          "internalType": "uint256",
          "name": "",
          "type": "uint256"
        }
      ],
      "stateMutability": "view",
      "type": "function"
    },
    {
      "inputs": [
        {
          "internalType": "uint256",
          "name": "itemId",
          "type": "uint256"
        },
        {
          "internalType": "string",
          "name": "serialNumber",
          "type": "string"
        },
        {
          "internalType": "uint256",
          "name": "tokens",
          "type": "uint256"
        }
      ],
      "name": "buyItem",
      "outputs": [],
      "stateMutability": "payable",
      "type": "function"
    },
    {
      "inputs": [
        {
          "internalType": "string",
          "name": "serialNumber",
          "type": "string"
        }
      ],
      "name": "buyResaleItem",
      "outputs": [],
      "stateMutability": "payable",
      "type": "function"
    },
    {
      "inputs": [
        {
          "internalType": "string",
          "name": "itemURI",
          "type": "string"
        },
        {
          "internalType": "uint256",
          "name": "value",
          "type": "uint256"
        },
        {
          "internalType": "uint256",
          "name": "warrantyPeriod",
          "type": "uint256"
        },
        {
          "internalType": "bool",
          "name": "isSoulbound",
          "type": "bool"
        }
      ],
      "name": "createItem",
      "outputs": [],
      "stateMutability": "nonpayable",
      "type": "function"
    },
    {
      "inputs": [],
      "name": "getAllItems",
      "outputs": [
        {
          "components": [
            {
              "internalType": "uint256",
              "name": "itemId",
              "type": "uint256"
            },
            {
              "internalType": "string",
              "name": "itemURI",
              "type": "string"
            },
            {
              "internalType": "uint256",
              "name": "value",
              "type": "uint256"
            },
            {
              "internalType": "uint256",
              "name": "warrantyPeriod",
              "type": "uint256"
            },
            {
              "internalType": "bool",
              "name": "isSoulbound",
              "type": "bool"
            }
          ],
          "internalType": "struct FlipkartItem.Item[]",
          "name": "",
          "type": "tuple[]"
        }
      ],
      "stateMutability": "view",
      "type": "function"
    },
    {
      "inputs": [
        {
          "internalType": "uint256",
          "name": "tokenId",
          "type": "uint256"
        }
      ],
      "name": "getApproved",
      "outputs": [
        {
          "internalType": "address",
          "name": "",
          "type": "address"
        }
      ],
      "stateMutability": "view",
      "type": "function"
    },
    {
      "inputs": [
        {
          "internalType": "string",
          "name": "serialNumber",
          "type": "string"
        }
      ],
      "name": "getItemOwners",
      "outputs": [
        {
          "internalType": "address[]",
          "name": "",
          "type": "address[]"
        }
      ],
      "stateMutability": "view",
      "type": "function"
    },
    {
      "inputs": [
        {
          "internalType": "string",
          "name": "serialNumber",
          "type": "string"
        },
        {
          "internalType": "uint256",
          "name": "index",
          "type": "uint256"
        }
      ],
      "name": "getItemWarranty",
      "outputs": [
        {
          "components": [
            {
              "internalType": "enum FlipkartItem.WarrantyReason",
              "name": "reason",
              "type": "uint8"
            },
            {
              "internalType": "enum FlipkartItem.WarrantyOutcome",
              "name": "outcome",
              "type": "uint8"
            },
            {
              "internalType": "uint256",
              "name": "timestamp",
              "type": "uint256"
            }
          ],
          "internalType": "struct FlipkartItem.WarrantyInfo",
          "name": "",
          "type": "tuple"
        }
      ],
      "stateMutability": "view",
      "type": "function"
    },
    {
      "inputs": [
        {
          "internalType": "string",
          "name": "serialNumber",
          "type": "string"
        }
      ],
      "name": "getItemWarrantyLength",
      "outputs": [
        {
          "internalType": "uint256",
          "name": "",
          "type": "uint256"
        }
      ],
      "stateMutability": "view",
      "type": "function"
    },
    {
      "inputs": [],
      "name": "getResaleItems",
      "outputs": [
        {
          "components": [
            {
              "internalType": "uint256",
              "name": "itemId",
              "type": "uint256"
            },
            {
              "internalType": "uint256",
              "name": "creationTime",
              "type": "uint256"
            },
            {
              "internalType": "address[]",
              "name": "ownerHistory",
              "type": "address[]"
            },
            {
              "internalType": "bool",
              "name": "availableForResale",
              "type": "bool"
            },
            {
              "internalType": "uint256",
              "name": "resaleValue",
              "type": "uint256"
            }
          ],
          "internalType": "struct FlipkartItem.ItemInfo[]",
          "name": "",
          "type": "tuple[]"
        }
      ],
      "stateMutability": "view",
      "type": "function"
    },
    {
      "inputs": [],
      "name": "getSerialNumbersLength",
      "outputs": [
        {
          "internalType": "uint256",
          "name": "",
          "type": "uint256"
        }
      ],
      "stateMutability": "view",
      "type": "function"
    },
    {
      "inputs": [
        {
          "internalType": "string",
          "name": "serialNumber",
          "type": "string"
        }
      ],
      "name": "hashString",
      "outputs": [
        {
          "internalType": "uint256",
          "name": "",
          "type": "uint256"
        }
      ],
      "stateMutability": "pure",
      "type": "function"
    },
    {
      "inputs": [
        {
          "internalType": "address",
          "name": "owner",
          "type": "address"
        },
        {
          "internalType": "address",
          "name": "operator",
          "type": "address"
        }
      ],
      "name": "isApprovedForAll",
      "outputs": [
        {
          "internalType": "bool",
          "name": "",
          "type": "bool"
        }
      ],
      "stateMutability": "view",
      "type": "function"
    },
    {
      "inputs": [
        {
          "internalType": "string",
          "name": "serialNumber",
          "type": "string"
        }
      ],
      "name": "isWarrantyExpired",
      "outputs": [
        {
          "internalType": "bool",
          "name": "",
          "type": "bool"
        }
      ],
      "stateMutability": "view",
      "type": "function"
    },
    {
      "inputs": [
        {
          "internalType": "uint256",
          "name": "",
          "type": "uint256"
        }
      ],
      "name": "items",
      "outputs": [
        {
          "internalType": "uint256",
          "name": "itemId",
          "type": "uint256"
        },
        {
          "internalType": "string",
          "name": "itemURI",
          "type": "string"
        },
        {
          "internalType": "uint256",
          "name": "value",
          "type": "uint256"
        },
        {
          "internalType": "uint256",
          "name": "warrantyPeriod",
          "type": "uint256"
        },
        {
          "internalType": "bool",
          "name": "isSoulbound",
          "type": "bool"
        }
      ],
      "stateMutability": "view",
      "type": "function"
    },
    {
      "inputs": [],
      "name": "name",
      "outputs": [
        {
          "internalType": "string",
          "name": "",
          "type": "string"
        }
      ],
      "stateMutability": "view",
      "type": "function"
    },
    {
      "inputs": [],
      "name": "owner",
      "outputs": [
        {
          "internalType": "address",
          "name": "",
          "type": "address"
        }
      ],
      "stateMutability": "view",
      "type": "function"
    },
    {
      "inputs": [
        {
          "internalType": "uint256",
          "name": "tokenId",
          "type": "uint256"
        }
      ],
      "name": "ownerOf",
      "outputs": [
        {
          "internalType": "address",
          "name": "",
          "type": "address"
        }
      ],
      "stateMutability": "view",
      "type": "function"
    },
    {
      "inputs": [
        {
          "internalType": "address",
          "name": "",
          "type": "address"
        }
      ],
      "name": "plusCoins",
      "outputs": [
        {
          "internalType": "uint256",
          "name": "",
          "type": "uint256"
        }
      ],
      "stateMutability": "view",
      "type": "function"
    },
    {
      "inputs": [
        {
          "internalType": "string",
          "name": "",
          "type": "string"
        }
      ],
      "name": "purchasedItems",
      "outputs": [
        {
          "internalType": "uint256",
          "name": "itemId",
          "type": "uint256"
        },
        {
          "internalType": "uint256",
          "name": "creationTime",
          "type": "uint256"
        },
        {
          "internalType": "bool",
          "name": "availableForResale",
          "type": "bool"
        },
        {
          "internalType": "uint256",
          "name": "resaleValue",
          "type": "uint256"
        }
      ],
      "stateMutability": "view",
      "type": "function"
    },
    {
      "inputs": [
        {
          "internalType": "string",
          "name": "serialNumber",
          "type": "string"
        },
        {
          "internalType": "uint256",
          "name": "resaleValue",
          "type": "uint256"
        }
      ],
      "name": "putForResale",
      "outputs": [],
      "stateMutability": "nonpayable",
      "type": "function"
    },
    {
      "inputs": [],
      "name": "renounceOwnership",
      "outputs": [],
      "stateMutability": "nonpayable",
      "type": "function"
    },
    {
      "inputs": [
        {
          "internalType": "address",
          "name": "from",
          "type": "address"
        },
        {
          "internalType": "address",
          "name": "to",
          "type": "address"
        },
        {
          "internalType": "uint256",
          "name": "tokenId",
          "type": "uint256"
        }
      ],
      "name": "safeTransferFrom",
      "outputs": [],
      "stateMutability": "nonpayable",
      "type": "function"
    },
    {
      "inputs": [
        {
          "internalType": "address",
          "name": "from",
          "type": "address"
        },
        {
          "internalType": "address",
          "name": "to",
          "type": "address"
        },
        {
          "internalType": "uint256",
          "name": "tokenId",
          "type": "uint256"
        },
        {
          "internalType": "bytes",
          "name": "data",
          "type": "bytes"
        }
      ],
      "name": "safeTransferFrom",
      "outputs": [],
      "stateMutability": "nonpayable",
      "type": "function"
    },
    {
      "inputs": [
        {
          "internalType": "uint256",
          "name": "",
          "type": "uint256"
        }
      ],
      "name": "serialNumbers",
      "outputs": [
        {
          "internalType": "string",
          "name": "",
          "type": "string"
        }
      ],
      "stateMutability": "view",
      "type": "function"
    },
    {
      "inputs": [
        {
          "internalType": "address",
          "name": "operator",
          "type": "address"
        },
        {
          "internalType": "bool",
          "name": "approved",
          "type": "bool"
        }
      ],
      "name": "setApprovalForAll",
      "outputs": [],
      "stateMutability": "nonpayable",
      "type": "function"
    },
    {
      "inputs": [
        {
          "internalType": "string",
          "name": "serialNumber",
          "type": "string"
        },
        {
          "internalType": "uint256",
          "name": "value",
          "type": "uint256"
        }
      ],
      "name": "setResaleValue",
      "outputs": [],
      "stateMutability": "nonpayable",
      "type": "function"
    },
    {
      "inputs": [
        {
          "internalType": "bytes4",
          "name": "interfaceId",
          "type": "bytes4"
        }
      ],
      "name": "supportsInterface",
      "outputs": [
        {
          "internalType": "bool",
          "name": "",
          "type": "bool"
        }
      ],
      "stateMutability": "view",
      "type": "function"
    },
    {
      "inputs": [],
      "name": "symbol",
      "outputs": [
        {
          "internalType": "string",
          "name": "",
          "type": "string"
        }
      ],
      "stateMutability": "view",
      "type": "function"
    },
    {
      "inputs": [
        {
          "internalType": "uint256",
          "name": "tokenId",
          "type": "uint256"
        }
      ],
      "name": "tokenURI",
      "outputs": [
        {
          "internalType": "string",
          "name": "",
          "type": "string"
        }
      ],
      "stateMutability": "view",
      "type": "function"
    },
    {
      "inputs": [],
      "name": "totalItems",
      "outputs": [
        {
          "internalType": "uint256",
          "name": "",
          "type": "uint256"
        }
      ],
      "stateMutability": "view",
      "type": "function"
    },
    {
      "inputs": [
        {
          "internalType": "address",
          "name": "from",
          "type": "address"
        },
        {
          "internalType": "address",
          "name": "to",
          "type": "address"
        },
        {
          "internalType": "uint256",
          "name": "tokenId",
          "type": "uint256"
        }
      ],
      "name": "transferFrom",
      "outputs": [],
      "stateMutability": "nonpayable",
      "type": "function"
    },
    {
      "inputs": [
        {
          "internalType": "address",
          "name": "newOwner",
          "type": "address"
        }
      ],
      "name": "transferOwnership",
      "outputs": [],
      "stateMutability": "nonpayable",
      "type": "function"
    },
    {
      "inputs": [
        {
          "internalType": "string",
          "name": "",
          "type": "string"
        },
        {
          "internalType": "uint256",
          "name": "",
          "type": "uint256"
        }
      ],
      "name": "warrantyInfos",
      "outputs": [
        {
          "internalType": "enum FlipkartItem.WarrantyReason",
          "name": "reason",
          "type": "uint8"
        },
        {
          "internalType": "enum FlipkartItem.WarrantyOutcome",
          "name": "outcome",
          "type": "uint8"
        },
        {
          "internalType": "uint256",
          "name": "timestamp",
          "type": "uint256"
        }
      ],
      "stateMutability": "view",
      "type": "function"
    },
    {
      "inputs": [],
      "name": "withdraw",
      "outputs": [],
      "stateMutability": "nonpayable",
      "type": "function"
    }
  ],
  "bytecode": "0x60806040523480156200001157600080fd5b506040518060400160405280600881526020017f466c69704974656d0000000000000000000000000000000000000000000000008152506040518060400160405280600481526020017f464c495000000000000000000000000000000000000000000000000000000000815250816000908051906020019062000096929190620001a6565b508060019080519060200190620000af929190620001a6565b505050620000d2620000c6620000d860201b60201c565b620000e060201b60201c565b620002bb565b600033905090565b6000600660009054906101000a900473ffffffffffffffffffffffffffffffffffffffff16905081600660006101000a81548173ffffffffffffffffffffffffffffffffffffffff021916908373ffffffffffffffffffffffffffffffffffffffff1602179055508173ffffffffffffffffffffffffffffffffffffffff168173ffffffffffffffffffffffffffffffffffffffff167f8be0079c531659141344cd1fd0a4f28419497f9722a3daafe3b4186f6b6457e060405160405180910390a35050565b828054620001b49062000285565b90600052602060002090601f016020900481019282620001d8576000855562000224565b82601f10620001f357805160ff191683800117855562000224565b8280016001018555821562000224579182015b828111156200022357825182559160200191906001019062000206565b5b50905062000233919062000237565b5090565b5b808211156200025257600081600090555060010162000238565b5090565b7f4e487b7100000000000000000000000000000000000000000000000000000000600052602260045260246000fd5b600060028204905060018216806200029e57607f821691505b60208210811415620002b557620002b462000256565b5b50919050565b6154cf80620002cb6000396000f3fe60806040526004361061021a5760003560e01c8063766954b411610123578063b88d4fde116100ab578063e985e9c51161006f578063e985e9c51461083b578063eb1b666414610878578063eeae434f14610894578063f2fde38b146108d3578063f973b86c146108fc5761021a565b8063b88d4fde1461072c578063bfb231d214610755578063c6f4cd6014610796578063c87b56dd146107d3578063d64473c6146108105761021a565b8063940effae116100f2578063940effae1461063557806395d89b4114610672578063a22cb4651461069d578063a69eac32146106c6578063b41f6785146106ef5761021a565b8063766954b4146105655780637db7964f146105a257806381fbd329146105cd5780638da5cb5b1461060a5761021a565b8063352b6dc3116101a65780634a7a3a2f116101755780634a7a3a2f1461048d5780634ba1d6aa146104a95780636352211e146104d457806370a0823114610511578063715018a61461054e5761021a565b8063352b6dc3146103e7578063398395ff146104105780633ccfd60b1461044d57806342842e0e146104645761021a565b8063095ea7b3116101ed578063095ea7b31461030457806322c53c761461032d57806323b872dd146103565780632799276d1461037f57806333f989e2146103aa5761021a565b806301ffc9a71461021f57806304565c441461025c57806306fdde031461029c578063081812fc146102c7575b600080fd5b34801561022b57600080fd5b50610246600480360381019061024191906136da565b610925565b6040516102539190613722565b60405180910390f35b34801561026857600080fd5b50610283600480360381019061027e9190613883565b610a07565b60405161029394939291906138e5565b60405180910390f35b3480156102a857600080fd5b506102b1610a5a565b6040516102be91906139b2565b60405180910390f35b3480156102d357600080fd5b506102ee60048036038101906102e99190613a00565b610aec565b6040516102fb9190613a6e565b60405180910390f35b34801561031057600080fd5b5061032b60048036038101906103269190613ab5565b610b32565b005b34801561033957600080fd5b50610354600480360381019061034f9190613af5565b610c4a565b005b34801561036257600080fd5b5061037d60048036038101906103789190613b51565b610e00565b005b34801561038b57600080fd5b50610394610e60565b6040516103a19190613ba4565b60405180910390f35b3480156103b657600080fd5b506103d160048036038101906103cc9190613bbf565b610e71565b6040516103de9190613ba4565b60405180910390f35b3480156103f357600080fd5b5061040e60048036038101906104099190613c18565b610e89565b005b34801561041c57600080fd5b5061043760048036038101906104329190613883565b610f5b565b6040516104449190613ba4565b60405180910390f35b34801561045957600080fd5b50610462610fce565b005b34801561047057600080fd5b5061048b60048036038101906104869190613b51565b611026565b005b6104a760048036038101906104a29190613c9b565b611046565b005b3480156104b557600080fd5b506104be611445565b6040516104cb9190613eaa565b60405180910390f35b3480156104e057600080fd5b506104fb60048036038101906104f69190613a00565b61156f565b6040516105089190613a6e565b60405180910390f35b34801561051d57600080fd5b5061053860048036038101906105339190613bbf565b611621565b6040516105459190613ba4565b60405180910390f35b34801561055a57600080fd5b506105636116d9565b005b34801561057157600080fd5b5061058c60048036038101906105879190613883565b6116ed565b6040516105999190613ba4565b60405180910390f35b3480156105ae57600080fd5b506105b7611720565b6040516105c491906140c2565b60405180910390f35b3480156105d957600080fd5b506105f460048036038101906105ef9190613a00565b611955565b60405161060191906139b2565b60405180910390f35b34801561061657600080fd5b5061061f611a01565b60405161062c9190613a6e565b60405180910390f35b34801561064157600080fd5b5061065c60048036038101906106579190613af5565b611a2b565b60405161066991906141e5565b60405180910390f35b34801561067e57600080fd5b50610687611b4c565b60405161069491906139b2565b60405180910390f35b3480156106a957600080fd5b506106c460048036038101906106bf9190614200565b611bde565b005b3480156106d257600080fd5b506106ed60048036038101906106e89190614240565b611bf4565b005b3480156106fb57600080fd5b5061071660048036038101906107119190613883565b611d5f565b6040516107239190613722565b60405180910390f35b34801561073857600080fd5b50610753600480360381019061074e9190614350565b611ddd565b005b34801561076157600080fd5b5061077c60048036038101906107779190613a00565b611e3f565b60405161078d9594939291906143d3565b60405180910390f35b3480156107a257600080fd5b506107bd60048036038101906107b89190613883565b611f1a565b6040516107ca919061449c565b60405180910390f35b3480156107df57600080fd5b506107fa60048036038101906107f59190613a00565b612011565b60405161080791906139b2565b60405180910390f35b34801561081c57600080fd5b50610825612079565b6040516108329190613ba4565b60405180910390f35b34801561084757600080fd5b50610862600480360381019061085d91906144be565b612086565b60405161086f9190613722565b60405180910390f35b610892600480360381019061088d9190613883565b61211a565b005b3480156108a057600080fd5b506108bb60048036038101906108b69190613af5565b61235a565b6040516108ca9392919061451c565b60405180910390f35b3480156108df57600080fd5b506108fa60048036038101906108f59190613bbf565b6123d1565b005b34801561090857600080fd5b50610923600480360381019061091e9190613af5565b612455565b005b60007f80ac58cd000000000000000000000000000000000000000000000000000000007bffffffffffffffffffffffffffffffffffffffffffffffffffffffff1916827bffffffffffffffffffffffffffffffffffffffffffffffffffffffff191614806109f057507f5b5e139f000000000000000000000000000000000000000000000000000000007bffffffffffffffffffffffffffffffffffffffffffffffffffffffff1916827bffffffffffffffffffffffffffffffffffffffffffffffffffffffff1916145b80610a0057506109ff8261253d565b5b9050919050565b600a818051602081018201805184825260208301602085012081835280955050505050506000915090508060000154908060010154908060030160009054906101000a900460ff16908060040154905084565b606060008054610a6990614582565b80601f0160208091040260200160405190810160405280929190818152602001828054610a9590614582565b8015610ae25780601f10610ab757610100808354040283529160200191610ae2565b820191906000526020600020905b815481529060010190602001808311610ac557829003601f168201915b5050505050905090565b6000610af7826125a7565b6004600083815260200190815260200160002060009054906101000a900473ffffffffffffffffffffffffffffffffffffffff169050919050565b6000610b3d8261156f565b90508073ffffffffffffffffffffffffffffffffffffffff168373ffffffffffffffffffffffffffffffffffffffff161415610bae576040517f08c379a0000000000000000000000000000000000000000000000000000000008152600401610ba590614626565b60405180910390fd5b8073ffffffffffffffffffffffffffffffffffffffff16610bcd6125f2565b73ffffffffffffffffffffffffffffffffffffffff161480610bfc5750610bfb81610bf66125f2565b612086565b5b610c3b576040517f08c379a0000000000000000000000000000000000000000000000000000000008152600401610c32906146b8565b60405180910390fd5b610c4583836125fa565b505050565b610c53826126b3565b610c92576040517f08c379a0000000000000000000000000000000000000000000000000000000008152600401610c8990614724565b60405180910390fd5b610c9b826127a1565b73ffffffffffffffffffffffffffffffffffffffff163373ffffffffffffffffffffffffffffffffffffffff1614610d08576040517f08c379a0000000000000000000000000000000000000000000000000000000008152600401610cff90614790565b60405180910390fd5b6009600a83604051610d1a91906147ec565b90815260200160405180910390206000015481548110610d3d57610d3c614803565b5b906000526020600020906005020160040160009054906101000a900460ff1615610d9c576040517f08c379a0000000000000000000000000000000000000000000000000000000008152600401610d93906148a4565b60405180910390fd5b6001600a83604051610dae91906147ec565b908152602001604051809103902060030160006101000a81548160ff02191690831515021790555080600a83604051610de791906147ec565b9081526020016040518091039020600401819055505050565b610e11610e0b6125f2565b82612838565b610e50576040517f08c379a0000000000000000000000000000000000000000000000000000000008152600401610e4790614936565b60405180910390fd5b610e5b8383836128cd565b505050565b6000610e6c6007612b34565b905090565b600c6020528060005260406000206000915090505481565b610e91612b42565b60096040518060a00160405280610ea86007612b34565b81526020018681526020018581526020018481526020018315158152509080600181540180825580915050600190039060005260206000209060050201600090919091909150600082015181600001556020820151816001019080519060200190610f149291906134cb565b50604082015181600201556060820151816003015560808201518160040160006101000a81548160ff0219169083151502179055505050610f556007612bc0565b50505050565b6000610f66826126b3565b610fa5576040517f08c379a0000000000000000000000000000000000000000000000000000000008152600401610f9c90614724565b60405180910390fd5b600882604051610fb591906147ec565b9081526020016040518091039020805490509050919050565b610fd6612b42565b610fde611a01565b73ffffffffffffffffffffffffffffffffffffffff166108fc479081150290604051600060405180830381858888f19350505050158015611023573d6000803e3d6000fd5b50565b61104183838360405180602001604052806000815250611ddd565b505050565b600980549050831061108d576040517f08c379a000000000000000000000000000000000000000000000000000000000815260040161108490614724565b60405180910390fd5b611096826126b3565b156110d6576040517f08c379a00000000000000000000000000000000000000000000000000000000081526004016110cd906149a2565b60405180910390fd5b600983815481106110ea576110e9614803565b5b90600052602060002090600502016002015464e8d4a510008261110d91906149f1565b346111189190614a4b565b14611158576040517f08c379a000000000000000000000000000000000000000000000000000000000815260040161114f90614aed565b60405180910390fd5b600c60003373ffffffffffffffffffffffffffffffffffffffff1673ffffffffffffffffffffffffffffffffffffffff168152602001908152602001600020548111156111da576040517f08c379a00000000000000000000000000000000000000000000000000000000081526004016111d190614b7f565b60405180910390fd5b6111e2613551565b838160000181815250504281602001818152505060008160600190151590811515815250506009848154811061121b5761121a614803565b5b90600052602060002090600502016002015481608001818152505080600a8460405161124791906147ec565b908152602001604051809103902060008201518160000155602082015181600101556040820151816002019080519060200190611285929190613582565b5060608201518160030160006101000a81548160ff02191690831515021790555060808201518160040155905050600a836040516112c391906147ec565b9081526020016040518091039020600201339080600181540180825580915050600190039060005260206000200160009091909190916101000a81548173ffffffffffffffffffffffffffffffffffffffff021916908373ffffffffffffffffffffffffffffffffffffffff160217905550600b839080600181540180825580915050600190039060005260206000200160009091909190915090805190602001906113709291906134cb565b506113833361137e856116ed565b612bd6565b81600c60003373ffffffffffffffffffffffffffffffffffffffff1673ffffffffffffffffffffffffffffffffffffffff16815260200190815260200160002060008282546113d29190614b9f565b9250508190555064e8d4a51000346113ea9190614c02565b600c60003373ffffffffffffffffffffffffffffffffffffffff1673ffffffffffffffffffffffffffffffffffffffff16815260200190815260200160002060008282546114389190614a4b565b9250508190555050505050565b60606009805480602002602001604051908101604052809291908181526020016000905b8282101561156657838290600052602060002090600502016040518060a0016040529081600082015481526020016001820180546114a690614582565b80601f01602080910402602001604051908101604052809291908181526020018280546114d290614582565b801561151f5780601f106114f45761010080835404028352916020019161151f565b820191906000526020600020905b81548152906001019060200180831161150257829003601f168201915b5050505050815260200160028201548152602001600382015481526020016004820160009054906101000a900460ff16151515158152505081526020019060010190611469565b50505050905090565b6000806002600084815260200190815260200160002060009054906101000a900473ffffffffffffffffffffffffffffffffffffffff169050600073ffffffffffffffffffffffffffffffffffffffff168173ffffffffffffffffffffffffffffffffffffffff161415611618576040517f08c379a000000000000000000000000000000000000000000000000000000000815260040161160f90614c7f565b60405180910390fd5b80915050919050565b60008073ffffffffffffffffffffffffffffffffffffffff168273ffffffffffffffffffffffffffffffffffffffff161415611692576040517f08c379a000000000000000000000000000000000000000000000000000000000815260040161168990614d11565b60405180910390fd5b600360008373ffffffffffffffffffffffffffffffffffffffff1673ffffffffffffffffffffffffffffffffffffffff168152602001908152602001600020549050919050565b6116e1612b42565b6116eb6000612db0565b565b60008160405160200161170091906147ec565b6040516020818303038152906040528051906020012060001c9050919050565b6060806000805b600b8054905081101561194c57600a600b828154811061174a57611749614803565b5b906000526020600020016040516117619190614dc5565b908152602001604051809103902060030160009054906101000a900460ff1680156117fa57506009600a600b838154811061179f5761179e614803565b5b906000526020600020016040516117b69190614dc5565b908152602001604051809103902060000154815481106117d9576117d8614803565b5b906000526020600020906005020160040160009054906101000a900460ff16155b1561193957600a600b828154811061181557611814614803565b5b9060005260206000200160405161182c9190614dc5565b90815260200160405180910390206040518060a00160405290816000820154815260200160018201548152602001600282018054806020026020016040519081016040528092919081815260200182805480156118de57602002820191906000526020600020905b8160009054906101000a900473ffffffffffffffffffffffffffffffffffffffff1673ffffffffffffffffffffffffffffffffffffffff1681526020019060010190808311611894575b505050505081526020016003820160009054906101000a900460ff1615151515815260200160048201548152505083838151811061191f5761191e614803565b5b6020026020010181905250818061193590614ddc565b9250505b808061194490614ddc565b915050611727565b50819250505090565b600b818154811061196557600080fd5b90600052602060002001600091509050805461198090614582565b80601f01602080910402602001604051908101604052809291908181526020018280546119ac90614582565b80156119f95780601f106119ce576101008083540402835291602001916119f9565b820191906000526020600020905b8154815290600101906020018083116119dc57829003601f168201915b505050505081565b6000600660009054906101000a900473ffffffffffffffffffffffffffffffffffffffff16905090565b611a3361360c565b611a3c836126b3565b611a7b576040517f08c379a0000000000000000000000000000000000000000000000000000000008152600401611a7290614724565b60405180910390fd5b600883604051611a8b91906147ec565b90815260200160405180910390208281548110611aab57611aaa614803565b5b90600052602060002090600202016040518060600160405290816000820160009054906101000a900460ff166002811115611ae957611ae86140e4565b5b6002811115611afb57611afa6140e4565b5b81526020016000820160019054906101000a900460ff166001811115611b2457611b236140e4565b5b6001811115611b3657611b356140e4565b5b8152602001600182015481525050905092915050565b606060018054611b5b90614582565b80601f0160208091040260200160405190810160405280929190818152602001828054611b8790614582565b8015611bd45780601f10611ba957610100808354040283529160200191611bd4565b820191906000526020600020905b815481529060010190602001808311611bb757829003601f168201915b5050505050905090565b611bf0611be96125f2565b8383612e76565b5050565b611bfc612b42565b611c0583611d5f565b611c44576040517f08c379a0000000000000000000000000000000000000000000000000000000008152600401611c3b90614e71565b60405180910390fd5b600883604051611c5491906147ec565b90815260200160405180910390206040518060600160405280846002811115611c8057611c7f6140e4565b5b6002811115611c9257611c916140e4565b5b8152602001836001811115611caa57611ca96140e4565b5b6001811115611cbc57611cbb6140e4565b5b815260200142815250908060018154018082558091505060019003906000526020600020906002020160009091909190915060008201518160000160006101000a81548160ff02191690836002811115611d1957611d186140e4565b5b021790555060208201518160000160016101000a81548160ff02191690836001811115611d4957611d486140e4565b5b0217905550604082015181600101555050505050565b6000426009600a84604051611d7491906147ec565b90815260200160405180910390206000015481548110611d9757611d96614803565b5b906000526020600020906005020160030154600a84604051611db991906147ec565b908152602001604051809103902060010154611dd59190614a4b565b119050919050565b611dee611de86125f2565b83612838565b611e2d576040517f08c379a0000000000000000000000000000000000000000000000000000000008152600401611e2490614936565b60405180910390fd5b611e3984848484612fe3565b50505050565b60098181548110611e4f57600080fd5b9060005260206000209060050201600091509050806000015490806001018054611e7890614582565b80601f0160208091040260200160405190810160405280929190818152602001828054611ea490614582565b8015611ef15780601f10611ec657610100808354040283529160200191611ef1565b820191906000526020600020905b815481529060010190602001808311611ed457829003601f168201915b5050505050908060020154908060030154908060040160009054906101000a900460ff16905085565b6060611f25826126b3565b611f64576040517f08c379a0000000000000000000000000000000000000000000000000000000008152600401611f5b90614724565b60405180910390fd5b600a82604051611f7491906147ec565b908152602001604051809103902060020180548060200260200160405190810160405280929190818152602001828054801561200557602002820191906000526020600020905b8160009054906101000a900473ffffffffffffffffffffffffffffffffffffffff1673ffffffffffffffffffffffffffffffffffffffff1681526020019060010190808311611fbb575b50505050509050919050565b606061201c826125a7565b600061202661303f565b905060008151116120465760405180602001604052806000815250612071565b8061205084613056565b604051602001612061929190614e91565b6040516020818303038152906040525b915050919050565b6000600b80549050905090565b6000600560008473ffffffffffffffffffffffffffffffffffffffff1673ffffffffffffffffffffffffffffffffffffffff16815260200190815260200160002060008373ffffffffffffffffffffffffffffffffffffffff1673ffffffffffffffffffffffffffffffffffffffff16815260200190815260200160002060009054906101000a900460ff16905092915050565b612123816126b3565b612162576040517f08c379a000000000000000000000000000000000000000000000000000000000815260040161215990614724565b60405180910390fd5b600a8160405161217291906147ec565b908152602001604051809103902060030160009054906101000a900460ff166121d0576040517f08c379a00000000000000000000000000000000000000000000000000000000081526004016121c790614f01565b60405180910390fd5b34600a826040516121e191906147ec565b90815260200160405180910390206004015414612233576040517f08c379a000000000000000000000000000000000000000000000000000000000815260040161222a90614aed565b60405180910390fd5b600061223e826127a1565b90508073ffffffffffffffffffffffffffffffffffffffff166108fc349081150290604051600060405180830381858888f19350505050158015612286573d6000803e3d6000fd5b5061229a8133612295856116ed565b6128cd565b6000600a836040516122ac91906147ec565b908152602001604051809103902060030160006101000a81548160ff021916908315150217905550600a826040516122e491906147ec565b9081526020016040518091039020600201339080600181540180825580915050600190039060005260206000200160009091909190916101000a81548173ffffffffffffffffffffffffffffffffffffffff021916908373ffffffffffffffffffffffffffffffffffffffff1602179055505050565b600882805160208101820180518482526020830160208501208183528095505050505050818154811061238c57600080fd5b9060005260206000209060020201600091509150508060000160009054906101000a900460ff16908060000160019054906101000a900460ff16908060010154905083565b6123d9612b42565b600073ffffffffffffffffffffffffffffffffffffffff168173ffffffffffffffffffffffffffffffffffffffff161415612449576040517f08c379a000000000000000000000000000000000000000000000000000000000815260040161244090614f93565b60405180910390fd5b61245281612db0565b50565b61245e826126b3565b61249d576040517f08c379a000000000000000000000000000000000000000000000000000000000815260040161249490614724565b60405180910390fd5b6124a6826127a1565b73ffffffffffffffffffffffffffffffffffffffff163373ffffffffffffffffffffffffffffffffffffffff1614612513576040517f08c379a000000000000000000000000000000000000000000000000000000000815260040161250a90614fff565b60405180910390fd5b80600a8360405161252491906147ec565b9081526020016040518091039020600401819055505050565b60007f01ffc9a7000000000000000000000000000000000000000000000000000000007bffffffffffffffffffffffffffffffffffffffffffffffffffffffff1916827bffffffffffffffffffffffffffffffffffffffffffffffffffffffff1916149050919050565b6125b0816131b7565b6125ef576040517f08c379a00000000000000000000000000000000000000000000000000000000081526004016125e690614c7f565b60405180910390fd5b50565b600033905090565b816004600083815260200190815260200160002060006101000a81548173ffffffffffffffffffffffffffffffffffffffff021916908373ffffffffffffffffffffffffffffffffffffffff160217905550808273ffffffffffffffffffffffffffffffffffffffff1661266d8361156f565b73ffffffffffffffffffffffffffffffffffffffff167f8c5be1e5ebec7d5bd14f71427d1e84f3dd0314c0f7b2291e5b200ac8c7c3b92560405160405180910390a45050565b60008060005b600b8054905081101561279757612776600b82815481106126dd576126dc614803565b5b9060005260206000200180546126f290614582565b80601f016020809104026020016040519081016040528092919081815260200182805461271e90614582565b801561276b5780601f106127405761010080835404028352916020019161276b565b820191906000526020600020905b81548152906001019060200180831161274e57829003601f168201915b505050505085613223565b156127845760019150612797565b808061278f90614ddc565b9150506126b9565b5080915050919050565b6000600a826040516127b391906147ec565b90815260200160405180910390206002016001600a846040516127d691906147ec565b9081526020016040518091039020600201805490506127f59190614b9f565b8154811061280657612805614803565b5b9060005260206000200160009054906101000a900473ffffffffffffffffffffffffffffffffffffffff169050919050565b6000806128448361156f565b90508073ffffffffffffffffffffffffffffffffffffffff168473ffffffffffffffffffffffffffffffffffffffff16148061288657506128858185612086565b5b806128c457508373ffffffffffffffffffffffffffffffffffffffff166128ac84610aec565b73ffffffffffffffffffffffffffffffffffffffff16145b91505092915050565b8273ffffffffffffffffffffffffffffffffffffffff166128ed8261156f565b73ffffffffffffffffffffffffffffffffffffffff1614612943576040517f08c379a000000000000000000000000000000000000000000000000000000000815260040161293a90615091565b60405180910390fd5b600073ffffffffffffffffffffffffffffffffffffffff168273ffffffffffffffffffffffffffffffffffffffff1614156129b3576040517f08c379a00000000000000000000000000000000000000000000000000000000081526004016129aa90615123565b60405180910390fd5b6129be838383613307565b6129c96000826125fa565b6001600360008573ffffffffffffffffffffffffffffffffffffffff1673ffffffffffffffffffffffffffffffffffffffff1681526020019081526020016000206000828254612a199190614b9f565b925050819055506001600360008473ffffffffffffffffffffffffffffffffffffffff1673ffffffffffffffffffffffffffffffffffffffff1681526020019081526020016000206000828254612a709190614a4b565b92505081905550816002600083815260200190815260200160002060006101000a81548173ffffffffffffffffffffffffffffffffffffffff021916908373ffffffffffffffffffffffffffffffffffffffff160217905550808273ffffffffffffffffffffffffffffffffffffffff168473ffffffffffffffffffffffffffffffffffffffff167fddf252ad1be2c89b69c2b068fc378daa952ba7f163c4a11628f55a4df523b3ef60405160405180910390a4612b2f83838361330c565b505050565b600081600001549050919050565b612b4a6125f2565b73ffffffffffffffffffffffffffffffffffffffff16612b68611a01565b73ffffffffffffffffffffffffffffffffffffffff1614612bbe576040517f08c379a0000000000000000000000000000000000000000000000000000000008152600401612bb59061518f565b60405180910390fd5b565b6001816000016000828254019250508190555050565b600073ffffffffffffffffffffffffffffffffffffffff168273ffffffffffffffffffffffffffffffffffffffff161415612c46576040517f08c379a0000000000000000000000000000000000000000000000000000000008152600401612c3d906151fb565b60405180910390fd5b612c4f816131b7565b15612c8f576040517f08c379a0000000000000000000000000000000000000000000000000000000008152600401612c8690615267565b60405180910390fd5b612c9b60008383613307565b6001600360008473ffffffffffffffffffffffffffffffffffffffff1673ffffffffffffffffffffffffffffffffffffffff1681526020019081526020016000206000828254612ceb9190614a4b565b92505081905550816002600083815260200190815260200160002060006101000a81548173ffffffffffffffffffffffffffffffffffffffff021916908373ffffffffffffffffffffffffffffffffffffffff160217905550808273ffffffffffffffffffffffffffffffffffffffff16600073ffffffffffffffffffffffffffffffffffffffff167fddf252ad1be2c89b69c2b068fc378daa952ba7f163c4a11628f55a4df523b3ef60405160405180910390a4612dac6000838361330c565b5050565b6000600660009054906101000a900473ffffffffffffffffffffffffffffffffffffffff16905081600660006101000a81548173ffffffffffffffffffffffffffffffffffffffff021916908373ffffffffffffffffffffffffffffffffffffffff1602179055508173ffffffffffffffffffffffffffffffffffffffff168173ffffffffffffffffffffffffffffffffffffffff167f8be0079c531659141344cd1fd0a4f28419497f9722a3daafe3b4186f6b6457e060405160405180910390a35050565b8173ffffffffffffffffffffffffffffffffffffffff168373ffffffffffffffffffffffffffffffffffffffff161415612ee5576040517f08c379a0000000000000000000000000000000000000000000000000000000008152600401612edc906152d3565b60405180910390fd5b80600560008573ffffffffffffffffffffffffffffffffffffffff1673ffffffffffffffffffffffffffffffffffffffff16815260200190815260200160002060008473ffffffffffffffffffffffffffffffffffffffff1673ffffffffffffffffffffffffffffffffffffffff16815260200190815260200160002060006101000a81548160ff0219169083151502179055508173ffffffffffffffffffffffffffffffffffffffff168373ffffffffffffffffffffffffffffffffffffffff167f17307eab39ab6107e8899845ad3d59bd9653f200f220920489ca2b5937696c3183604051612fd69190613722565b60405180910390a3505050565b612fee8484846128cd565b612ffa84848484613311565b613039576040517f08c379a000000000000000000000000000000000000000000000000000000000815260040161303090615365565b60405180910390fd5b50505050565b606060405180602001604052806000815250905090565b6060600082141561309e576040518060400160405280600181526020017f300000000000000000000000000000000000000000000000000000000000000081525090506131b2565b600082905060005b600082146130d05780806130b990614ddc565b915050600a826130c99190614c02565b91506130a6565b60008167ffffffffffffffff8111156130ec576130eb613758565b5b6040519080825280601f01601f19166020018201604052801561311e5781602001600182028036833780820191505090505b5090505b600085146131ab576001826131379190614b9f565b9150600a856131469190615385565b60306131529190614a4b565b60f81b81838151811061316857613167614803565b5b60200101907effffffffffffffffffffffffffffffffffffffffffffffffffffffffffffff1916908160001a905350600a856131a49190614c02565b9450613122565b8093505050505b919050565b60008073ffffffffffffffffffffffffffffffffffffffff166002600084815260200190815260200160002060009054906101000a900473ffffffffffffffffffffffffffffffffffffffff1673ffffffffffffffffffffffffffffffffffffffff1614159050919050565b6000808390506000839050600082519050815181146132485760009350505050613301565b60005b818110156132f85782818151811061326657613265614803565b5b602001015160f81c60f81b7effffffffffffffffffffffffffffffffffffffffffffffffffffffffffffff19168482815181106132a6576132a5614803565b5b602001015160f81c60f81b7effffffffffffffffffffffffffffffffffffffffffffffffffffffffffffff1916146132e5576000945050505050613301565b80806132f090614ddc565b91505061324b565b50600193505050505b92915050565b505050565b505050565b60006133328473ffffffffffffffffffffffffffffffffffffffff166134a8565b1561349b578373ffffffffffffffffffffffffffffffffffffffff1663150b7a0261335b6125f2565b8786866040518563ffffffff1660e01b815260040161337d949392919061540b565b602060405180830381600087803b15801561339757600080fd5b505af19250505080156133c857506040513d601f19601f820116820180604052508101906133c5919061546c565b60015b61344b573d80600081146133f8576040519150601f19603f3d011682016040523d82523d6000602084013e6133fd565b606091505b50600081511415613443576040517f08c379a000000000000000000000000000000000000000000000000000000000815260040161343a90615365565b60405180910390fd5b805181602001fd5b63150b7a0260e01b7bffffffffffffffffffffffffffffffffffffffffffffffffffffffff1916817bffffffffffffffffffffffffffffffffffffffffffffffffffffffff1916149150506134a0565b600190505b949350505050565b6000808273ffffffffffffffffffffffffffffffffffffffff163b119050919050565b8280546134d790614582565b90600052602060002090601f0160209004810192826134f95760008555613540565b82601f1061351257805160ff1916838001178555613540565b82800160010185558215613540579182015b8281111561353f578251825591602001919060010190613524565b5b50905061354d9190613651565b5090565b6040518060a00160405280600081526020016000815260200160608152602001600015158152602001600081525090565b8280548282559060005260206000209081019282156135fb579160200282015b828111156135fa5782518260006101000a81548173ffffffffffffffffffffffffffffffffffffffff021916908373ffffffffffffffffffffffffffffffffffffffff160217905550916020019190600101906135a2565b5b5090506136089190613651565b5090565b60405180606001604052806000600281111561362b5761362a6140e4565b5b815260200160006001811115613644576136436140e4565b5b8152602001600081525090565b5b8082111561366a576000816000905550600101613652565b5090565b6000604051905090565b600080fd5b600080fd5b60007fffffffff0000000000000000000000000000000000000000000000000000000082169050919050565b6136b781613682565b81146136c257600080fd5b50565b6000813590506136d4816136ae565b92915050565b6000602082840312156136f0576136ef613678565b5b60006136fe848285016136c5565b91505092915050565b60008115159050919050565b61371c81613707565b82525050565b60006020820190506137376000830184613713565b92915050565b600080fd5b600080fd5b6000601f19601f8301169050919050565b7f4e487b7100000000000000000000000000000000000000000000000000000000600052604160045260246000fd5b61379082613747565b810181811067ffffffffffffffff821117156137af576137ae613758565b5b80604052505050565b60006137c261366e565b90506137ce8282613787565b919050565b600067ffffffffffffffff8211156137ee576137ed613758565b5b6137f782613747565b9050602081019050919050565b82818337600083830152505050565b6000613826613821846137d3565b6137b8565b90508281526020810184848401111561384257613841613742565b5b61384d848285613804565b509392505050565b600082601f83011261386a5761386961373d565b5b813561387a848260208601613813565b91505092915050565b60006020828403121561389957613898613678565b5b600082013567ffffffffffffffff8111156138b7576138b661367d565b5b6138c384828501613855565b91505092915050565b6000819050919050565b6138df816138cc565b82525050565b60006080820190506138fa60008301876138d6565b61390760208301866138d6565b6139146040830185613713565b61392160608301846138d6565b95945050505050565b600081519050919050565b600082825260208201905092915050565b60005b83811015613964578082015181840152602081019050613949565b83811115613973576000848401525b50505050565b60006139848261392a565b61398e8185613935565b935061399e818560208601613946565b6139a781613747565b840191505092915050565b600060208201905081810360008301526139cc8184613979565b905092915050565b6139dd816138cc565b81146139e857600080fd5b50565b6000813590506139fa816139d4565b92915050565b600060208284031215613a1657613a15613678565b5b6000613a24848285016139eb565b91505092915050565b600073ffffffffffffffffffffffffffffffffffffffff82169050919050565b6000613a5882613a2d565b9050919050565b613a6881613a4d565b82525050565b6000602082019050613a836000830184613a5f565b92915050565b613a9281613a4d565b8114613a9d57600080fd5b50565b600081359050613aaf81613a89565b92915050565b60008060408385031215613acc57613acb613678565b5b6000613ada85828601613aa0565b9250506020613aeb858286016139eb565b9150509250929050565b60008060408385031215613b0c57613b0b613678565b5b600083013567ffffffffffffffff811115613b2a57613b2961367d565b5b613b3685828601613855565b9250506020613b47858286016139eb565b9150509250929050565b600080600060608486031215613b6a57613b69613678565b5b6000613b7886828701613aa0565b9350506020613b8986828701613aa0565b9250506040613b9a868287016139eb565b9150509250925092565b6000602082019050613bb960008301846138d6565b92915050565b600060208284031215613bd557613bd4613678565b5b6000613be384828501613aa0565b91505092915050565b613bf581613707565b8114613c0057600080fd5b50565b600081359050613c1281613bec565b92915050565b60008060008060808587031215613c3257613c31613678565b5b600085013567ffffffffffffffff811115613c5057613c4f61367d565b5b613c5c87828801613855565b9450506020613c6d878288016139eb565b9350506040613c7e878288016139eb565b9250506060613c8f87828801613c03565b91505092959194509250565b600080600060608486031215613cb457613cb3613678565b5b6000613cc2868287016139eb565b935050602084013567ffffffffffffffff811115613ce357613ce261367d565b5b613cef86828701613855565b9250506040613d00868287016139eb565b9150509250925092565b600081519050919050565b600082825260208201905092915050565b6000819050602082019050919050565b613d3f816138cc565b82525050565b600082825260208201905092915050565b6000613d618261392a565b613d6b8185613d45565b9350613d7b818560208601613946565b613d8481613747565b840191505092915050565b613d9881613707565b82525050565b600060a083016000830151613db66000860182613d36565b5060208301518482036020860152613dce8282613d56565b9150506040830151613de36040860182613d36565b506060830151613df66060860182613d36565b506080830151613e096080860182613d8f565b508091505092915050565b6000613e208383613d9e565b905092915050565b6000602082019050919050565b6000613e4082613d0a565b613e4a8185613d15565b935083602082028501613e5c85613d26565b8060005b85811015613e985784840389528151613e798582613e14565b9450613e8483613e28565b925060208a01995050600181019050613e60565b50829750879550505050505092915050565b60006020820190508181036000830152613ec48184613e35565b905092915050565b600081519050919050565b600082825260208201905092915050565b6000819050602082019050919050565b600081519050919050565b600082825260208201905092915050565b6000819050602082019050919050565b613f2d81613a4d565b82525050565b6000613f3f8383613f24565b60208301905092915050565b6000602082019050919050565b6000613f6382613ef8565b613f6d8185613f03565b9350613f7883613f14565b8060005b83811015613fa9578151613f908882613f33565b9750613f9b83613f4b565b925050600181019050613f7c565b5085935050505092915050565b600060a083016000830151613fce6000860182613d36565b506020830151613fe16020860182613d36565b5060408301518482036040860152613ff98282613f58565b915050606083015161400e6060860182613d8f565b5060808301516140216080860182613d36565b508091505092915050565b60006140388383613fb6565b905092915050565b6000602082019050919050565b600061405882613ecc565b6140628185613ed7565b93508360208202850161407485613ee8565b8060005b858110156140b05784840389528151614091858261402c565b945061409c83614040565b925060208a01995050600181019050614078565b50829750879550505050505092915050565b600060208201905081810360008301526140dc818461404d565b905092915050565b7f4e487b7100000000000000000000000000000000000000000000000000000000600052602160045260246000fd5b60038110614124576141236140e4565b5b50565b600081905061413582614113565b919050565b600061414582614127565b9050919050565b6141558161413a565b82525050565b6002811061416c5761416b6140e4565b5b50565b600081905061417d8261415b565b919050565b600061418d8261416f565b9050919050565b61419d81614182565b82525050565b6060820160008201516141b9600085018261414c565b5060208201516141cc6020850182614194565b5060408201516141df6040850182613d36565b50505050565b60006060820190506141fa60008301846141a3565b92915050565b6000806040838503121561421757614216613678565b5b600061422585828601613aa0565b925050602061423685828601613c03565b9150509250929050565b60008060006060848603121561425957614258613678565b5b600084013567ffffffffffffffff8111156142775761427661367d565b5b61428386828701613855565b9350506020614294868287016139eb565b92505060406142a5868287016139eb565b9150509250925092565b600067ffffffffffffffff8211156142ca576142c9613758565b5b6142d382613747565b9050602081019050919050565b60006142f36142ee846142af565b6137b8565b90508281526020810184848401111561430f5761430e613742565b5b61431a848285613804565b509392505050565b600082601f8301126143375761433661373d565b5b81356143478482602086016142e0565b91505092915050565b6000806000806080858703121561436a57614369613678565b5b600061437887828801613aa0565b945050602061438987828801613aa0565b935050604061439a878288016139eb565b925050606085013567ffffffffffffffff8111156143bb576143ba61367d565b5b6143c787828801614322565b91505092959194509250565b600060a0820190506143e860008301886138d6565b81810360208301526143fa8187613979565b905061440960408301866138d6565b61441660608301856138d6565b6144236080830184613713565b9695505050505050565b600082825260208201905092915050565b600061444982613ef8565b614453818561442d565b935061445e83613f14565b8060005b8381101561448f5781516144768882613f33565b975061448183613f4b565b925050600181019050614462565b5085935050505092915050565b600060208201905081810360008301526144b6818461443e565b905092915050565b600080604083850312156144d5576144d4613678565b5b60006144e385828601613aa0565b92505060206144f485828601613aa0565b9150509250929050565b6145078161413a565b82525050565b61451681614182565b82525050565b600060608201905061453160008301866144fe565b61453e602083018561450d565b61454b60408301846138d6565b949350505050565b7f4e487b7100000000000000000000000000000000000000000000000000000000600052602260045260246000fd5b6000600282049050600182168061459a57607f821691505b602082108114156145ae576145ad614553565b5b50919050565b7f4552433732313a20617070726f76616c20746f2063757272656e74206f776e6560008201527f7200000000000000000000000000000000000000000000000000000000000000602082015250565b6000614610602183613935565b915061461b826145b4565b604082019050919050565b6000602082019050818103600083015261463f81614603565b9050919050565b7f4552433732313a20617070726f76652063616c6c6572206973206e6f7420746f60008201527f6b656e206f776e6572206e6f7220617070726f76656420666f7220616c6c0000602082015250565b60006146a2603e83613935565b91506146ad82614646565b604082019050919050565b600060208201905081810360008301526146d181614695565b9050919050565b7f4974656d20646f6573206e6f7420657869737421000000000000000000000000600082015250565b600061470e601483613935565b9150614719826146d8565b602082019050919050565b6000602082019050818103600083015261473d81614701565b9050919050565b7f556e617574686f72697a656420746f20726573656c6c206974656d2100000000600082015250565b600061477a601c83613935565b915061478582614744565b602082019050919050565b600060208201905081810360008301526147a98161476d565b9050919050565b600081905092915050565b60006147c68261392a565b6147d081856147b0565b93506147e0818560208601613946565b80840191505092915050565b60006147f882846147bb565b915081905092915050565b7f4e487b7100000000000000000000000000000000000000000000000000000000600052603260045260246000fd5b7f43616e6e6f7420726573656c6c2c206974656d20697320736f756c626f756e6460008201527f2100000000000000000000000000000000000000000000000000000000000000602082015250565b600061488e602183613935565b915061489982614832565b604082019050919050565b600060208201905081810360008301526148bd81614881565b9050919050565b7f4552433732313a2063616c6c6572206973206e6f7420746f6b656e206f776e6560008201527f72206e6f7220617070726f766564000000000000000000000000000000000000602082015250565b6000614920602e83613935565b915061492b826148c4565b604082019050919050565b6000602082019050818103600083015261494f81614913565b9050919050565b7f53657269616c206e756d62657220657869737473210000000000000000000000600082015250565b600061498c601583613935565b915061499782614956565b602082019050919050565b600060208201905081810360008301526149bb8161497f565b9050919050565b7f4e487b7100000000000000000000000000000000000000000000000000000000600052601160045260246000fd5b60006149fc826138cc565b9150614a07836138cc565b9250817fffffffffffffffffffffffffffffffffffffffffffffffffffffffffffffffff0483118215151615614a4057614a3f6149c2565b5b828202905092915050565b6000614a56826138cc565b9150614a61836138cc565b9250827fffffffffffffffffffffffffffffffffffffffffffffffffffffffffffffffff03821115614a9657614a956149c2565b5b828201905092915050565b7f496e636f727265637420616d6f756e74206f662065746865722073656e742100600082015250565b6000614ad7601f83613935565b9150614ae282614aa1565b602082019050919050565b60006020820190508181036000830152614b0681614aca565b9050919050565b7f5573657220646f6573206e6f74206861766520656e6f75676820746f6b656e7360008201527f2100000000000000000000000000000000000000000000000000000000000000602082015250565b6000614b69602183613935565b9150614b7482614b0d565b604082019050919050565b60006020820190508181036000830152614b9881614b5c565b9050919050565b6000614baa826138cc565b9150614bb5836138cc565b925082821015614bc857614bc76149c2565b5b828203905092915050565b7f4e487b7100000000000000000000000000000000000000000000000000000000600052601260045260246000fd5b6000614c0d826138cc565b9150614c18836138cc565b925082614c2857614c27614bd3565b5b828204905092915050565b7f4552433732313a20696e76616c696420746f6b656e2049440000000000000000600082015250565b6000614c69601883613935565b9150614c7482614c33565b602082019050919050565b60006020820190508181036000830152614c9881614c5c565b9050919050565b7f4552433732313a2061646472657373207a65726f206973206e6f74206120766160008201527f6c6964206f776e65720000000000000000000000000000000000000000000000602082015250565b6000614cfb602983613935565b9150614d0682614c9f565b604082019050919050565b60006020820190508181036000830152614d2a81614cee565b9050919050565b60008190508160005260206000209050919050565b60008154614d5381614582565b614d5d81866147b0565b94506001821660008114614d785760018114614d8957614dbc565b60ff19831686528186019350614dbc565b614d9285614d31565b60005b83811015614db457815481890152600182019150602081019050614d95565b838801955050505b50505092915050565b6000614dd18284614d46565b915081905092915050565b6000614de7826138cc565b91507fffffffffffffffffffffffffffffffffffffffffffffffffffffffffffffffff821415614e1a57614e196149c2565b5b600182019050919050565b7f57617272616e7479206861732065787069726564210000000000000000000000600082015250565b6000614e5b601583613935565b9150614e6682614e25565b602082019050919050565b60006020820190508181036000830152614e8a81614e4e565b9050919050565b6000614e9d82856147bb565b9150614ea982846147bb565b91508190509392505050565b7f4974656d206e6f7420617661696c61626c6520666f7220726573616c65210000600082015250565b6000614eeb601e83613935565b9150614ef682614eb5565b602082019050919050565b60006020820190508181036000830152614f1a81614ede565b9050919050565b7f4f776e61626c653a206e6577206f776e657220697320746865207a65726f206160008201527f6464726573730000000000000000000000000000000000000000000000000000602082015250565b6000614f7d602683613935565b9150614f8882614f21565b604082019050919050565b60006020820190508181036000830152614fac81614f70565b9050919050565b7f556e617574686f72697a656420746f207365742076616c756521000000000000600082015250565b6000614fe9601a83613935565b9150614ff482614fb3565b602082019050919050565b6000602082019050818103600083015261501881614fdc565b9050919050565b7f4552433732313a207472616e736665722066726f6d20696e636f72726563742060008201527f6f776e6572000000000000000000000000000000000000000000000000000000602082015250565b600061507b602583613935565b91506150868261501f565b604082019050919050565b600060208201905081810360008301526150aa8161506e565b9050919050565b7f4552433732313a207472616e7366657220746f20746865207a65726f2061646460008201527f7265737300000000000000000000000000000000000000000000000000000000602082015250565b600061510d602483613935565b9150615118826150b1565b604082019050919050565b6000602082019050818103600083015261513c81615100565b9050919050565b7f4f776e61626c653a2063616c6c6572206973206e6f7420746865206f776e6572600082015250565b6000615179602083613935565b915061518482615143565b602082019050919050565b600060208201905081810360008301526151a88161516c565b9050919050565b7f4552433732313a206d696e7420746f20746865207a65726f2061646472657373600082015250565b60006151e5602083613935565b91506151f0826151af565b602082019050919050565b60006020820190508181036000830152615214816151d8565b9050919050565b7f4552433732313a20746f6b656e20616c7265616479206d696e74656400000000600082015250565b6000615251601c83613935565b915061525c8261521b565b602082019050919050565b6000602082019050818103600083015261528081615244565b9050919050565b7f4552433732313a20617070726f766520746f2063616c6c657200000000000000600082015250565b60006152bd601983613935565b91506152c882615287565b602082019050919050565b600060208201905081810360008301526152ec816152b0565b9050919050565b7f4552433732313a207472616e7366657220746f206e6f6e20455243373231526560008201527f63656976657220696d706c656d656e7465720000000000000000000000000000602082015250565b600061534f603283613935565b915061535a826152f3565b604082019050919050565b6000602082019050818103600083015261537e81615342565b9050919050565b6000615390826138cc565b915061539b836138cc565b9250826153ab576153aa614bd3565b5b828206905092915050565b600081519050919050565b600082825260208201905092915050565b60006153dd826153b6565b6153e781856153c1565b93506153f7818560208601613946565b61540081613747565b840191505092915050565b60006080820190506154206000830187613a5f565b61542d6020830186613a5f565b61543a60408301856138d6565b818103606083015261544c81846153d2565b905095945050505050565b600081519050615466816136ae565b92915050565b60006020828403121561548257615481613678565b5b600061549084828501615457565b9150509291505056fea2646970667358221220bef45ef9eda2303e98de0829477ec023f2d3c5ebf10f87ca592afea6a93823e164736f6c63430008090033",
  "linkReferences": {},
  "deployedLinkReferences": {}
}