{
  "_format": "hh-sol-artifact-1",
  "contractName": "FlipkartItem",
  "sourceName": "contracts/FlipkartItem.sol",
  "abi": [
    {
      "inputs": [],
      "stateMutability": "nonpayable",
      "type": "constructor"
    },
    {
      "anonymous": false,
      "inputs": [
        {
          "indexed": true,
          "internalType": "address",
          "name": "owner",
          "type": "address"
        },
        {
          "indexed": true,
          "internalType": "address",
          "name": "approved",
          "type": "address"
        },
        {
          "indexed": true,
          "internalType": "uint256",
          "name": "tokenId",
          "type": "uint256"
        }
      ],
      "name": "Approval",
      "type": "event"
    },
    {
      "anonymous": false,
      "inputs": [
        {
          "indexed": true,
          "internalType": "address",
          "name": "owner",
          "type": "address"
        },
        {
          "indexed": true,
          "internalType": "address",
          "name": "operator",
          "type": "address"
        },
        {
          "indexed": false,
          "internalType": "bool",
          "name": "approved",
          "type": "bool"
        }
      ],
      "name": "ApprovalForAll",
      "type": "event"
    },
    {
      "anonymous": false,
      "inputs": [
        {
          "indexed": true,
          "internalType": "address",
          "name": "previousOwner",
          "type": "address"
        },
        {
          "indexed": true,
          "internalType": "address",
          "name": "newOwner",
          "type": "address"
        }
      ],
      "name": "OwnershipTransferred",
      "type": "event"
    },
    {
      "anonymous": false,
      "inputs": [
        {
          "indexed": true,
          "internalType": "address",
          "name": "from",
          "type": "address"
        },
        {
          "indexed": true,
          "internalType": "address",
          "name": "to",
          "type": "address"
        },
        {
          "indexed": true,
          "internalType": "uint256",
          "name": "tokenId",
          "type": "uint256"
        }
      ],
      "name": "Transfer",
      "type": "event"
    },
    {
      "inputs": [
        {
          "internalType": "string",
          "name": "serialNumber",
          "type": "string"
        },
        {
          "internalType": "uint256",
          "name": "warrantyReason",
          "type": "uint256"
        },
        {
          "internalType": "uint256",
          "name": "warrantyOutcome",
          "type": "uint256"
        }
      ],
      "name": "addWarranty",
      "outputs": [],
      "stateMutability": "nonpayable",
      "type": "function"
    },
    {
      "inputs": [
        {
          "internalType": "address",
          "name": "to",
          "type": "address"
        },
        {
          "internalType": "uint256",
          "name": "tokenId",
          "type": "uint256"
        }
      ],
      "name": "approve",
      "outputs": [],
      "stateMutability": "nonpayable",
      "type": "function"
    },
    {
      "inputs": [
        {
          "internalType": "address",
          "name": "owner",
          "type": "address"
        }
      ],
      "name": "balanceOf",
      "outputs": [
        {
          "internalType": "uint256",
          "name": "",
          "type": "uint256"
        }
      ],
      "stateMutability": "view",
      "type": "function"
    },
    {
      "inputs": [
        {
          "internalType": "uint256",
          "name": "itemId",
          "type": "uint256"
        },
        {
          "internalType": "string",
          "name": "serialNumber",
          "type": "string"
        },
        {
          "internalType": "uint256",
          "name": "tokens",
          "type": "uint256"
        }
      ],
      "name": "buyItem",
      "outputs": [],
      "stateMutability": "payable",
      "type": "function"
    },
    {
      "inputs": [
        {
          "internalType": "string",
          "name": "serialNumber",
          "type": "string"
        }
      ],
      "name": "buyResaleItem",
      "outputs": [],
      "stateMutability": "payable",
      "type": "function"
    },
    {
      "inputs": [
        {
          "internalType": "string",
          "name": "itemURI",
          "type": "string"
        },
        {
          "internalType": "uint256",
          "name": "value",
          "type": "uint256"
        },
        {
          "internalType": "uint256",
          "name": "warrantyPeriod",
          "type": "uint256"
        },
        {
          "internalType": "bool",
          "name": "isSoulbound",
          "type": "bool"
        }
      ],
      "name": "createItem",
      "outputs": [],
      "stateMutability": "nonpayable",
      "type": "function"
    },
    {
      "inputs": [],
      "name": "getAllItems",
      "outputs": [
        {
          "components": [
            {
              "internalType": "uint256",
              "name": "itemId",
              "type": "uint256"
            },
            {
              "internalType": "string",
              "name": "itemURI",
              "type": "string"
            },
            {
              "internalType": "uint256",
              "name": "value",
              "type": "uint256"
            },
            {
              "internalType": "uint256",
              "name": "warrantyPeriod",
              "type": "uint256"
            },
            {
              "internalType": "bool",
              "name": "isSoulbound",
              "type": "bool"
            }
          ],
          "internalType": "struct FlipkartItem.Item[]",
          "name": "",
          "type": "tuple[]"
        }
      ],
      "stateMutability": "view",
      "type": "function"
    },
    {
      "inputs": [
        {
          "internalType": "uint256",
          "name": "tokenId",
          "type": "uint256"
        }
      ],
      "name": "getApproved",
      "outputs": [
        {
          "internalType": "address",
          "name": "",
          "type": "address"
        }
      ],
      "stateMutability": "view",
      "type": "function"
    },
    {
      "inputs": [
        {
          "internalType": "string",
          "name": "serialNumber",
          "type": "string"
        }
      ],
      "name": "getItemOwners",
      "outputs": [
        {
          "internalType": "address[]",
          "name": "",
          "type": "address[]"
        }
      ],
      "stateMutability": "view",
      "type": "function"
    },
    {
      "inputs": [
        {
          "internalType": "string",
          "name": "serialNumber",
          "type": "string"
        },
        {
          "internalType": "uint256",
          "name": "index",
          "type": "uint256"
        }
      ],
      "name": "getItemWarranty",
      "outputs": [
        {
          "components": [
            {
              "internalType": "enum FlipkartItem.WarrantyReason",
              "name": "reason",
              "type": "uint8"
            },
            {
              "internalType": "enum FlipkartItem.WarrantyOutcome",
              "name": "outcome",
              "type": "uint8"
            },
            {
              "internalType": "uint256",
              "name": "timestamp",
              "type": "uint256"
            }
          ],
          "internalType": "struct FlipkartItem.WarrantyInfo",
          "name": "",
          "type": "tuple"
        }
      ],
      "stateMutability": "view",
      "type": "function"
    },
    {
      "inputs": [
        {
          "internalType": "string",
          "name": "serialNumber",
          "type": "string"
        }
      ],
      "name": "getItemWarrantyLength",
      "outputs": [
        {
          "internalType": "uint256",
          "name": "",
          "type": "uint256"
        }
      ],
      "stateMutability": "view",
      "type": "function"
    },
    {
      "inputs": [],
      "name": "getResaleItems",
      "outputs": [
        {
          "components": [
            {
              "internalType": "uint256",
              "name": "itemId",
              "type": "uint256"
            },
            {
              "internalType": "uint256",
              "name": "creationTime",
              "type": "uint256"
            },
            {
              "internalType": "address[]",
              "name": "ownerHistory",
              "type": "address[]"
            },
            {
              "internalType": "bool",
              "name": "availableForResale",
              "type": "bool"
            },
            {
              "internalType": "uint256",
              "name": "resaleValue",
              "type": "uint256"
            }
          ],
          "internalType": "struct FlipkartItem.ItemInfo[]",
          "name": "",
          "type": "tuple[]"
        }
      ],
      "stateMutability": "view",
      "type": "function"
    },
    {
      "inputs": [],
      "name": "getSerialNumbersLength",
      "outputs": [
        {
          "internalType": "uint256",
          "name": "",
          "type": "uint256"
        }
      ],
      "stateMutability": "view",
      "type": "function"
    },
    {
      "inputs": [
        {
          "internalType": "string",
          "name": "serialNumber",
          "type": "string"
        }
      ],
      "name": "hashString",
      "outputs": [
        {
          "internalType": "uint256",
          "name": "",
          "type": "uint256"
        }
      ],
      "stateMutability": "pure",
      "type": "function"
    },
    {
      "inputs": [
        {
          "internalType": "address",
          "name": "owner",
          "type": "address"
        },
        {
          "internalType": "address",
          "name": "operator",
          "type": "address"
        }
      ],
      "name": "isApprovedForAll",
      "outputs": [
        {
          "internalType": "bool",
          "name": "",
          "type": "bool"
        }
      ],
      "stateMutability": "view",
      "type": "function"
    },
    {
      "inputs": [
        {
          "internalType": "string",
          "name": "serialNumber",
          "type": "string"
        }
      ],
      "name": "isWarrantyExpired",
      "outputs": [
        {
          "internalType": "bool",
          "name": "",
          "type": "bool"
        }
      ],
      "stateMutability": "view",
      "type": "function"
    },
    {
      "inputs": [
        {
          "internalType": "uint256",
          "name": "",
          "type": "uint256"
        }
      ],
      "name": "items",
      "outputs": [
        {
          "internalType": "uint256",
          "name": "itemId",
          "type": "uint256"
        },
        {
          "internalType": "string",
          "name": "itemURI",
          "type": "string"
        },
        {
          "internalType": "uint256",
          "name": "value",
          "type": "uint256"
        },
        {
          "internalType": "uint256",
          "name": "warrantyPeriod",
          "type": "uint256"
        },
        {
          "internalType": "bool",
          "name": "isSoulbound",
          "type": "bool"
        }
      ],
      "stateMutability": "view",
      "type": "function"
    },
    {
      "inputs": [],
      "name": "name",
      "outputs": [
        {
          "internalType": "string",
          "name": "",
          "type": "string"
        }
      ],
      "stateMutability": "view",
      "type": "function"
    },
    {
      "inputs": [],
      "name": "owner",
      "outputs": [
        {
          "internalType": "address",
          "name": "",
          "type": "address"
        }
      ],
      "stateMutability": "view",
      "type": "function"
    },
    {
      "inputs": [
        {
          "internalType": "uint256",
          "name": "tokenId",
          "type": "uint256"
        }
      ],
      "name": "ownerOf",
      "outputs": [
        {
          "internalType": "address",
          "name": "",
          "type": "address"
        }
      ],
      "stateMutability": "view",
      "type": "function"
    },
    {
      "inputs": [
        {
          "internalType": "address",
          "name": "",
          "type": "address"
        }
      ],
      "name": "plusCoins",
      "outputs": [
        {
          "internalType": "uint256",
          "name": "",
          "type": "uint256"
        }
      ],
      "stateMutability": "view",
      "type": "function"
    },
    {
      "inputs": [
        {
          "internalType": "string",
          "name": "",
          "type": "string"
        }
      ],
      "name": "purchasedItems",
      "outputs": [
        {
          "internalType": "uint256",
          "name": "itemId",
          "type": "uint256"
        },
        {
          "internalType": "uint256",
          "name": "creationTime",
          "type": "uint256"
        },
        {
          "internalType": "bool",
          "name": "availableForResale",
          "type": "bool"
        },
        {
          "internalType": "uint256",
          "name": "resaleValue",
          "type": "uint256"
        }
      ],
      "stateMutability": "view",
      "type": "function"
    },
    {
      "inputs": [
        {
          "internalType": "string",
          "name": "serialNumber",
          "type": "string"
        },
        {
          "internalType": "uint256",
          "name": "resaleValue",
          "type": "uint256"
        }
      ],
      "name": "putForResale",
      "outputs": [],
      "stateMutability": "nonpayable",
      "type": "function"
    },
    {
      "inputs": [],
      "name": "renounceOwnership",
      "outputs": [],
      "stateMutability": "nonpayable",
      "type": "function"
    },
    {
      "inputs": [
        {
          "internalType": "address",
          "name": "from",
          "type": "address"
        },
        {
          "internalType": "address",
          "name": "to",
          "type": "address"
        },
        {
          "internalType": "uint256",
          "name": "tokenId",
          "type": "uint256"
        }
      ],
      "name": "safeTransferFrom",
      "outputs": [],
      "stateMutability": "nonpayable",
      "type": "function"
    },
    {
      "inputs": [
        {
          "internalType": "address",
          "name": "from",
          "type": "address"
        },
        {
          "internalType": "address",
          "name": "to",
          "type": "address"
        },
        {
          "internalType": "uint256",
          "name": "tokenId",
          "type": "uint256"
        },
        {
          "internalType": "bytes",
          "name": "data",
          "type": "bytes"
        }
      ],
      "name": "safeTransferFrom",
      "outputs": [],
      "stateMutability": "nonpayable",
      "type": "function"
    },
    {
      "inputs": [
        {
          "internalType": "uint256",
          "name": "",
          "type": "uint256"
        }
      ],
      "name": "serialNumbers",
      "outputs": [
        {
          "internalType": "string",
          "name": "",
          "type": "string"
        }
      ],
      "stateMutability": "view",
      "type": "function"
    },
    {
      "inputs": [
        {
          "internalType": "address",
          "name": "operator",
          "type": "address"
        },
        {
          "internalType": "bool",
          "name": "approved",
          "type": "bool"
        }
      ],
      "name": "setApprovalForAll",
      "outputs": [],
      "stateMutability": "nonpayable",
      "type": "function"
    },
    {
      "inputs": [
        {
          "internalType": "string",
          "name": "serialNumber",
          "type": "string"
        },
        {
          "internalType": "uint256",
          "name": "value",
          "type": "uint256"
        }
      ],
      "name": "setResaleValue",
      "outputs": [],
      "stateMutability": "nonpayable",
      "type": "function"
    },
    {
      "inputs": [
        {
          "internalType": "bytes4",
          "name": "interfaceId",
          "type": "bytes4"
        }
      ],
      "name": "supportsInterface",
      "outputs": [
        {
          "internalType": "bool",
          "name": "",
          "type": "bool"
        }
      ],
      "stateMutability": "view",
      "type": "function"
    },
    {
      "inputs": [],
      "name": "symbol",
      "outputs": [
        {
          "internalType": "string",
          "name": "",
          "type": "string"
        }
      ],
      "stateMutability": "view",
      "type": "function"
    },
    {
      "inputs": [
        {
          "internalType": "uint256",
          "name": "tokenId",
          "type": "uint256"
        }
      ],
      "name": "tokenURI",
      "outputs": [
        {
          "internalType": "string",
          "name": "",
          "type": "string"
        }
      ],
      "stateMutability": "view",
      "type": "function"
    },
    {
      "inputs": [],
      "name": "totalItems",
      "outputs": [
        {
          "internalType": "uint256",
          "name": "",
          "type": "uint256"
        }
      ],
      "stateMutability": "view",
      "type": "function"
    },
    {
      "inputs": [
        {
          "internalType": "address",
          "name": "from",
          "type": "address"
        },
        {
          "internalType": "address",
          "name": "to",
          "type": "address"
        },
        {
          "internalType": "uint256",
          "name": "tokenId",
          "type": "uint256"
        }
      ],
      "name": "transferFrom",
      "outputs": [],
      "stateMutability": "nonpayable",
      "type": "function"
    },
    {
      "inputs": [
        {
          "internalType": "address",
          "name": "newOwner",
          "type": "address"
        }
      ],
      "name": "transferOwnership",
      "outputs": [],
      "stateMutability": "nonpayable",
      "type": "function"
    },
    {
      "inputs": [
        {
          "internalType": "string",
          "name": "",
          "type": "string"
        },
        {
          "internalType": "uint256",
          "name": "",
          "type": "uint256"
        }
      ],
      "name": "warrantyInfos",
      "outputs": [
        {
          "internalType": "enum FlipkartItem.WarrantyReason",
          "name": "reason",
          "type": "uint8"
        },
        {
          "internalType": "enum FlipkartItem.WarrantyOutcome",
          "name": "outcome",
          "type": "uint8"
        },
        {
          "internalType": "uint256",
          "name": "timestamp",
          "type": "uint256"
        }
      ],
      "stateMutability": "view",
      "type": "function"
    },
    {
      "inputs": [],
      "name": "withdraw",
      "outputs": [],
      "stateMutability": "nonpayable",
      "type": "function"
    }
  ],
  "bytecode": "0x60806040523480156200001157600080fd5b506040518060400160405280600881526020017f466c69704974656d0000000000000000000000000000000000000000000000008152506040518060400160405280600481526020017f464c495000000000000000000000000000000000000000000000000000000000815250816000908051906020019062000096929190620001a6565b508060019080519060200190620000af929190620001a6565b505050620000d2620000c6620000d860201b60201c565b620000e060201b60201c565b620002bb565b600033905090565b6000600660009054906101000a900473ffffffffffffffffffffffffffffffffffffffff16905081600660006101000a81548173ffffffffffffffffffffffffffffffffffffffff021916908373ffffffffffffffffffffffffffffffffffffffff1602179055508173ffffffffffffffffffffffffffffffffffffffff168173ffffffffffffffffffffffffffffffffffffffff167f8be0079c531659141344cd1fd0a4f28419497f9722a3daafe3b4186f6b6457e060405160405180910390a35050565b828054620001b49062000285565b90600052602060002090601f016020900481019282620001d8576000855562000224565b82601f10620001f357805160ff191683800117855562000224565b8280016001018555821562000224579182015b828111156200022357825182559160200191906001019062000206565b5b50905062000233919062000237565b5090565b5b808211156200025257600081600090555060010162000238565b5090565b7f4e487b7100000000000000000000000000000000000000000000000000000000600052602260045260246000fd5b600060028204905060018216806200029e57607f821691505b60208210811415620002b557620002b462000256565b5b50919050565b61545580620002cb6000396000f3fe60806040526004361061021a5760003560e01c8063766954b411610123578063b88d4fde116100ab578063e985e9c51161006f578063e985e9c51461083b578063eb1b666414610878578063eeae434f14610894578063f2fde38b146108d3578063f973b86c146108fc5761021a565b8063b88d4fde1461072c578063bfb231d214610755578063c6f4cd6014610796578063c87b56dd146107d3578063d64473c6146108105761021a565b8063940effae116100f2578063940effae1461063557806395d89b4114610672578063a22cb4651461069d578063a69eac32146106c6578063b41f6785146106ef5761021a565b8063766954b4146105655780637db7964f146105a257806381fbd329146105cd5780638da5cb5b1461060a5761021a565b8063352b6dc3116101a65780634a7a3a2f116101755780634a7a3a2f1461048d5780634ba1d6aa146104a95780636352211e146104d457806370a0823114610511578063715018a61461054e5761021a565b8063352b6dc3146103e7578063398395ff146104105780633ccfd60b1461044d57806342842e0e146104645761021a565b8063095ea7b3116101ed578063095ea7b31461030457806322c53c761461032d57806323b872dd146103565780632799276d1461037f57806333f989e2146103aa5761021a565b806301ffc9a71461021f57806304565c441461025c57806306fdde031461029c578063081812fc146102c7575b600080fd5b34801561022b57600080fd5b5061024660048036038101906102419190613660565b610925565b60405161025391906136a8565b60405180910390f35b34801561026857600080fd5b50610283600480360381019061027e9190613809565b610a07565b604051610293949392919061386b565b60405180910390f35b3480156102a857600080fd5b506102b1610a5a565b6040516102be9190613938565b60405180910390f35b3480156102d357600080fd5b506102ee60048036038101906102e99190613986565b610aec565b6040516102fb91906139f4565b60405180910390f35b34801561031057600080fd5b5061032b60048036038101906103269190613a3b565b610b32565b005b34801561033957600080fd5b50610354600480360381019061034f9190613a7b565b610c4a565b005b34801561036257600080fd5b5061037d60048036038101906103789190613ad7565b610e00565b005b34801561038b57600080fd5b50610394610e60565b6040516103a19190613b2a565b60405180910390f35b3480156103b657600080fd5b506103d160048036038101906103cc9190613b45565b610e71565b6040516103de9190613b2a565b60405180910390f35b3480156103f357600080fd5b5061040e60048036038101906104099190613b9e565b610e89565b005b34801561041c57600080fd5b5061043760048036038101906104329190613809565b610f5b565b6040516104449190613b2a565b60405180910390f35b34801561045957600080fd5b50610462610fce565b005b34801561047057600080fd5b5061048b60048036038101906104869190613ad7565b611026565b005b6104a760048036038101906104a29190613c21565b611046565b005b3480156104b557600080fd5b506104be611445565b6040516104cb9190613e30565b60405180910390f35b3480156104e057600080fd5b506104fb60048036038101906104f69190613986565b61156f565b60405161050891906139f4565b60405180910390f35b34801561051d57600080fd5b5061053860048036038101906105339190613b45565b611621565b6040516105459190613b2a565b60405180910390f35b34801561055a57600080fd5b506105636116d9565b005b34801561057157600080fd5b5061058c60048036038101906105879190613809565b6116ed565b6040516105999190613b2a565b60405180910390f35b3480156105ae57600080fd5b506105b7611720565b6040516105c49190614048565b60405180910390f35b3480156105d957600080fd5b506105f460048036038101906105ef9190613986565b6118db565b6040516106019190613938565b60405180910390f35b34801561061657600080fd5b5061061f611987565b60405161062c91906139f4565b60405180910390f35b34801561064157600080fd5b5061065c60048036038101906106579190613a7b565b6119b1565b604051610669919061416b565b60405180910390f35b34801561067e57600080fd5b50610687611ad2565b6040516106949190613938565b60405180910390f35b3480156106a957600080fd5b506106c460048036038101906106bf9190614186565b611b64565b005b3480156106d257600080fd5b506106ed60048036038101906106e891906141c6565b611b7a565b005b3480156106fb57600080fd5b5061071660048036038101906107119190613809565b611ce5565b60405161072391906136a8565b60405180910390f35b34801561073857600080fd5b50610753600480360381019061074e91906142d6565b611d63565b005b34801561076157600080fd5b5061077c60048036038101906107779190613986565b611dc5565b60405161078d959493929190614359565b60405180910390f35b3480156107a257600080fd5b506107bd60048036038101906107b89190613809565b611ea0565b6040516107ca9190614422565b60405180910390f35b3480156107df57600080fd5b506107fa60048036038101906107f59190613986565b611f97565b6040516108079190613938565b60405180910390f35b34801561081c57600080fd5b50610825611fff565b6040516108329190613b2a565b60405180910390f35b34801561084757600080fd5b50610862600480360381019061085d9190614444565b61200c565b60405161086f91906136a8565b60405180910390f35b610892600480360381019061088d9190613809565b6120a0565b005b3480156108a057600080fd5b506108bb60048036038101906108b69190613a7b565b6122e0565b6040516108ca939291906144a2565b60405180910390f35b3480156108df57600080fd5b506108fa60048036038101906108f59190613b45565b612357565b005b34801561090857600080fd5b50610923600480360381019061091e9190613a7b565b6123db565b005b60007f80ac58cd000000000000000000000000000000000000000000000000000000007bffffffffffffffffffffffffffffffffffffffffffffffffffffffff1916827bffffffffffffffffffffffffffffffffffffffffffffffffffffffff191614806109f057507f5b5e139f000000000000000000000000000000000000000000000000000000007bffffffffffffffffffffffffffffffffffffffffffffffffffffffff1916827bffffffffffffffffffffffffffffffffffffffffffffffffffffffff1916145b80610a0057506109ff826124c3565b5b9050919050565b600a818051602081018201805184825260208301602085012081835280955050505050506000915090508060000154908060010154908060030160009054906101000a900460ff16908060040154905084565b606060008054610a6990614508565b80601f0160208091040260200160405190810160405280929190818152602001828054610a9590614508565b8015610ae25780601f10610ab757610100808354040283529160200191610ae2565b820191906000526020600020905b815481529060010190602001808311610ac557829003601f168201915b5050505050905090565b6000610af78261252d565b6004600083815260200190815260200160002060009054906101000a900473ffffffffffffffffffffffffffffffffffffffff169050919050565b6000610b3d8261156f565b90508073ffffffffffffffffffffffffffffffffffffffff168373ffffffffffffffffffffffffffffffffffffffff161415610bae576040517f08c379a0000000000000000000000000000000000000000000000000000000008152600401610ba5906145ac565b60405180910390fd5b8073ffffffffffffffffffffffffffffffffffffffff16610bcd612578565b73ffffffffffffffffffffffffffffffffffffffff161480610bfc5750610bfb81610bf6612578565b61200c565b5b610c3b576040517f08c379a0000000000000000000000000000000000000000000000000000000008152600401610c329061463e565b60405180910390fd5b610c458383612580565b505050565b610c5382612639565b610c92576040517f08c379a0000000000000000000000000000000000000000000000000000000008152600401610c89906146aa565b60405180910390fd5b610c9b82612727565b73ffffffffffffffffffffffffffffffffffffffff163373ffffffffffffffffffffffffffffffffffffffff1614610d08576040517f08c379a0000000000000000000000000000000000000000000000000000000008152600401610cff90614716565b60405180910390fd5b6009600a83604051610d1a9190614772565b90815260200160405180910390206000015481548110610d3d57610d3c614789565b5b906000526020600020906005020160040160009054906101000a900460ff1615610d9c576040517f08c379a0000000000000000000000000000000000000000000000000000000008152600401610d939061482a565b60405180910390fd5b6001600a83604051610dae9190614772565b908152602001604051809103902060030160006101000a81548160ff02191690831515021790555080600a83604051610de79190614772565b9081526020016040518091039020600401819055505050565b610e11610e0b612578565b826127be565b610e50576040517f08c379a0000000000000000000000000000000000000000000000000000000008152600401610e47906148bc565b60405180910390fd5b610e5b838383612853565b505050565b6000610e6c6007612aba565b905090565b600c6020528060005260406000206000915090505481565b610e91612ac8565b60096040518060a00160405280610ea86007612aba565b81526020018681526020018581526020018481526020018315158152509080600181540180825580915050600190039060005260206000209060050201600090919091909150600082015181600001556020820151816001019080519060200190610f14929190613451565b50604082015181600201556060820151816003015560808201518160040160006101000a81548160ff0219169083151502179055505050610f556007612b46565b50505050565b6000610f6682612639565b610fa5576040517f08c379a0000000000000000000000000000000000000000000000000000000008152600401610f9c906146aa565b60405180910390fd5b600882604051610fb59190614772565b9081526020016040518091039020805490509050919050565b610fd6612ac8565b610fde611987565b73ffffffffffffffffffffffffffffffffffffffff166108fc479081150290604051600060405180830381858888f19350505050158015611023573d6000803e3d6000fd5b50565b61104183838360405180602001604052806000815250611d63565b505050565b600980549050831061108d576040517f08c379a0000000000000000000000000000000000000000000000000000000008152600401611084906146aa565b60405180910390fd5b61109682612639565b156110d6576040517f08c379a00000000000000000000000000000000000000000000000000000000081526004016110cd90614928565b60405180910390fd5b600983815481106110ea576110e9614789565b5b90600052602060002090600502016002015464e8d4a510008261110d9190614977565b3461111891906149d1565b14611158576040517f08c379a000000000000000000000000000000000000000000000000000000000815260040161114f90614a73565b60405180910390fd5b600c60003373ffffffffffffffffffffffffffffffffffffffff1673ffffffffffffffffffffffffffffffffffffffff168152602001908152602001600020548111156111da576040517f08c379a00000000000000000000000000000000000000000000000000000000081526004016111d190614b05565b60405180910390fd5b6111e26134d7565b838160000181815250504281602001818152505060008160600190151590811515815250506009848154811061121b5761121a614789565b5b90600052602060002090600502016002015481608001818152505080600a846040516112479190614772565b908152602001604051809103902060008201518160000155602082015181600101556040820151816002019080519060200190611285929190613508565b5060608201518160030160006101000a81548160ff02191690831515021790555060808201518160040155905050600a836040516112c39190614772565b9081526020016040518091039020600201339080600181540180825580915050600190039060005260206000200160009091909190916101000a81548173ffffffffffffffffffffffffffffffffffffffff021916908373ffffffffffffffffffffffffffffffffffffffff160217905550600b83908060018154018082558091505060019003906000526020600020016000909190919091509080519060200190611370929190613451565b506113833361137e856116ed565b612b5c565b81600c60003373ffffffffffffffffffffffffffffffffffffffff1673ffffffffffffffffffffffffffffffffffffffff16815260200190815260200160002060008282546113d29190614b25565b9250508190555064e8d4a51000346113ea9190614b88565b600c60003373ffffffffffffffffffffffffffffffffffffffff1673ffffffffffffffffffffffffffffffffffffffff168152602001908152602001600020600082825461143891906149d1565b9250508190555050505050565b60606009805480602002602001604051908101604052809291908181526020016000905b8282101561156657838290600052602060002090600502016040518060a0016040529081600082015481526020016001820180546114a690614508565b80601f01602080910402602001604051908101604052809291908181526020018280546114d290614508565b801561151f5780601f106114f45761010080835404028352916020019161151f565b820191906000526020600020905b81548152906001019060200180831161150257829003601f168201915b5050505050815260200160028201548152602001600382015481526020016004820160009054906101000a900460ff16151515158152505081526020019060010190611469565b50505050905090565b6000806002600084815260200190815260200160002060009054906101000a900473ffffffffffffffffffffffffffffffffffffffff169050600073ffffffffffffffffffffffffffffffffffffffff168173ffffffffffffffffffffffffffffffffffffffff161415611618576040517f08c379a000000000000000000000000000000000000000000000000000000000815260040161160f90614c05565b60405180910390fd5b80915050919050565b60008073ffffffffffffffffffffffffffffffffffffffff168273ffffffffffffffffffffffffffffffffffffffff161415611692576040517f08c379a000000000000000000000000000000000000000000000000000000000815260040161168990614c97565b60405180910390fd5b600360008373ffffffffffffffffffffffffffffffffffffffff1673ffffffffffffffffffffffffffffffffffffffff168152602001908152602001600020549050919050565b6116e1612ac8565b6116eb6000612d36565b565b6000816040516020016117009190614772565b6040516020818303038152906040528051906020012060001c9050919050565b6060806000805b600b805490508110156118d257600a600b828154811061174a57611749614789565b5b906000526020600020016040516117619190614d4b565b908152602001604051809103902060030160009054906101000a900460ff16156118bf57600a600b828154811061179b5761179a614789565b5b906000526020600020016040516117b29190614d4b565b90815260200160405180910390206040518060a001604052908160008201548152602001600182015481526020016002820180548060200260200160405190810160405280929190818152602001828054801561186457602002820191906000526020600020905b8160009054906101000a900473ffffffffffffffffffffffffffffffffffffffff1673ffffffffffffffffffffffffffffffffffffffff168152602001906001019080831161181a575b505050505081526020016003820160009054906101000a900460ff161515151581526020016004820154815250508383815181106118a5576118a4614789565b5b602002602001018190525081806118bb90614d62565b9250505b80806118ca90614d62565b915050611727565b50819250505090565b600b81815481106118eb57600080fd5b90600052602060002001600091509050805461190690614508565b80601f016020809104026020016040519081016040528092919081815260200182805461193290614508565b801561197f5780601f106119545761010080835404028352916020019161197f565b820191906000526020600020905b81548152906001019060200180831161196257829003601f168201915b505050505081565b6000600660009054906101000a900473ffffffffffffffffffffffffffffffffffffffff16905090565b6119b9613592565b6119c283612639565b611a01576040517f08c379a00000000000000000000000000000000000000000000000000000000081526004016119f8906146aa565b60405180910390fd5b600883604051611a119190614772565b90815260200160405180910390208281548110611a3157611a30614789565b5b90600052602060002090600202016040518060600160405290816000820160009054906101000a900460ff166002811115611a6f57611a6e61406a565b5b6002811115611a8157611a8061406a565b5b81526020016000820160019054906101000a900460ff166001811115611aaa57611aa961406a565b5b6001811115611abc57611abb61406a565b5b8152602001600182015481525050905092915050565b606060018054611ae190614508565b80601f0160208091040260200160405190810160405280929190818152602001828054611b0d90614508565b8015611b5a5780601f10611b2f57610100808354040283529160200191611b5a565b820191906000526020600020905b815481529060010190602001808311611b3d57829003601f168201915b5050505050905090565b611b76611b6f612578565b8383612dfc565b5050565b611b82612ac8565b611b8b83611ce5565b611bca576040517f08c379a0000000000000000000000000000000000000000000000000000000008152600401611bc190614df7565b60405180910390fd5b600883604051611bda9190614772565b90815260200160405180910390206040518060600160405280846002811115611c0657611c0561406a565b5b6002811115611c1857611c1761406a565b5b8152602001836001811115611c3057611c2f61406a565b5b6001811115611c4257611c4161406a565b5b815260200142815250908060018154018082558091505060019003906000526020600020906002020160009091909190915060008201518160000160006101000a81548160ff02191690836002811115611c9f57611c9e61406a565b5b021790555060208201518160000160016101000a81548160ff02191690836001811115611ccf57611cce61406a565b5b0217905550604082015181600101555050505050565b6000426009600a84604051611cfa9190614772565b90815260200160405180910390206000015481548110611d1d57611d1c614789565b5b906000526020600020906005020160030154600a84604051611d3f9190614772565b908152602001604051809103902060010154611d5b91906149d1565b119050919050565b611d74611d6e612578565b836127be565b611db3576040517f08c379a0000000000000000000000000000000000000000000000000000000008152600401611daa906148bc565b60405180910390fd5b611dbf84848484612f69565b50505050565b60098181548110611dd557600080fd5b9060005260206000209060050201600091509050806000015490806001018054611dfe90614508565b80601f0160208091040260200160405190810160405280929190818152602001828054611e2a90614508565b8015611e775780601f10611e4c57610100808354040283529160200191611e77565b820191906000526020600020905b815481529060010190602001808311611e5a57829003601f168201915b5050505050908060020154908060030154908060040160009054906101000a900460ff16905085565b6060611eab82612639565b611eea576040517f08c379a0000000000000000000000000000000000000000000000000000000008152600401611ee1906146aa565b60405180910390fd5b600a82604051611efa9190614772565b9081526020016040518091039020600201805480602002602001604051908101604052809291908181526020018280548015611f8b57602002820191906000526020600020905b8160009054906101000a900473ffffffffffffffffffffffffffffffffffffffff1673ffffffffffffffffffffffffffffffffffffffff1681526020019060010190808311611f41575b50505050509050919050565b6060611fa28261252d565b6000611fac612fc5565b90506000815111611fcc5760405180602001604052806000815250611ff7565b80611fd684612fdc565b604051602001611fe7929190614e17565b6040516020818303038152906040525b915050919050565b6000600b80549050905090565b6000600560008473ffffffffffffffffffffffffffffffffffffffff1673ffffffffffffffffffffffffffffffffffffffff16815260200190815260200160002060008373ffffffffffffffffffffffffffffffffffffffff1673ffffffffffffffffffffffffffffffffffffffff16815260200190815260200160002060009054906101000a900460ff16905092915050565b6120a981612639565b6120e8576040517f08c379a00000000000000000000000000000000000000000000000000000000081526004016120df906146aa565b60405180910390fd5b600a816040516120f89190614772565b908152602001604051809103902060030160009054906101000a900460ff16612156576040517f08c379a000000000000000000000000000000000000000000000000000000000815260040161214d90614e87565b60405180910390fd5b34600a826040516121679190614772565b908152602001604051809103902060040154146121b9576040517f08c379a00000000000000000000000000000000000000000000000000000000081526004016121b090614a73565b60405180910390fd5b60006121c482612727565b90508073ffffffffffffffffffffffffffffffffffffffff166108fc349081150290604051600060405180830381858888f1935050505015801561220c573d6000803e3d6000fd5b50612220813361221b856116ed565b612853565b6000600a836040516122329190614772565b908152602001604051809103902060030160006101000a81548160ff021916908315150217905550600a8260405161226a9190614772565b9081526020016040518091039020600201339080600181540180825580915050600190039060005260206000200160009091909190916101000a81548173ffffffffffffffffffffffffffffffffffffffff021916908373ffffffffffffffffffffffffffffffffffffffff1602179055505050565b600882805160208101820180518482526020830160208501208183528095505050505050818154811061231257600080fd5b9060005260206000209060020201600091509150508060000160009054906101000a900460ff16908060000160019054906101000a900460ff16908060010154905083565b61235f612ac8565b600073ffffffffffffffffffffffffffffffffffffffff168173ffffffffffffffffffffffffffffffffffffffff1614156123cf576040517f08c379a00000000000000000000000000000000000000000000000000000000081526004016123c690614f19565b60405180910390fd5b6123d881612d36565b50565b6123e482612639565b612423576040517f08c379a000000000000000000000000000000000000000000000000000000000815260040161241a906146aa565b60405180910390fd5b61242c82612727565b73ffffffffffffffffffffffffffffffffffffffff163373ffffffffffffffffffffffffffffffffffffffff1614612499576040517f08c379a000000000000000000000000000000000000000000000000000000000815260040161249090614f85565b60405180910390fd5b80600a836040516124aa9190614772565b9081526020016040518091039020600401819055505050565b60007f01ffc9a7000000000000000000000000000000000000000000000000000000007bffffffffffffffffffffffffffffffffffffffffffffffffffffffff1916827bffffffffffffffffffffffffffffffffffffffffffffffffffffffff1916149050919050565b6125368161313d565b612575576040517f08c379a000000000000000000000000000000000000000000000000000000000815260040161256c90614c05565b60405180910390fd5b50565b600033905090565b816004600083815260200190815260200160002060006101000a81548173ffffffffffffffffffffffffffffffffffffffff021916908373ffffffffffffffffffffffffffffffffffffffff160217905550808273ffffffffffffffffffffffffffffffffffffffff166125f38361156f565b73ffffffffffffffffffffffffffffffffffffffff167f8c5be1e5ebec7d5bd14f71427d1e84f3dd0314c0f7b2291e5b200ac8c7c3b92560405160405180910390a45050565b60008060005b600b8054905081101561271d576126fc600b828154811061266357612662614789565b5b90600052602060002001805461267890614508565b80601f01602080910402602001604051908101604052809291908181526020018280546126a490614508565b80156126f15780601f106126c6576101008083540402835291602001916126f1565b820191906000526020600020905b8154815290600101906020018083116126d457829003601f168201915b5050505050856131a9565b1561270a576001915061271d565b808061271590614d62565b91505061263f565b5080915050919050565b6000600a826040516127399190614772565b90815260200160405180910390206002016001600a8460405161275c9190614772565b90815260200160405180910390206002018054905061277b9190614b25565b8154811061278c5761278b614789565b5b9060005260206000200160009054906101000a900473ffffffffffffffffffffffffffffffffffffffff169050919050565b6000806127ca8361156f565b90508073ffffffffffffffffffffffffffffffffffffffff168473ffffffffffffffffffffffffffffffffffffffff16148061280c575061280b818561200c565b5b8061284a57508373ffffffffffffffffffffffffffffffffffffffff1661283284610aec565b73ffffffffffffffffffffffffffffffffffffffff16145b91505092915050565b8273ffffffffffffffffffffffffffffffffffffffff166128738261156f565b73ffffffffffffffffffffffffffffffffffffffff16146128c9576040517f08c379a00000000000000000000000000000000000000000000000000000000081526004016128c090615017565b60405180910390fd5b600073ffffffffffffffffffffffffffffffffffffffff168273ffffffffffffffffffffffffffffffffffffffff161415612939576040517f08c379a0000000000000000000000000000000000000000000000000000000008152600401612930906150a9565b60405180910390fd5b61294483838361328d565b61294f600082612580565b6001600360008573ffffffffffffffffffffffffffffffffffffffff1673ffffffffffffffffffffffffffffffffffffffff168152602001908152602001600020600082825461299f9190614b25565b925050819055506001600360008473ffffffffffffffffffffffffffffffffffffffff1673ffffffffffffffffffffffffffffffffffffffff16815260200190815260200160002060008282546129f691906149d1565b92505081905550816002600083815260200190815260200160002060006101000a81548173ffffffffffffffffffffffffffffffffffffffff021916908373ffffffffffffffffffffffffffffffffffffffff160217905550808273ffffffffffffffffffffffffffffffffffffffff168473ffffffffffffffffffffffffffffffffffffffff167fddf252ad1be2c89b69c2b068fc378daa952ba7f163c4a11628f55a4df523b3ef60405160405180910390a4612ab5838383613292565b505050565b600081600001549050919050565b612ad0612578565b73ffffffffffffffffffffffffffffffffffffffff16612aee611987565b73ffffffffffffffffffffffffffffffffffffffff1614612b44576040517f08c379a0000000000000000000000000000000000000000000000000000000008152600401612b3b90615115565b60405180910390fd5b565b6001816000016000828254019250508190555050565b600073ffffffffffffffffffffffffffffffffffffffff168273ffffffffffffffffffffffffffffffffffffffff161415612bcc576040517f08c379a0000000000000000000000000000000000000000000000000000000008152600401612bc390615181565b60405180910390fd5b612bd58161313d565b15612c15576040517f08c379a0000000000000000000000000000000000000000000000000000000008152600401612c0c906151ed565b60405180910390fd5b612c216000838361328d565b6001600360008473ffffffffffffffffffffffffffffffffffffffff1673ffffffffffffffffffffffffffffffffffffffff1681526020019081526020016000206000828254612c7191906149d1565b92505081905550816002600083815260200190815260200160002060006101000a81548173ffffffffffffffffffffffffffffffffffffffff021916908373ffffffffffffffffffffffffffffffffffffffff160217905550808273ffffffffffffffffffffffffffffffffffffffff16600073ffffffffffffffffffffffffffffffffffffffff167fddf252ad1be2c89b69c2b068fc378daa952ba7f163c4a11628f55a4df523b3ef60405160405180910390a4612d3260008383613292565b5050565b6000600660009054906101000a900473ffffffffffffffffffffffffffffffffffffffff16905081600660006101000a81548173ffffffffffffffffffffffffffffffffffffffff021916908373ffffffffffffffffffffffffffffffffffffffff1602179055508173ffffffffffffffffffffffffffffffffffffffff168173ffffffffffffffffffffffffffffffffffffffff167f8be0079c531659141344cd1fd0a4f28419497f9722a3daafe3b4186f6b6457e060405160405180910390a35050565b8173ffffffffffffffffffffffffffffffffffffffff168373ffffffffffffffffffffffffffffffffffffffff161415612e6b576040517f08c379a0000000000000000000000000000000000000000000000000000000008152600401612e6290615259565b60405180910390fd5b80600560008573ffffffffffffffffffffffffffffffffffffffff1673ffffffffffffffffffffffffffffffffffffffff16815260200190815260200160002060008473ffffffffffffffffffffffffffffffffffffffff1673ffffffffffffffffffffffffffffffffffffffff16815260200190815260200160002060006101000a81548160ff0219169083151502179055508173ffffffffffffffffffffffffffffffffffffffff168373ffffffffffffffffffffffffffffffffffffffff167f17307eab39ab6107e8899845ad3d59bd9653f200f220920489ca2b5937696c3183604051612f5c91906136a8565b60405180910390a3505050565b612f74848484612853565b612f8084848484613297565b612fbf576040517f08c379a0000000000000000000000000000000000000000000000000000000008152600401612fb6906152eb565b60405180910390fd5b50505050565b606060405180602001604052806000815250905090565b60606000821415613024576040518060400160405280600181526020017f30000000000000000000000000000000000000000000000000000000000000008152509050613138565b600082905060005b6000821461305657808061303f90614d62565b915050600a8261304f9190614b88565b915061302c565b60008167ffffffffffffffff811115613072576130716136de565b5b6040519080825280601f01601f1916602001820160405280156130a45781602001600182028036833780820191505090505b5090505b60008514613131576001826130bd9190614b25565b9150600a856130cc919061530b565b60306130d891906149d1565b60f81b8183815181106130ee576130ed614789565b5b60200101907effffffffffffffffffffffffffffffffffffffffffffffffffffffffffffff1916908160001a905350600a8561312a9190614b88565b94506130a8565b8093505050505b919050565b60008073ffffffffffffffffffffffffffffffffffffffff166002600084815260200190815260200160002060009054906101000a900473ffffffffffffffffffffffffffffffffffffffff1673ffffffffffffffffffffffffffffffffffffffff1614159050919050565b6000808390506000839050600082519050815181146131ce5760009350505050613287565b60005b8181101561327e578281815181106131ec576131eb614789565b5b602001015160f81c60f81b7effffffffffffffffffffffffffffffffffffffffffffffffffffffffffffff191684828151811061322c5761322b614789565b5b602001015160f81c60f81b7effffffffffffffffffffffffffffffffffffffffffffffffffffffffffffff19161461326b576000945050505050613287565b808061327690614d62565b9150506131d1565b50600193505050505b92915050565b505050565b505050565b60006132b88473ffffffffffffffffffffffffffffffffffffffff1661342e565b15613421578373ffffffffffffffffffffffffffffffffffffffff1663150b7a026132e1612578565b8786866040518563ffffffff1660e01b81526004016133039493929190615391565b602060405180830381600087803b15801561331d57600080fd5b505af192505050801561334e57506040513d601f19601f8201168201806040525081019061334b91906153f2565b60015b6133d1573d806000811461337e576040519150601f19603f3d011682016040523d82523d6000602084013e613383565b606091505b506000815114156133c9576040517f08c379a00000000000000000000000000000000000000000000000000000000081526004016133c0906152eb565b60405180910390fd5b805181602001fd5b63150b7a0260e01b7bffffffffffffffffffffffffffffffffffffffffffffffffffffffff1916817bffffffffffffffffffffffffffffffffffffffffffffffffffffffff191614915050613426565b600190505b949350505050565b6000808273ffffffffffffffffffffffffffffffffffffffff163b119050919050565b82805461345d90614508565b90600052602060002090601f01602090048101928261347f57600085556134c6565b82601f1061349857805160ff19168380011785556134c6565b828001600101855582156134c6579182015b828111156134c55782518255916020019190600101906134aa565b5b5090506134d391906135d7565b5090565b6040518060a00160405280600081526020016000815260200160608152602001600015158152602001600081525090565b828054828255906000526020600020908101928215613581579160200282015b828111156135805782518260006101000a81548173ffffffffffffffffffffffffffffffffffffffff021916908373ffffffffffffffffffffffffffffffffffffffff16021790555091602001919060010190613528565b5b50905061358e91906135d7565b5090565b6040518060600160405280600060028111156135b1576135b061406a565b5b8152602001600060018111156135ca576135c961406a565b5b8152602001600081525090565b5b808211156135f05760008160009055506001016135d8565b5090565b6000604051905090565b600080fd5b600080fd5b60007fffffffff0000000000000000000000000000000000000000000000000000000082169050919050565b61363d81613608565b811461364857600080fd5b50565b60008135905061365a81613634565b92915050565b600060208284031215613676576136756135fe565b5b60006136848482850161364b565b91505092915050565b60008115159050919050565b6136a28161368d565b82525050565b60006020820190506136bd6000830184613699565b92915050565b600080fd5b600080fd5b6000601f19601f8301169050919050565b7f4e487b7100000000000000000000000000000000000000000000000000000000600052604160045260246000fd5b613716826136cd565b810181811067ffffffffffffffff82111715613735576137346136de565b5b80604052505050565b60006137486135f4565b9050613754828261370d565b919050565b600067ffffffffffffffff821115613774576137736136de565b5b61377d826136cd565b9050602081019050919050565b82818337600083830152505050565b60006137ac6137a784613759565b61373e565b9050828152602081018484840111156137c8576137c76136c8565b5b6137d384828561378a565b509392505050565b600082601f8301126137f0576137ef6136c3565b5b8135613800848260208601613799565b91505092915050565b60006020828403121561381f5761381e6135fe565b5b600082013567ffffffffffffffff81111561383d5761383c613603565b5b613849848285016137db565b91505092915050565b6000819050919050565b61386581613852565b82525050565b6000608082019050613880600083018761385c565b61388d602083018661385c565b61389a6040830185613699565b6138a7606083018461385c565b95945050505050565b600081519050919050565b600082825260208201905092915050565b60005b838110156138ea5780820151818401526020810190506138cf565b838111156138f9576000848401525b50505050565b600061390a826138b0565b61391481856138bb565b93506139248185602086016138cc565b61392d816136cd565b840191505092915050565b6000602082019050818103600083015261395281846138ff565b905092915050565b61396381613852565b811461396e57600080fd5b50565b6000813590506139808161395a565b92915050565b60006020828403121561399c5761399b6135fe565b5b60006139aa84828501613971565b91505092915050565b600073ffffffffffffffffffffffffffffffffffffffff82169050919050565b60006139de826139b3565b9050919050565b6139ee816139d3565b82525050565b6000602082019050613a0960008301846139e5565b92915050565b613a18816139d3565b8114613a2357600080fd5b50565b600081359050613a3581613a0f565b92915050565b60008060408385031215613a5257613a516135fe565b5b6000613a6085828601613a26565b9250506020613a7185828601613971565b9150509250929050565b60008060408385031215613a9257613a916135fe565b5b600083013567ffffffffffffffff811115613ab057613aaf613603565b5b613abc858286016137db565b9250506020613acd85828601613971565b9150509250929050565b600080600060608486031215613af057613aef6135fe565b5b6000613afe86828701613a26565b9350506020613b0f86828701613a26565b9250506040613b2086828701613971565b9150509250925092565b6000602082019050613b3f600083018461385c565b92915050565b600060208284031215613b5b57613b5a6135fe565b5b6000613b6984828501613a26565b91505092915050565b613b7b8161368d565b8114613b8657600080fd5b50565b600081359050613b9881613b72565b92915050565b60008060008060808587031215613bb857613bb76135fe565b5b600085013567ffffffffffffffff811115613bd657613bd5613603565b5b613be2878288016137db565b9450506020613bf387828801613971565b9350506040613c0487828801613971565b9250506060613c1587828801613b89565b91505092959194509250565b600080600060608486031215613c3a57613c396135fe565b5b6000613c4886828701613971565b935050602084013567ffffffffffffffff811115613c6957613c68613603565b5b613c75868287016137db565b9250506040613c8686828701613971565b9150509250925092565b600081519050919050565b600082825260208201905092915050565b6000819050602082019050919050565b613cc581613852565b82525050565b600082825260208201905092915050565b6000613ce7826138b0565b613cf18185613ccb565b9350613d018185602086016138cc565b613d0a816136cd565b840191505092915050565b613d1e8161368d565b82525050565b600060a083016000830151613d3c6000860182613cbc565b5060208301518482036020860152613d548282613cdc565b9150506040830151613d696040860182613cbc565b506060830151613d7c6060860182613cbc565b506080830151613d8f6080860182613d15565b508091505092915050565b6000613da68383613d24565b905092915050565b6000602082019050919050565b6000613dc682613c90565b613dd08185613c9b565b935083602082028501613de285613cac565b8060005b85811015613e1e5784840389528151613dff8582613d9a565b9450613e0a83613dae565b925060208a01995050600181019050613de6565b50829750879550505050505092915050565b60006020820190508181036000830152613e4a8184613dbb565b905092915050565b600081519050919050565b600082825260208201905092915050565b6000819050602082019050919050565b600081519050919050565b600082825260208201905092915050565b6000819050602082019050919050565b613eb3816139d3565b82525050565b6000613ec58383613eaa565b60208301905092915050565b6000602082019050919050565b6000613ee982613e7e565b613ef38185613e89565b9350613efe83613e9a565b8060005b83811015613f2f578151613f168882613eb9565b9750613f2183613ed1565b925050600181019050613f02565b5085935050505092915050565b600060a083016000830151613f546000860182613cbc565b506020830151613f676020860182613cbc565b5060408301518482036040860152613f7f8282613ede565b9150506060830151613f946060860182613d15565b506080830151613fa76080860182613cbc565b508091505092915050565b6000613fbe8383613f3c565b905092915050565b6000602082019050919050565b6000613fde82613e52565b613fe88185613e5d565b935083602082028501613ffa85613e6e565b8060005b8581101561403657848403895281516140178582613fb2565b945061402283613fc6565b925060208a01995050600181019050613ffe565b50829750879550505050505092915050565b600060208201905081810360008301526140628184613fd3565b905092915050565b7f4e487b7100000000000000000000000000000000000000000000000000000000600052602160045260246000fd5b600381106140aa576140a961406a565b5b50565b60008190506140bb82614099565b919050565b60006140cb826140ad565b9050919050565b6140db816140c0565b82525050565b600281106140f2576140f161406a565b5b50565b6000819050614103826140e1565b919050565b6000614113826140f5565b9050919050565b61412381614108565b82525050565b60608201600082015161413f60008501826140d2565b506020820151614152602085018261411a565b5060408201516141656040850182613cbc565b50505050565b60006060820190506141806000830184614129565b92915050565b6000806040838503121561419d5761419c6135fe565b5b60006141ab85828601613a26565b92505060206141bc85828601613b89565b9150509250929050565b6000806000606084860312156141df576141de6135fe565b5b600084013567ffffffffffffffff8111156141fd576141fc613603565b5b614209868287016137db565b935050602061421a86828701613971565b925050604061422b86828701613971565b9150509250925092565b600067ffffffffffffffff8211156142505761424f6136de565b5b614259826136cd565b9050602081019050919050565b600061427961427484614235565b61373e565b905082815260208101848484011115614295576142946136c8565b5b6142a084828561378a565b509392505050565b600082601f8301126142bd576142bc6136c3565b5b81356142cd848260208601614266565b91505092915050565b600080600080608085870312156142f0576142ef6135fe565b5b60006142fe87828801613a26565b945050602061430f87828801613a26565b935050604061432087828801613971565b925050606085013567ffffffffffffffff81111561434157614340613603565b5b61434d878288016142a8565b91505092959194509250565b600060a08201905061436e600083018861385c565b818103602083015261438081876138ff565b905061438f604083018661385c565b61439c606083018561385c565b6143a96080830184613699565b9695505050505050565b600082825260208201905092915050565b60006143cf82613e7e565b6143d981856143b3565b93506143e483613e9a565b8060005b838110156144155781516143fc8882613eb9565b975061440783613ed1565b9250506001810190506143e8565b5085935050505092915050565b6000602082019050818103600083015261443c81846143c4565b905092915050565b6000806040838503121561445b5761445a6135fe565b5b600061446985828601613a26565b925050602061447a85828601613a26565b9150509250929050565b61448d816140c0565b82525050565b61449c81614108565b82525050565b60006060820190506144b76000830186614484565b6144c46020830185614493565b6144d1604083018461385c565b949350505050565b7f4e487b7100000000000000000000000000000000000000000000000000000000600052602260045260246000fd5b6000600282049050600182168061452057607f821691505b60208210811415614534576145336144d9565b5b50919050565b7f4552433732313a20617070726f76616c20746f2063757272656e74206f776e6560008201527f7200000000000000000000000000000000000000000000000000000000000000602082015250565b60006145966021836138bb565b91506145a18261453a565b604082019050919050565b600060208201905081810360008301526145c581614589565b9050919050565b7f4552433732313a20617070726f76652063616c6c6572206973206e6f7420746f60008201527f6b656e206f776e6572206e6f7220617070726f76656420666f7220616c6c0000602082015250565b6000614628603e836138bb565b9150614633826145cc565b604082019050919050565b600060208201905081810360008301526146578161461b565b9050919050565b7f4974656d20646f6573206e6f7420657869737421000000000000000000000000600082015250565b60006146946014836138bb565b915061469f8261465e565b602082019050919050565b600060208201905081810360008301526146c381614687565b9050919050565b7f556e617574686f72697a656420746f20726573656c6c206974656d2100000000600082015250565b6000614700601c836138bb565b915061470b826146ca565b602082019050919050565b6000602082019050818103600083015261472f816146f3565b9050919050565b600081905092915050565b600061474c826138b0565b6147568185614736565b93506147668185602086016138cc565b80840191505092915050565b600061477e8284614741565b915081905092915050565b7f4e487b7100000000000000000000000000000000000000000000000000000000600052603260045260246000fd5b7f43616e6e6f7420726573656c6c2c206974656d20697320736f756c626f756e6460008201527f2100000000000000000000000000000000000000000000000000000000000000602082015250565b60006148146021836138bb565b915061481f826147b8565b604082019050919050565b6000602082019050818103600083015261484381614807565b9050919050565b7f4552433732313a2063616c6c6572206973206e6f7420746f6b656e206f776e6560008201527f72206e6f7220617070726f766564000000000000000000000000000000000000602082015250565b60006148a6602e836138bb565b91506148b18261484a565b604082019050919050565b600060208201905081810360008301526148d581614899565b9050919050565b7f53657269616c206e756d62657220657869737473210000000000000000000000600082015250565b60006149126015836138bb565b915061491d826148dc565b602082019050919050565b6000602082019050818103600083015261494181614905565b9050919050565b7f4e487b7100000000000000000000000000000000000000000000000000000000600052601160045260246000fd5b600061498282613852565b915061498d83613852565b9250817fffffffffffffffffffffffffffffffffffffffffffffffffffffffffffffffff04831182151516156149c6576149c5614948565b5b828202905092915050565b60006149dc82613852565b91506149e783613852565b9250827fffffffffffffffffffffffffffffffffffffffffffffffffffffffffffffffff03821115614a1c57614a1b614948565b5b828201905092915050565b7f496e636f727265637420616d6f756e74206f662065746865722073656e742100600082015250565b6000614a5d601f836138bb565b9150614a6882614a27565b602082019050919050565b60006020820190508181036000830152614a8c81614a50565b9050919050565b7f5573657220646f6573206e6f74206861766520656e6f75676820746f6b656e7360008201527f2100000000000000000000000000000000000000000000000000000000000000602082015250565b6000614aef6021836138bb565b9150614afa82614a93565b604082019050919050565b60006020820190508181036000830152614b1e81614ae2565b9050919050565b6000614b3082613852565b9150614b3b83613852565b925082821015614b4e57614b4d614948565b5b828203905092915050565b7f4e487b7100000000000000000000000000000000000000000000000000000000600052601260045260246000fd5b6000614b9382613852565b9150614b9e83613852565b925082614bae57614bad614b59565b5b828204905092915050565b7f4552433732313a20696e76616c696420746f6b656e2049440000000000000000600082015250565b6000614bef6018836138bb565b9150614bfa82614bb9565b602082019050919050565b60006020820190508181036000830152614c1e81614be2565b9050919050565b7f4552433732313a2061646472657373207a65726f206973206e6f74206120766160008201527f6c6964206f776e65720000000000000000000000000000000000000000000000602082015250565b6000614c816029836138bb565b9150614c8c82614c25565b604082019050919050565b60006020820190508181036000830152614cb081614c74565b9050919050565b60008190508160005260206000209050919050565b60008154614cd981614508565b614ce38186614736565b94506001821660008114614cfe5760018114614d0f57614d42565b60ff19831686528186019350614d42565b614d1885614cb7565b60005b83811015614d3a57815481890152600182019150602081019050614d1b565b838801955050505b50505092915050565b6000614d578284614ccc565b915081905092915050565b6000614d6d82613852565b91507fffffffffffffffffffffffffffffffffffffffffffffffffffffffffffffffff821415614da057614d9f614948565b5b600182019050919050565b7f57617272616e7479206861732065787069726564210000000000000000000000600082015250565b6000614de16015836138bb565b9150614dec82614dab565b602082019050919050565b60006020820190508181036000830152614e1081614dd4565b9050919050565b6000614e238285614741565b9150614e2f8284614741565b91508190509392505050565b7f4974656d206e6f7420617661696c61626c6520666f7220726573616c65210000600082015250565b6000614e71601e836138bb565b9150614e7c82614e3b565b602082019050919050565b60006020820190508181036000830152614ea081614e64565b9050919050565b7f4f776e61626c653a206e6577206f776e657220697320746865207a65726f206160008201527f6464726573730000000000000000000000000000000000000000000000000000602082015250565b6000614f036026836138bb565b9150614f0e82614ea7565b604082019050919050565b60006020820190508181036000830152614f3281614ef6565b9050919050565b7f556e617574686f72697a656420746f207365742076616c756521000000000000600082015250565b6000614f6f601a836138bb565b9150614f7a82614f39565b602082019050919050565b60006020820190508181036000830152614f9e81614f62565b9050919050565b7f4552433732313a207472616e736665722066726f6d20696e636f72726563742060008201527f6f776e6572000000000000000000000000000000000000000000000000000000602082015250565b60006150016025836138bb565b915061500c82614fa5565b604082019050919050565b6000602082019050818103600083015261503081614ff4565b9050919050565b7f4552433732313a207472616e7366657220746f20746865207a65726f2061646460008201527f7265737300000000000000000000000000000000000000000000000000000000602082015250565b60006150936024836138bb565b915061509e82615037565b604082019050919050565b600060208201905081810360008301526150c281615086565b9050919050565b7f4f776e61626c653a2063616c6c6572206973206e6f7420746865206f776e6572600082015250565b60006150ff6020836138bb565b915061510a826150c9565b602082019050919050565b6000602082019050818103600083015261512e816150f2565b9050919050565b7f4552433732313a206d696e7420746f20746865207a65726f2061646472657373600082015250565b600061516b6020836138bb565b915061517682615135565b602082019050919050565b6000602082019050818103600083015261519a8161515e565b9050919050565b7f4552433732313a20746f6b656e20616c7265616479206d696e74656400000000600082015250565b60006151d7601c836138bb565b91506151e2826151a1565b602082019050919050565b60006020820190508181036000830152615206816151ca565b9050919050565b7f4552433732313a20617070726f766520746f2063616c6c657200000000000000600082015250565b60006152436019836138bb565b915061524e8261520d565b602082019050919050565b6000602082019050818103600083015261527281615236565b9050919050565b7f4552433732313a207472616e7366657220746f206e6f6e20455243373231526560008201527f63656976657220696d706c656d656e7465720000000000000000000000000000602082015250565b60006152d56032836138bb565b91506152e082615279565b604082019050919050565b60006020820190508181036000830152615304816152c8565b9050919050565b600061531682613852565b915061532183613852565b92508261533157615330614b59565b5b828206905092915050565b600081519050919050565b600082825260208201905092915050565b60006153638261533c565b61536d8185615347565b935061537d8185602086016138cc565b615386816136cd565b840191505092915050565b60006080820190506153a660008301876139e5565b6153b360208301866139e5565b6153c0604083018561385c565b81810360608301526153d28184615358565b905095945050505050565b6000815190506153ec81613634565b92915050565b600060208284031215615408576154076135fe565b5b6000615416848285016153dd565b9150509291505056fea2646970667358221220b4807ba32cbe36e648f35e45ed30a17091b9eca9a279437daffbd049e2805d8064736f6c63430008090033",
  "linkReferences": {},
  "deployedLinkReferences": {}
}